{
	"StoryhuntTokenLaunchpad_flattened.sol": {
		"StoryHuntTokenLaunchpad": {
			"abi": [
				{
					"anonymous": false,
					"inputs": [
						{
							"indexed": true,
							"internalType": "address",
							"name": "tokenAddress",
							"type": "address"
						},
						{
							"indexed": true,
							"internalType": "address",
							"name": "owner",
							"type": "address"
						},
						{
							"indexed": false,
							"internalType": "string",
							"name": "name",
							"type": "string"
						},
						{
							"indexed": false,
							"internalType": "string",
							"name": "symbol",
							"type": "string"
						},
						{
							"indexed": false,
							"internalType": "uint256",
							"name": "initialSupply",
							"type": "uint256"
						}
					],
					"name": "TokenCreated",
					"type": "event"
				},
				{
					"inputs": [
						{
							"internalType": "string",
							"name": "name",
							"type": "string"
						},
						{
							"internalType": "string",
							"name": "symbol",
							"type": "string"
						},
						{
							"internalType": "uint256",
							"name": "initialSupply",
							"type": "uint256"
						}
					],
					"name": "createToken",
					"outputs": [
						{
							"internalType": "address",
							"name": "",
							"type": "address"
						}
					],
					"stateMutability": "nonpayable",
					"type": "function"
				}
			],
			"devdoc": {
				"kind": "dev",
				"methods": {},
				"version": 1
			},
			"evm": {
				"assembly": "    /* \"StoryhuntTokenLaunchpad_flattened.sol\":21830:22432  contract StoryHuntTokenLaunchpad {... */\n  mstore(0x40, 0x80)\n  callvalue\n  dup1\n  iszero\n  tag_1\n  jumpi\n  0x00\n  dup1\n  revert\ntag_1:\n  pop\n  dataSize(sub_0)\n  dup1\n  dataOffset(sub_0)\n  0x00\n  codecopy\n  0x00\n  return\nstop\n\nsub_0: assembly {\n        /* \"StoryhuntTokenLaunchpad_flattened.sol\":21830:22432  contract StoryHuntTokenLaunchpad {... */\n      mstore(0x40, 0x80)\n      callvalue\n      dup1\n      iszero\n      tag_1\n      jumpi\n      0x00\n      dup1\n      revert\n    tag_1:\n      pop\n      jumpi(tag_2, lt(calldatasize, 0x04))\n      shr(0xe0, calldataload(0x00))\n      dup1\n      0x5b060530\n      eq\n      tag_3\n      jumpi\n    tag_2:\n      0x00\n      dup1\n      revert\n        /* \"StoryhuntTokenLaunchpad_flattened.sol\":22074:22430  function createToken(... */\n    tag_3:\n      tag_4\n      0x04\n      dup1\n      calldatasize\n      sub\n      dup2\n      add\n      swap1\n      tag_5\n      swap2\n      swap1\n      tag_6\n      jump\t// in\n    tag_5:\n      tag_7\n      jump\t// in\n    tag_4:\n      mload(0x40)\n      tag_8\n      swap2\n      swap1\n      tag_9\n      jump\t// in\n    tag_8:\n      mload(0x40)\n      dup1\n      swap2\n      sub\n      swap1\n      return\n    tag_7:\n        /* \"StoryhuntTokenLaunchpad_flattened.sol\":22206:22213  address */\n      0x00\n        /* \"StoryhuntTokenLaunchpad_flattened.sol\":22225:22244  ERC20Token newToken */\n      dup1\n        /* \"StoryhuntTokenLaunchpad_flattened.sol\":22262:22266  name */\n      dup5\n        /* \"StoryhuntTokenLaunchpad_flattened.sol\":22268:22274  symbol */\n      dup5\n        /* \"StoryhuntTokenLaunchpad_flattened.sol\":22276:22289  initialSupply */\n      dup5\n        /* \"StoryhuntTokenLaunchpad_flattened.sol\":22291:22301  msg.sender */\n      caller\n        /* \"StoryhuntTokenLaunchpad_flattened.sol\":22247:22302  new ERC20Token(name, symbol, initialSupply, msg.sender) */\n      mload(0x40)\n      tag_11\n      swap1\n      tag_12\n      jump\t// in\n    tag_11:\n      tag_13\n      swap5\n      swap4\n      swap3\n      swap2\n      swap1\n      tag_14\n      jump\t// in\n    tag_13:\n      mload(0x40)\n      dup1\n      swap2\n      sub\n      swap1\n      0x00\n      create\n      dup1\n      iszero\n      dup1\n      iszero\n      tag_15\n      jumpi\n      returndatasize\n      0x00\n      dup1\n      returndatacopy\n      revert(0x00, returndatasize)\n    tag_15:\n      pop\n        /* \"StoryhuntTokenLaunchpad_flattened.sol\":22225:22302  ERC20Token newToken = new ERC20Token(name, symbol, initialSupply, msg.sender) */\n      swap1\n      pop\n        /* \"StoryhuntTokenLaunchpad_flattened.sol\":22349:22359  msg.sender */\n      caller\n        /* \"StoryhuntTokenLaunchpad_flattened.sol\":22317:22389  TokenCreated(address(newToken), msg.sender, name, symbol, initialSupply) */\n      0xffffffffffffffffffffffffffffffffffffffff\n      and\n        /* \"StoryhuntTokenLaunchpad_flattened.sol\":22338:22346  newToken */\n      dup2\n        /* \"StoryhuntTokenLaunchpad_flattened.sol\":22317:22389  TokenCreated(address(newToken), msg.sender, name, symbol, initialSupply) */\n      0xffffffffffffffffffffffffffffffffffffffff\n      and\n      0x6e6ae68e7d7d45fbd855c40d1eaafa8de46c5fbec3ee26f1af88730e400bc92c\n        /* \"StoryhuntTokenLaunchpad_flattened.sol\":22361:22365  name */\n      dup8\n        /* \"StoryhuntTokenLaunchpad_flattened.sol\":22367:22373  symbol */\n      dup8\n        /* \"StoryhuntTokenLaunchpad_flattened.sol\":22375:22388  initialSupply */\n      dup8\n        /* \"StoryhuntTokenLaunchpad_flattened.sol\":22317:22389  TokenCreated(address(newToken), msg.sender, name, symbol, initialSupply) */\n      mload(0x40)\n      tag_16\n      swap4\n      swap3\n      swap2\n      swap1\n      tag_17\n      jump\t// in\n    tag_16:\n      mload(0x40)\n      dup1\n      swap2\n      sub\n      swap1\n      log3\n        /* \"StoryhuntTokenLaunchpad_flattened.sol\":22414:22422  newToken */\n      dup1\n        /* \"StoryhuntTokenLaunchpad_flattened.sol\":22399:22423  return address(newToken) */\n      swap2\n      pop\n      pop\n        /* \"StoryhuntTokenLaunchpad_flattened.sol\":22074:22430  function createToken(... */\n      swap4\n      swap3\n      pop\n      pop\n      pop\n      jump\t// out\n    tag_12:\n      dataSize(sub_0)\n      dup1\n      dataOffset(sub_0)\n      dup4\n      codecopy\n      add\n      swap1\n      jump\t// out\n        /* \"#utility.yul\":7:82   */\n    tag_18:\n        /* \"#utility.yul\":40:46   */\n      0x00\n        /* \"#utility.yul\":73:75   */\n      0x40\n        /* \"#utility.yul\":67:76   */\n      mload\n        /* \"#utility.yul\":57:76   */\n      swap1\n      pop\n        /* \"#utility.yul\":7:82   */\n      swap1\n      jump\t// out\n        /* \"#utility.yul\":88:205   */\n    tag_19:\n        /* \"#utility.yul\":197:198   */\n      0x00\n        /* \"#utility.yul\":194:195   */\n      dup1\n        /* \"#utility.yul\":187:199   */\n      revert\n        /* \"#utility.yul\":211:328   */\n    tag_20:\n        /* \"#utility.yul\":320:321   */\n      0x00\n        /* \"#utility.yul\":317:318   */\n      dup1\n        /* \"#utility.yul\":310:322   */\n      revert\n        /* \"#utility.yul\":334:451   */\n    tag_21:\n        /* \"#utility.yul\":443:444   */\n      0x00\n        /* \"#utility.yul\":440:441   */\n      dup1\n        /* \"#utility.yul\":433:445   */\n      revert\n        /* \"#utility.yul\":457:574   */\n    tag_22:\n        /* \"#utility.yul\":566:567   */\n      0x00\n        /* \"#utility.yul\":563:564   */\n      dup1\n        /* \"#utility.yul\":556:568   */\n      revert\n        /* \"#utility.yul\":580:682   */\n    tag_23:\n        /* \"#utility.yul\":621:627   */\n      0x00\n        /* \"#utility.yul\":672:674   */\n      0x1f\n        /* \"#utility.yul\":668:675   */\n      not\n        /* \"#utility.yul\":663:665   */\n      0x1f\n        /* \"#utility.yul\":656:661   */\n      dup4\n        /* \"#utility.yul\":652:666   */\n      add\n        /* \"#utility.yul\":648:676   */\n      and\n        /* \"#utility.yul\":638:676   */\n      swap1\n      pop\n        /* \"#utility.yul\":580:682   */\n      swap2\n      swap1\n      pop\n      jump\t// out\n        /* \"#utility.yul\":688:868   */\n    tag_24:\n        /* \"#utility.yul\":736:813   */\n      0x4e487b7100000000000000000000000000000000000000000000000000000000\n        /* \"#utility.yul\":733:734   */\n      0x00\n        /* \"#utility.yul\":726:814   */\n      mstore\n        /* \"#utility.yul\":833:837   */\n      0x41\n        /* \"#utility.yul\":830:831   */\n      0x04\n        /* \"#utility.yul\":823:838   */\n      mstore\n        /* \"#utility.yul\":857:861   */\n      0x24\n        /* \"#utility.yul\":854:855   */\n      0x00\n        /* \"#utility.yul\":847:862   */\n      revert\n        /* \"#utility.yul\":874:1155   */\n    tag_25:\n        /* \"#utility.yul\":957:984   */\n      tag_51\n        /* \"#utility.yul\":979:983   */\n      dup3\n        /* \"#utility.yul\":957:984   */\n      tag_23\n      jump\t// in\n    tag_51:\n        /* \"#utility.yul\":949:955   */\n      dup2\n        /* \"#utility.yul\":945:985   */\n      add\n        /* \"#utility.yul\":1087:1093   */\n      dup2\n        /* \"#utility.yul\":1075:1085   */\n      dup2\n        /* \"#utility.yul\":1072:1094   */\n      lt\n        /* \"#utility.yul\":1051:1069   */\n      0xffffffffffffffff\n        /* \"#utility.yul\":1039:1049   */\n      dup3\n        /* \"#utility.yul\":1036:1070   */\n      gt\n        /* \"#utility.yul\":1033:1095   */\n      or\n        /* \"#utility.yul\":1030:1118   */\n      iszero\n      tag_52\n      jumpi\n        /* \"#utility.yul\":1098:1116   */\n      tag_53\n      tag_24\n      jump\t// in\n    tag_53:\n        /* \"#utility.yul\":1030:1118   */\n    tag_52:\n        /* \"#utility.yul\":1138:1148   */\n      dup1\n        /* \"#utility.yul\":1134:1136   */\n      0x40\n        /* \"#utility.yul\":1127:1149   */\n      mstore\n        /* \"#utility.yul\":917:1155   */\n      pop\n        /* \"#utility.yul\":874:1155   */\n      pop\n      pop\n      jump\t// out\n        /* \"#utility.yul\":1161:1290   */\n    tag_26:\n        /* \"#utility.yul\":1195:1201   */\n      0x00\n        /* \"#utility.yul\":1222:1242   */\n      tag_55\n      tag_18\n      jump\t// in\n    tag_55:\n        /* \"#utility.yul\":1212:1242   */\n      swap1\n      pop\n        /* \"#utility.yul\":1251:1284   */\n      tag_56\n        /* \"#utility.yul\":1279:1283   */\n      dup3\n        /* \"#utility.yul\":1271:1277   */\n      dup3\n        /* \"#utility.yul\":1251:1284   */\n      tag_25\n      jump\t// in\n    tag_56:\n        /* \"#utility.yul\":1161:1290   */\n      swap2\n      swap1\n      pop\n      jump\t// out\n        /* \"#utility.yul\":1296:1604   */\n    tag_27:\n        /* \"#utility.yul\":1358:1362   */\n      0x00\n        /* \"#utility.yul\":1448:1466   */\n      0xffffffffffffffff\n        /* \"#utility.yul\":1440:1446   */\n      dup3\n        /* \"#utility.yul\":1437:1467   */\n      gt\n        /* \"#utility.yul\":1434:1490   */\n      iszero\n      tag_58\n      jumpi\n        /* \"#utility.yul\":1470:1488   */\n      tag_59\n      tag_24\n      jump\t// in\n    tag_59:\n        /* \"#utility.yul\":1434:1490   */\n    tag_58:\n        /* \"#utility.yul\":1508:1537   */\n      tag_60\n        /* \"#utility.yul\":1530:1536   */\n      dup3\n        /* \"#utility.yul\":1508:1537   */\n      tag_23\n      jump\t// in\n    tag_60:\n        /* \"#utility.yul\":1500:1537   */\n      swap1\n      pop\n        /* \"#utility.yul\":1592:1596   */\n      0x20\n        /* \"#utility.yul\":1586:1590   */\n      dup2\n        /* \"#utility.yul\":1582:1597   */\n      add\n        /* \"#utility.yul\":1574:1597   */\n      swap1\n      pop\n        /* \"#utility.yul\":1296:1604   */\n      swap2\n      swap1\n      pop\n      jump\t// out\n        /* \"#utility.yul\":1610:1758   */\n    tag_28:\n        /* \"#utility.yul\":1708:1714   */\n      dup3\n        /* \"#utility.yul\":1703:1706   */\n      dup2\n        /* \"#utility.yul\":1698:1701   */\n      dup4\n        /* \"#utility.yul\":1685:1715   */\n      calldatacopy\n        /* \"#utility.yul\":1749:1750   */\n      0x00\n        /* \"#utility.yul\":1740:1746   */\n      dup4\n        /* \"#utility.yul\":1735:1738   */\n      dup4\n        /* \"#utility.yul\":1731:1747   */\n      add\n        /* \"#utility.yul\":1724:1751   */\n      mstore\n        /* \"#utility.yul\":1610:1758   */\n      pop\n      pop\n      pop\n      jump\t// out\n        /* \"#utility.yul\":1764:2189   */\n    tag_29:\n        /* \"#utility.yul\":1842:1847   */\n      0x00\n        /* \"#utility.yul\":1867:1933   */\n      tag_63\n        /* \"#utility.yul\":1883:1932   */\n      tag_64\n        /* \"#utility.yul\":1925:1931   */\n      dup5\n        /* \"#utility.yul\":1883:1932   */\n      tag_27\n      jump\t// in\n    tag_64:\n        /* \"#utility.yul\":1867:1933   */\n      tag_26\n      jump\t// in\n    tag_63:\n        /* \"#utility.yul\":1858:1933   */\n      swap1\n      pop\n        /* \"#utility.yul\":1956:1962   */\n      dup3\n        /* \"#utility.yul\":1949:1954   */\n      dup2\n        /* \"#utility.yul\":1942:1963   */\n      mstore\n        /* \"#utility.yul\":1994:1998   */\n      0x20\n        /* \"#utility.yul\":1987:1992   */\n      dup2\n        /* \"#utility.yul\":1983:1999   */\n      add\n        /* \"#utility.yul\":2032:2035   */\n      dup5\n        /* \"#utility.yul\":2023:2029   */\n      dup5\n        /* \"#utility.yul\":2018:2021   */\n      dup5\n        /* \"#utility.yul\":2014:2030   */\n      add\n        /* \"#utility.yul\":2011:2036   */\n      gt\n        /* \"#utility.yul\":2008:2120   */\n      iszero\n      tag_65\n      jumpi\n        /* \"#utility.yul\":2039:2118   */\n      tag_66\n      tag_22\n      jump\t// in\n    tag_66:\n        /* \"#utility.yul\":2008:2120   */\n    tag_65:\n        /* \"#utility.yul\":2129:2183   */\n      tag_67\n        /* \"#utility.yul\":2176:2182   */\n      dup5\n        /* \"#utility.yul\":2171:2174   */\n      dup3\n        /* \"#utility.yul\":2166:2169   */\n      dup6\n        /* \"#utility.yul\":2129:2183   */\n      tag_28\n      jump\t// in\n    tag_67:\n        /* \"#utility.yul\":1848:2189   */\n      pop\n        /* \"#utility.yul\":1764:2189   */\n      swap4\n      swap3\n      pop\n      pop\n      pop\n      jump\t// out\n        /* \"#utility.yul\":2209:2549   */\n    tag_30:\n        /* \"#utility.yul\":2265:2270   */\n      0x00\n        /* \"#utility.yul\":2314:2317   */\n      dup3\n        /* \"#utility.yul\":2307:2311   */\n      0x1f\n        /* \"#utility.yul\":2299:2305   */\n      dup4\n        /* \"#utility.yul\":2295:2312   */\n      add\n        /* \"#utility.yul\":2291:2318   */\n      slt\n        /* \"#utility.yul\":2281:2403   */\n      tag_69\n      jumpi\n        /* \"#utility.yul\":2322:2401   */\n      tag_70\n      tag_21\n      jump\t// in\n    tag_70:\n        /* \"#utility.yul\":2281:2403   */\n    tag_69:\n        /* \"#utility.yul\":2439:2445   */\n      dup2\n        /* \"#utility.yul\":2426:2446   */\n      calldataload\n        /* \"#utility.yul\":2464:2543   */\n      tag_71\n        /* \"#utility.yul\":2539:2542   */\n      dup5\n        /* \"#utility.yul\":2531:2537   */\n      dup3\n        /* \"#utility.yul\":2524:2528   */\n      0x20\n        /* \"#utility.yul\":2516:2522   */\n      dup7\n        /* \"#utility.yul\":2512:2529   */\n      add\n        /* \"#utility.yul\":2464:2543   */\n      tag_29\n      jump\t// in\n    tag_71:\n        /* \"#utility.yul\":2455:2543   */\n      swap2\n      pop\n        /* \"#utility.yul\":2271:2549   */\n      pop\n        /* \"#utility.yul\":2209:2549   */\n      swap3\n      swap2\n      pop\n      pop\n      jump\t// out\n        /* \"#utility.yul\":2555:2632   */\n    tag_31:\n        /* \"#utility.yul\":2592:2599   */\n      0x00\n        /* \"#utility.yul\":2621:2626   */\n      dup2\n        /* \"#utility.yul\":2610:2626   */\n      swap1\n      pop\n        /* \"#utility.yul\":2555:2632   */\n      swap2\n      swap1\n      pop\n      jump\t// out\n        /* \"#utility.yul\":2638:2760   */\n    tag_32:\n        /* \"#utility.yul\":2711:2735   */\n      tag_74\n        /* \"#utility.yul\":2729:2734   */\n      dup2\n        /* \"#utility.yul\":2711:2735   */\n      tag_31\n      jump\t// in\n    tag_74:\n        /* \"#utility.yul\":2704:2709   */\n      dup2\n        /* \"#utility.yul\":2701:2736   */\n      eq\n        /* \"#utility.yul\":2691:2754   */\n      tag_75\n      jumpi\n        /* \"#utility.yul\":2750:2751   */\n      0x00\n        /* \"#utility.yul\":2747:2748   */\n      dup1\n        /* \"#utility.yul\":2740:2752   */\n      revert\n        /* \"#utility.yul\":2691:2754   */\n    tag_75:\n        /* \"#utility.yul\":2638:2760   */\n      pop\n      jump\t// out\n        /* \"#utility.yul\":2766:2905   */\n    tag_33:\n        /* \"#utility.yul\":2812:2817   */\n      0x00\n        /* \"#utility.yul\":2850:2856   */\n      dup2\n        /* \"#utility.yul\":2837:2857   */\n      calldataload\n        /* \"#utility.yul\":2828:2857   */\n      swap1\n      pop\n        /* \"#utility.yul\":2866:2899   */\n      tag_77\n        /* \"#utility.yul\":2893:2898   */\n      dup2\n        /* \"#utility.yul\":2866:2899   */\n      tag_32\n      jump\t// in\n    tag_77:\n        /* \"#utility.yul\":2766:2905   */\n      swap3\n      swap2\n      pop\n      pop\n      jump\t// out\n        /* \"#utility.yul\":2911:3890   */\n    tag_6:\n        /* \"#utility.yul\":3008:3014   */\n      0x00\n        /* \"#utility.yul\":3016:3022   */\n      dup1\n        /* \"#utility.yul\":3024:3030   */\n      0x00\n        /* \"#utility.yul\":3073:3075   */\n      0x60\n        /* \"#utility.yul\":3061:3070   */\n      dup5\n        /* \"#utility.yul\":3052:3059   */\n      dup7\n        /* \"#utility.yul\":3048:3071   */\n      sub\n        /* \"#utility.yul\":3044:3076   */\n      slt\n        /* \"#utility.yul\":3041:3160   */\n      iszero\n      tag_79\n      jumpi\n        /* \"#utility.yul\":3079:3158   */\n      tag_80\n      tag_19\n      jump\t// in\n    tag_80:\n        /* \"#utility.yul\":3041:3160   */\n    tag_79:\n        /* \"#utility.yul\":3227:3228   */\n      0x00\n        /* \"#utility.yul\":3216:3225   */\n      dup5\n        /* \"#utility.yul\":3212:3229   */\n      add\n        /* \"#utility.yul\":3199:3230   */\n      calldataload\n        /* \"#utility.yul\":3257:3275   */\n      0xffffffffffffffff\n        /* \"#utility.yul\":3249:3255   */\n      dup2\n        /* \"#utility.yul\":3246:3276   */\n      gt\n        /* \"#utility.yul\":3243:3360   */\n      iszero\n      tag_81\n      jumpi\n        /* \"#utility.yul\":3279:3358   */\n      tag_82\n      tag_20\n      jump\t// in\n    tag_82:\n        /* \"#utility.yul\":3243:3360   */\n    tag_81:\n        /* \"#utility.yul\":3384:3447   */\n      tag_83\n        /* \"#utility.yul\":3439:3446   */\n      dup7\n        /* \"#utility.yul\":3430:3436   */\n      dup3\n        /* \"#utility.yul\":3419:3428   */\n      dup8\n        /* \"#utility.yul\":3415:3437   */\n      add\n        /* \"#utility.yul\":3384:3447   */\n      tag_30\n      jump\t// in\n    tag_83:\n        /* \"#utility.yul\":3374:3447   */\n      swap4\n      pop\n        /* \"#utility.yul\":3170:3457   */\n      pop\n        /* \"#utility.yul\":3524:3526   */\n      0x20\n        /* \"#utility.yul\":3513:3522   */\n      dup5\n        /* \"#utility.yul\":3509:3527   */\n      add\n        /* \"#utility.yul\":3496:3528   */\n      calldataload\n        /* \"#utility.yul\":3555:3573   */\n      0xffffffffffffffff\n        /* \"#utility.yul\":3547:3553   */\n      dup2\n        /* \"#utility.yul\":3544:3574   */\n      gt\n        /* \"#utility.yul\":3541:3658   */\n      iszero\n      tag_84\n      jumpi\n        /* \"#utility.yul\":3577:3656   */\n      tag_85\n      tag_20\n      jump\t// in\n    tag_85:\n        /* \"#utility.yul\":3541:3658   */\n    tag_84:\n        /* \"#utility.yul\":3682:3745   */\n      tag_86\n        /* \"#utility.yul\":3737:3744   */\n      dup7\n        /* \"#utility.yul\":3728:3734   */\n      dup3\n        /* \"#utility.yul\":3717:3726   */\n      dup8\n        /* \"#utility.yul\":3713:3735   */\n      add\n        /* \"#utility.yul\":3682:3745   */\n      tag_30\n      jump\t// in\n    tag_86:\n        /* \"#utility.yul\":3672:3745   */\n      swap3\n      pop\n        /* \"#utility.yul\":3467:3755   */\n      pop\n        /* \"#utility.yul\":3794:3796   */\n      0x40\n        /* \"#utility.yul\":3820:3873   */\n      tag_87\n        /* \"#utility.yul\":3865:3872   */\n      dup7\n        /* \"#utility.yul\":3856:3862   */\n      dup3\n        /* \"#utility.yul\":3845:3854   */\n      dup8\n        /* \"#utility.yul\":3841:3863   */\n      add\n        /* \"#utility.yul\":3820:3873   */\n      tag_33\n      jump\t// in\n    tag_87:\n        /* \"#utility.yul\":3810:3873   */\n      swap2\n      pop\n        /* \"#utility.yul\":3765:3883   */\n      pop\n        /* \"#utility.yul\":2911:3890   */\n      swap3\n      pop\n      swap3\n      pop\n      swap3\n      jump\t// out\n        /* \"#utility.yul\":3896:4022   */\n    tag_34:\n        /* \"#utility.yul\":3933:3940   */\n      0x00\n        /* \"#utility.yul\":3973:4015   */\n      0xffffffffffffffffffffffffffffffffffffffff\n        /* \"#utility.yul\":3966:3971   */\n      dup3\n        /* \"#utility.yul\":3962:4016   */\n      and\n        /* \"#utility.yul\":3951:4016   */\n      swap1\n      pop\n        /* \"#utility.yul\":3896:4022   */\n      swap2\n      swap1\n      pop\n      jump\t// out\n        /* \"#utility.yul\":4028:4124   */\n    tag_35:\n        /* \"#utility.yul\":4065:4072   */\n      0x00\n        /* \"#utility.yul\":4094:4118   */\n      tag_90\n        /* \"#utility.yul\":4112:4117   */\n      dup3\n        /* \"#utility.yul\":4094:4118   */\n      tag_34\n      jump\t// in\n    tag_90:\n        /* \"#utility.yul\":4083:4118   */\n      swap1\n      pop\n        /* \"#utility.yul\":4028:4124   */\n      swap2\n      swap1\n      pop\n      jump\t// out\n        /* \"#utility.yul\":4130:4248   */\n    tag_36:\n        /* \"#utility.yul\":4217:4241   */\n      tag_92\n        /* \"#utility.yul\":4235:4240   */\n      dup2\n        /* \"#utility.yul\":4217:4241   */\n      tag_35\n      jump\t// in\n    tag_92:\n        /* \"#utility.yul\":4212:4215   */\n      dup3\n        /* \"#utility.yul\":4205:4242   */\n      mstore\n        /* \"#utility.yul\":4130:4248   */\n      pop\n      pop\n      jump\t// out\n        /* \"#utility.yul\":4254:4476   */\n    tag_9:\n        /* \"#utility.yul\":4347:4351   */\n      0x00\n        /* \"#utility.yul\":4385:4387   */\n      0x20\n        /* \"#utility.yul\":4374:4383   */\n      dup3\n        /* \"#utility.yul\":4370:4388   */\n      add\n        /* \"#utility.yul\":4362:4388   */\n      swap1\n      pop\n        /* \"#utility.yul\":4398:4469   */\n      tag_94\n        /* \"#utility.yul\":4466:4467   */\n      0x00\n        /* \"#utility.yul\":4455:4464   */\n      dup4\n        /* \"#utility.yul\":4451:4468   */\n      add\n        /* \"#utility.yul\":4442:4448   */\n      dup5\n        /* \"#utility.yul\":4398:4469   */\n      tag_36\n      jump\t// in\n    tag_94:\n        /* \"#utility.yul\":4254:4476   */\n      swap3\n      swap2\n      pop\n      pop\n      jump\t// out\n        /* \"#utility.yul\":4482:4581   */\n    tag_37:\n        /* \"#utility.yul\":4534:4540   */\n      0x00\n        /* \"#utility.yul\":4568:4573   */\n      dup2\n        /* \"#utility.yul\":4562:4574   */\n      mload\n        /* \"#utility.yul\":4552:4574   */\n      swap1\n      pop\n        /* \"#utility.yul\":4482:4581   */\n      swap2\n      swap1\n      pop\n      jump\t// out\n        /* \"#utility.yul\":4587:4756   */\n    tag_38:\n        /* \"#utility.yul\":4671:4682   */\n      0x00\n        /* \"#utility.yul\":4705:4711   */\n      dup3\n        /* \"#utility.yul\":4700:4703   */\n      dup3\n        /* \"#utility.yul\":4693:4712   */\n      mstore\n        /* \"#utility.yul\":4745:4749   */\n      0x20\n        /* \"#utility.yul\":4740:4743   */\n      dup3\n        /* \"#utility.yul\":4736:4750   */\n      add\n        /* \"#utility.yul\":4721:4750   */\n      swap1\n      pop\n        /* \"#utility.yul\":4587:4756   */\n      swap3\n      swap2\n      pop\n      pop\n      jump\t// out\n        /* \"#utility.yul\":4762:4901   */\n    tag_39:\n        /* \"#utility.yul\":4851:4857   */\n      dup3\n        /* \"#utility.yul\":4846:4849   */\n      dup2\n        /* \"#utility.yul\":4841:4844   */\n      dup4\n        /* \"#utility.yul\":4835:4858   */\n      mcopy\n        /* \"#utility.yul\":4892:4893   */\n      0x00\n        /* \"#utility.yul\":4883:4889   */\n      dup4\n        /* \"#utility.yul\":4878:4881   */\n      dup4\n        /* \"#utility.yul\":4874:4890   */\n      add\n        /* \"#utility.yul\":4867:4894   */\n      mstore\n        /* \"#utility.yul\":4762:4901   */\n      pop\n      pop\n      pop\n      jump\t// out\n        /* \"#utility.yul\":4907:5284   */\n    tag_40:\n        /* \"#utility.yul\":4995:4998   */\n      0x00\n        /* \"#utility.yul\":5023:5062   */\n      tag_99\n        /* \"#utility.yul\":5056:5061   */\n      dup3\n        /* \"#utility.yul\":5023:5062   */\n      tag_37\n      jump\t// in\n    tag_99:\n        /* \"#utility.yul\":5078:5149   */\n      tag_100\n        /* \"#utility.yul\":5142:5148   */\n      dup2\n        /* \"#utility.yul\":5137:5140   */\n      dup6\n        /* \"#utility.yul\":5078:5149   */\n      tag_38\n      jump\t// in\n    tag_100:\n        /* \"#utility.yul\":5071:5149   */\n      swap4\n      pop\n        /* \"#utility.yul\":5158:5223   */\n      tag_101\n        /* \"#utility.yul\":5216:5222   */\n      dup2\n        /* \"#utility.yul\":5211:5214   */\n      dup6\n        /* \"#utility.yul\":5204:5208   */\n      0x20\n        /* \"#utility.yul\":5197:5202   */\n      dup7\n        /* \"#utility.yul\":5193:5209   */\n      add\n        /* \"#utility.yul\":5158:5223   */\n      tag_39\n      jump\t// in\n    tag_101:\n        /* \"#utility.yul\":5248:5277   */\n      tag_102\n        /* \"#utility.yul\":5270:5276   */\n      dup2\n        /* \"#utility.yul\":5248:5277   */\n      tag_23\n      jump\t// in\n    tag_102:\n        /* \"#utility.yul\":5243:5246   */\n      dup5\n        /* \"#utility.yul\":5239:5278   */\n      add\n        /* \"#utility.yul\":5232:5278   */\n      swap2\n      pop\n        /* \"#utility.yul\":4999:5284   */\n      pop\n        /* \"#utility.yul\":4907:5284   */\n      swap3\n      swap2\n      pop\n      pop\n      jump\t// out\n        /* \"#utility.yul\":5290:5408   */\n    tag_41:\n        /* \"#utility.yul\":5377:5401   */\n      tag_104\n        /* \"#utility.yul\":5395:5400   */\n      dup2\n        /* \"#utility.yul\":5377:5401   */\n      tag_31\n      jump\t// in\n    tag_104:\n        /* \"#utility.yul\":5372:5375   */\n      dup3\n        /* \"#utility.yul\":5365:5402   */\n      mstore\n        /* \"#utility.yul\":5290:5408   */\n      pop\n      pop\n      jump\t// out\n        /* \"#utility.yul\":5414:6149   */\n    tag_14:\n        /* \"#utility.yul\":5631:5635   */\n      0x00\n        /* \"#utility.yul\":5669:5672   */\n      0x80\n        /* \"#utility.yul\":5658:5667   */\n      dup3\n        /* \"#utility.yul\":5654:5673   */\n      add\n        /* \"#utility.yul\":5646:5673   */\n      swap1\n      pop\n        /* \"#utility.yul\":5719:5728   */\n      dup2\n        /* \"#utility.yul\":5713:5717   */\n      dup2\n        /* \"#utility.yul\":5709:5729   */\n      sub\n        /* \"#utility.yul\":5705:5706   */\n      0x00\n        /* \"#utility.yul\":5694:5703   */\n      dup4\n        /* \"#utility.yul\":5690:5707   */\n      add\n        /* \"#utility.yul\":5683:5730   */\n      mstore\n        /* \"#utility.yul\":5747:5825   */\n      tag_106\n        /* \"#utility.yul\":5820:5824   */\n      dup2\n        /* \"#utility.yul\":5811:5817   */\n      dup8\n        /* \"#utility.yul\":5747:5825   */\n      tag_40\n      jump\t// in\n    tag_106:\n        /* \"#utility.yul\":5739:5825   */\n      swap1\n      pop\n        /* \"#utility.yul\":5872:5881   */\n      dup2\n        /* \"#utility.yul\":5866:5870   */\n      dup2\n        /* \"#utility.yul\":5862:5882   */\n      sub\n        /* \"#utility.yul\":5857:5859   */\n      0x20\n        /* \"#utility.yul\":5846:5855   */\n      dup4\n        /* \"#utility.yul\":5842:5860   */\n      add\n        /* \"#utility.yul\":5835:5883   */\n      mstore\n        /* \"#utility.yul\":5900:5978   */\n      tag_107\n        /* \"#utility.yul\":5973:5977   */\n      dup2\n        /* \"#utility.yul\":5964:5970   */\n      dup7\n        /* \"#utility.yul\":5900:5978   */\n      tag_40\n      jump\t// in\n    tag_107:\n        /* \"#utility.yul\":5892:5978   */\n      swap1\n      pop\n        /* \"#utility.yul\":5988:6060   */\n      tag_108\n        /* \"#utility.yul\":6056:6058   */\n      0x40\n        /* \"#utility.yul\":6045:6054   */\n      dup4\n        /* \"#utility.yul\":6041:6059   */\n      add\n        /* \"#utility.yul\":6032:6038   */\n      dup6\n        /* \"#utility.yul\":5988:6060   */\n      tag_41\n      jump\t// in\n    tag_108:\n        /* \"#utility.yul\":6070:6142   */\n      tag_109\n        /* \"#utility.yul\":6138:6140   */\n      0x60\n        /* \"#utility.yul\":6127:6136   */\n      dup4\n        /* \"#utility.yul\":6123:6141   */\n      add\n        /* \"#utility.yul\":6114:6120   */\n      dup5\n        /* \"#utility.yul\":6070:6142   */\n      tag_36\n      jump\t// in\n    tag_109:\n        /* \"#utility.yul\":5414:6149   */\n      swap6\n      swap5\n      pop\n      pop\n      pop\n      pop\n      pop\n      jump\t// out\n        /* \"#utility.yul\":6155:6779   */\n    tag_17:\n        /* \"#utility.yul\":6344:6348   */\n      0x00\n        /* \"#utility.yul\":6382:6384   */\n      0x60\n        /* \"#utility.yul\":6371:6380   */\n      dup3\n        /* \"#utility.yul\":6367:6385   */\n      add\n        /* \"#utility.yul\":6359:6385   */\n      swap1\n      pop\n        /* \"#utility.yul\":6431:6440   */\n      dup2\n        /* \"#utility.yul\":6425:6429   */\n      dup2\n        /* \"#utility.yul\":6421:6441   */\n      sub\n        /* \"#utility.yul\":6417:6418   */\n      0x00\n        /* \"#utility.yul\":6406:6415   */\n      dup4\n        /* \"#utility.yul\":6402:6419   */\n      add\n        /* \"#utility.yul\":6395:6442   */\n      mstore\n        /* \"#utility.yul\":6459:6537   */\n      tag_111\n        /* \"#utility.yul\":6532:6536   */\n      dup2\n        /* \"#utility.yul\":6523:6529   */\n      dup7\n        /* \"#utility.yul\":6459:6537   */\n      tag_40\n      jump\t// in\n    tag_111:\n        /* \"#utility.yul\":6451:6537   */\n      swap1\n      pop\n        /* \"#utility.yul\":6584:6593   */\n      dup2\n        /* \"#utility.yul\":6578:6582   */\n      dup2\n        /* \"#utility.yul\":6574:6594   */\n      sub\n        /* \"#utility.yul\":6569:6571   */\n      0x20\n        /* \"#utility.yul\":6558:6567   */\n      dup4\n        /* \"#utility.yul\":6554:6572   */\n      add\n        /* \"#utility.yul\":6547:6595   */\n      mstore\n        /* \"#utility.yul\":6612:6690   */\n      tag_112\n        /* \"#utility.yul\":6685:6689   */\n      dup2\n        /* \"#utility.yul\":6676:6682   */\n      dup6\n        /* \"#utility.yul\":6612:6690   */\n      tag_40\n      jump\t// in\n    tag_112:\n        /* \"#utility.yul\":6604:6690   */\n      swap1\n      pop\n        /* \"#utility.yul\":6700:6772   */\n      tag_113\n        /* \"#utility.yul\":6768:6770   */\n      0x40\n        /* \"#utility.yul\":6757:6766   */\n      dup4\n        /* \"#utility.yul\":6753:6771   */\n      add\n        /* \"#utility.yul\":6744:6750   */\n      dup5\n        /* \"#utility.yul\":6700:6772   */\n      tag_41\n      jump\t// in\n    tag_113:\n        /* \"#utility.yul\":6155:6779   */\n      swap5\n      swap4\n      pop\n      pop\n      pop\n      pop\n      jump\t// out\n    stop\n\n    sub_0: assembly {\n            /* \"StoryhuntTokenLaunchpad_flattened.sol\":22507:22824  contract ERC20Token is ERC20 {... */\n          mstore(0x40, 0x80)\n            /* \"StoryhuntTokenLaunchpad_flattened.sol\":22569:22822  constructor(... */\n          callvalue\n          dup1\n          iszero\n          tag_1\n          jumpi\n          0x00\n          dup1\n          revert\n        tag_1:\n          pop\n          mload(0x40)\n          sub(codesize, bytecodeSize)\n          dup1\n          bytecodeSize\n          dup4\n          codecopy\n          dup2\n          dup2\n          add\n          0x40\n          mstore\n          dup2\n          add\n          swap1\n          tag_2\n          swap2\n          swap1\n          tag_3\n          jump\t// in\n        tag_2:\n            /* \"StoryhuntTokenLaunchpad_flattened.sol\":22710:22714  name */\n          dup4\n            /* \"StoryhuntTokenLaunchpad_flattened.sol\":22716:22722  symbol */\n          dup4\n            /* \"StoryhuntTokenLaunchpad_flattened.sol\":12544:12549  name_ */\n          dup2\n            /* \"StoryhuntTokenLaunchpad_flattened.sol\":12536:12541  _name */\n          0x03\n            /* \"StoryhuntTokenLaunchpad_flattened.sol\":12536:12549  _name = name_ */\n          swap1\n          dup2\n          tag_7\n          swap2\n          swap1\n          tag_8\n          jump\t// in\n        tag_7:\n          pop\n            /* \"StoryhuntTokenLaunchpad_flattened.sol\":12569:12576  symbol_ */\n          dup1\n            /* \"StoryhuntTokenLaunchpad_flattened.sol\":12559:12566  _symbol */\n          0x04\n            /* \"StoryhuntTokenLaunchpad_flattened.sol\":12559:12576  _symbol = symbol_ */\n          swap1\n          dup2\n          tag_9\n          swap2\n          swap1\n          tag_8\n          jump\t// in\n        tag_9:\n          pop\n            /* \"StoryhuntTokenLaunchpad_flattened.sol\":12470:12583  constructor(string memory name_, string memory symbol_) {... */\n          pop\n          pop\n            /* \"StoryhuntTokenLaunchpad_flattened.sol\":22734:22787  _mint(tokenOwner, initialSupply * (10 ** decimals())) */\n          tag_11\n            /* \"StoryhuntTokenLaunchpad_flattened.sol\":22740:22750  tokenOwner */\n          dup2\n            /* \"StoryhuntTokenLaunchpad_flattened.sol\":22775:22785  decimals() */\n          tag_12\n            /* \"StoryhuntTokenLaunchpad_flattened.sol\":22775:22783  decimals */\n          shl(0x20, tag_13)\n            /* \"StoryhuntTokenLaunchpad_flattened.sol\":22775:22785  decimals() */\n          0x20\n          shr\n          jump\t// in\n        tag_12:\n            /* \"StoryhuntTokenLaunchpad_flattened.sol\":22769:22771  10 */\n          0x0a\n            /* \"StoryhuntTokenLaunchpad_flattened.sol\":22769:22785  10 ** decimals() */\n          tag_14\n          swap2\n          swap1\n          tag_15\n          jump\t// in\n        tag_14:\n            /* \"StoryhuntTokenLaunchpad_flattened.sol\":22752:22765  initialSupply */\n          dup5\n            /* \"StoryhuntTokenLaunchpad_flattened.sol\":22752:22786  initialSupply * (10 ** decimals()) */\n          tag_16\n          swap2\n          swap1\n          tag_17\n          jump\t// in\n        tag_16:\n            /* \"StoryhuntTokenLaunchpad_flattened.sol\":22734:22739  _mint */\n          shl(0x20, tag_18)\n            /* \"StoryhuntTokenLaunchpad_flattened.sol\":22734:22787  _mint(tokenOwner, initialSupply * (10 ** decimals())) */\n          0x20\n          shr\n          jump\t// in\n        tag_11:\n            /* \"StoryhuntTokenLaunchpad_flattened.sol\":22805:22815  tokenOwner */\n          dup1\n            /* \"StoryhuntTokenLaunchpad_flattened.sol\":22797:22802  owner */\n          0x05\n          0x00\n            /* \"StoryhuntTokenLaunchpad_flattened.sol\":22797:22815  owner = tokenOwner */\n          0x0100\n          exp\n          dup2\n          sload\n          dup2\n          0xffffffffffffffffffffffffffffffffffffffff\n          mul\n          not\n          and\n          swap1\n          dup4\n          0xffffffffffffffffffffffffffffffffffffffff\n          and\n          mul\n          or\n          swap1\n          sstore\n          pop\n            /* \"StoryhuntTokenLaunchpad_flattened.sol\":22569:22822  constructor(... */\n          pop\n          pop\n          pop\n          pop\n            /* \"StoryhuntTokenLaunchpad_flattened.sol\":22507:22824  contract ERC20Token is ERC20 {... */\n          jump(tag_19)\n            /* \"StoryhuntTokenLaunchpad_flattened.sol\":13576:13658  function decimals() public view virtual returns (uint8) {... */\n        tag_13:\n            /* \"StoryhuntTokenLaunchpad_flattened.sol\":13625:13630  uint8 */\n          0x00\n            /* \"StoryhuntTokenLaunchpad_flattened.sol\":13649:13651  18 */\n          0x12\n            /* \"StoryhuntTokenLaunchpad_flattened.sol\":13642:13651  return 18 */\n          swap1\n          pop\n            /* \"StoryhuntTokenLaunchpad_flattened.sol\":13576:13658  function decimals() public view virtual returns (uint8) {... */\n          swap1\n          jump\t// out\n            /* \"StoryhuntTokenLaunchpad_flattened.sol\":18327:18535  function _mint(address account, uint256 value) internal {... */\n        tag_18:\n            /* \"StoryhuntTokenLaunchpad_flattened.sol\":18416:18417  0 */\n          0x00\n            /* \"StoryhuntTokenLaunchpad_flattened.sol\":18397:18418  account == address(0) */\n          0xffffffffffffffffffffffffffffffffffffffff\n          and\n            /* \"StoryhuntTokenLaunchpad_flattened.sol\":18397:18404  account */\n          dup3\n            /* \"StoryhuntTokenLaunchpad_flattened.sol\":18397:18418  account == address(0) */\n          0xffffffffffffffffffffffffffffffffffffffff\n          and\n          sub\n            /* \"StoryhuntTokenLaunchpad_flattened.sol\":18393:18484  if (account == address(0)) {... */\n          tag_22\n          jumpi\n            /* \"StoryhuntTokenLaunchpad_flattened.sol\":18470:18471  0 */\n          0x00\n            /* \"StoryhuntTokenLaunchpad_flattened.sol\":18441:18473  ERC20InvalidReceiver(address(0)) */\n          mload(0x40)\n          0xec442f0500000000000000000000000000000000000000000000000000000000\n          dup2\n          mstore\n          0x04\n          add\n          tag_23\n          swap2\n          swap1\n          tag_24\n          jump\t// in\n        tag_23:\n          mload(0x40)\n          dup1\n          swap2\n          sub\n          swap1\n          revert\n            /* \"StoryhuntTokenLaunchpad_flattened.sol\":18393:18484  if (account == address(0)) {... */\n        tag_22:\n            /* \"StoryhuntTokenLaunchpad_flattened.sol\":18493:18528  _update(address(0), account, value) */\n          tag_25\n            /* \"StoryhuntTokenLaunchpad_flattened.sol\":18509:18510  0 */\n          0x00\n            /* \"StoryhuntTokenLaunchpad_flattened.sol\":18513:18520  account */\n          dup4\n            /* \"StoryhuntTokenLaunchpad_flattened.sol\":18522:18527  value */\n          dup4\n            /* \"StoryhuntTokenLaunchpad_flattened.sol\":18493:18500  _update */\n          shl(0x20, tag_26)\n            /* \"StoryhuntTokenLaunchpad_flattened.sol\":18493:18528  _update(address(0), account, value) */\n          0x20\n          shr\n          jump\t// in\n        tag_25:\n            /* \"StoryhuntTokenLaunchpad_flattened.sol\":18327:18535  function _mint(address account, uint256 value) internal {... */\n          pop\n          pop\n          jump\t// out\n            /* \"StoryhuntTokenLaunchpad_flattened.sol\":16877:17984  function _update(address from, address to, uint256 value) internal virtual {... */\n        tag_26:\n            /* \"StoryhuntTokenLaunchpad_flattened.sol\":16982:16983  0 */\n          0x00\n            /* \"StoryhuntTokenLaunchpad_flattened.sol\":16966:16984  from == address(0) */\n          0xffffffffffffffffffffffffffffffffffffffff\n          and\n            /* \"StoryhuntTokenLaunchpad_flattened.sol\":16966:16970  from */\n          dup4\n            /* \"StoryhuntTokenLaunchpad_flattened.sol\":16966:16984  from == address(0) */\n          0xffffffffffffffffffffffffffffffffffffffff\n          and\n          sub\n            /* \"StoryhuntTokenLaunchpad_flattened.sol\":16962:17502  if (from == address(0)) {... */\n          tag_28\n          jumpi\n            /* \"StoryhuntTokenLaunchpad_flattened.sol\":17118:17123  value */\n          dup1\n            /* \"StoryhuntTokenLaunchpad_flattened.sol\":17102:17114  _totalSupply */\n          0x02\n          0x00\n            /* \"StoryhuntTokenLaunchpad_flattened.sol\":17102:17123  _totalSupply += value */\n          dup3\n          dup3\n          sload\n          tag_29\n          swap2\n          swap1\n          tag_30\n          jump\t// in\n        tag_29:\n          swap3\n          pop\n          pop\n          dup2\n          swap1\n          sstore\n          pop\n            /* \"StoryhuntTokenLaunchpad_flattened.sol\":16962:17502  if (from == address(0)) {... */\n          jump(tag_31)\n        tag_28:\n            /* \"StoryhuntTokenLaunchpad_flattened.sol\":17154:17173  uint256 fromBalance */\n          0x00\n            /* \"StoryhuntTokenLaunchpad_flattened.sol\":17176:17185  _balances */\n          dup1\n            /* \"StoryhuntTokenLaunchpad_flattened.sol\":17176:17191  _balances[from] */\n          0x00\n            /* \"StoryhuntTokenLaunchpad_flattened.sol\":17186:17190  from */\n          dup6\n            /* \"StoryhuntTokenLaunchpad_flattened.sol\":17176:17191  _balances[from] */\n          0xffffffffffffffffffffffffffffffffffffffff\n          and\n          0xffffffffffffffffffffffffffffffffffffffff\n          and\n          dup2\n          mstore\n          0x20\n          add\n          swap1\n          dup2\n          mstore\n          0x20\n          add\n          0x00\n          keccak256\n          sload\n            /* \"StoryhuntTokenLaunchpad_flattened.sol\":17154:17191  uint256 fromBalance = _balances[from] */\n          swap1\n          pop\n            /* \"StoryhuntTokenLaunchpad_flattened.sol\":17223:17228  value */\n          dup2\n            /* \"StoryhuntTokenLaunchpad_flattened.sol\":17209:17220  fromBalance */\n          dup2\n            /* \"StoryhuntTokenLaunchpad_flattened.sol\":17209:17228  fromBalance < value */\n          lt\n            /* \"StoryhuntTokenLaunchpad_flattened.sol\":17205:17320  if (fromBalance < value) {... */\n          iszero\n          tag_32\n          jumpi\n            /* \"StoryhuntTokenLaunchpad_flattened.sol\":17280:17284  from */\n          dup4\n            /* \"StoryhuntTokenLaunchpad_flattened.sol\":17286:17297  fromBalance */\n          dup2\n            /* \"StoryhuntTokenLaunchpad_flattened.sol\":17299:17304  value */\n          dup4\n            /* \"StoryhuntTokenLaunchpad_flattened.sol\":17255:17305  ERC20InsufficientBalance(from, fromBalance, value) */\n          mload(0x40)\n          0xe450d38c00000000000000000000000000000000000000000000000000000000\n          dup2\n          mstore\n          0x04\n          add\n          tag_33\n          swap4\n          swap3\n          swap2\n          swap1\n          tag_34\n          jump\t// in\n        tag_33:\n          mload(0x40)\n          dup1\n          swap2\n          sub\n          swap1\n          revert\n            /* \"StoryhuntTokenLaunchpad_flattened.sol\":17205:17320  if (fromBalance < value) {... */\n        tag_32:\n            /* \"StoryhuntTokenLaunchpad_flattened.sol\":17472:17477  value */\n          dup2\n            /* \"StoryhuntTokenLaunchpad_flattened.sol\":17458:17469  fromBalance */\n          dup2\n            /* \"StoryhuntTokenLaunchpad_flattened.sol\":17458:17477  fromBalance - value */\n          sub\n            /* \"StoryhuntTokenLaunchpad_flattened.sol\":17440:17449  _balances */\n          0x00\n            /* \"StoryhuntTokenLaunchpad_flattened.sol\":17440:17455  _balances[from] */\n          dup1\n            /* \"StoryhuntTokenLaunchpad_flattened.sol\":17450:17454  from */\n          dup7\n            /* \"StoryhuntTokenLaunchpad_flattened.sol\":17440:17455  _balances[from] */\n          0xffffffffffffffffffffffffffffffffffffffff\n          and\n          0xffffffffffffffffffffffffffffffffffffffff\n          and\n          dup2\n          mstore\n          0x20\n          add\n          swap1\n          dup2\n          mstore\n          0x20\n          add\n          0x00\n          keccak256\n            /* \"StoryhuntTokenLaunchpad_flattened.sol\":17440:17477  _balances[from] = fromBalance - value */\n          dup2\n          swap1\n          sstore\n          pop\n            /* \"StoryhuntTokenLaunchpad_flattened.sol\":17140:17502  {... */\n          pop\n            /* \"StoryhuntTokenLaunchpad_flattened.sol\":16962:17502  if (from == address(0)) {... */\n        tag_31:\n            /* \"StoryhuntTokenLaunchpad_flattened.sol\":17530:17531  0 */\n          0x00\n            /* \"StoryhuntTokenLaunchpad_flattened.sol\":17516:17532  to == address(0) */\n          0xffffffffffffffffffffffffffffffffffffffff\n          and\n            /* \"StoryhuntTokenLaunchpad_flattened.sol\":17516:17518  to */\n          dup3\n            /* \"StoryhuntTokenLaunchpad_flattened.sol\":17516:17532  to == address(0) */\n          0xffffffffffffffffffffffffffffffffffffffff\n          and\n          sub\n            /* \"StoryhuntTokenLaunchpad_flattened.sol\":17512:17937  if (to == address(0)) {... */\n          tag_35\n          jumpi\n            /* \"StoryhuntTokenLaunchpad_flattened.sol\":17695:17700  value */\n          dup1\n            /* \"StoryhuntTokenLaunchpad_flattened.sol\":17679:17691  _totalSupply */\n          0x02\n          0x00\n            /* \"StoryhuntTokenLaunchpad_flattened.sol\":17679:17700  _totalSupply -= value */\n          dup3\n          dup3\n          sload\n          sub\n          swap3\n          pop\n          pop\n          dup2\n          swap1\n          sstore\n          pop\n            /* \"StoryhuntTokenLaunchpad_flattened.sol\":17512:17937  if (to == address(0)) {... */\n          jump(tag_36)\n        tag_35:\n            /* \"StoryhuntTokenLaunchpad_flattened.sol\":17907:17912  value */\n          dup1\n            /* \"StoryhuntTokenLaunchpad_flattened.sol\":17890:17899  _balances */\n          0x00\n            /* \"StoryhuntTokenLaunchpad_flattened.sol\":17890:17903  _balances[to] */\n          dup1\n            /* \"StoryhuntTokenLaunchpad_flattened.sol\":17900:17902  to */\n          dup5\n            /* \"StoryhuntTokenLaunchpad_flattened.sol\":17890:17903  _balances[to] */\n          0xffffffffffffffffffffffffffffffffffffffff\n          and\n          0xffffffffffffffffffffffffffffffffffffffff\n          and\n          dup2\n          mstore\n          0x20\n          add\n          swap1\n          dup2\n          mstore\n          0x20\n          add\n          0x00\n          keccak256\n          0x00\n            /* \"StoryhuntTokenLaunchpad_flattened.sol\":17890:17912  _balances[to] += value */\n          dup3\n          dup3\n          sload\n          add\n          swap3\n          pop\n          pop\n          dup2\n          swap1\n          sstore\n          pop\n            /* \"StoryhuntTokenLaunchpad_flattened.sol\":17512:17937  if (to == address(0)) {... */\n        tag_36:\n            /* \"StoryhuntTokenLaunchpad_flattened.sol\":17967:17969  to */\n          dup2\n            /* \"StoryhuntTokenLaunchpad_flattened.sol\":17952:17977  Transfer(from, to, value) */\n          0xffffffffffffffffffffffffffffffffffffffff\n          and\n            /* \"StoryhuntTokenLaunchpad_flattened.sol\":17961:17965  from */\n          dup4\n            /* \"StoryhuntTokenLaunchpad_flattened.sol\":17952:17977  Transfer(from, to, value) */\n          0xffffffffffffffffffffffffffffffffffffffff\n          and\n          0xddf252ad1be2c89b69c2b068fc378daa952ba7f163c4a11628f55a4df523b3ef\n            /* \"StoryhuntTokenLaunchpad_flattened.sol\":17971:17976  value */\n          dup4\n            /* \"StoryhuntTokenLaunchpad_flattened.sol\":17952:17977  Transfer(from, to, value) */\n          mload(0x40)\n          tag_37\n          swap2\n          swap1\n          tag_38\n          jump\t// in\n        tag_37:\n          mload(0x40)\n          dup1\n          swap2\n          sub\n          swap1\n          log3\n            /* \"StoryhuntTokenLaunchpad_flattened.sol\":16877:17984  function _update(address from, address to, uint256 value) internal virtual {... */\n          pop\n          pop\n          pop\n          jump\t// out\n            /* \"#utility.yul\":7:82   */\n        tag_39:\n            /* \"#utility.yul\":40:46   */\n          0x00\n            /* \"#utility.yul\":73:75   */\n          0x40\n            /* \"#utility.yul\":67:76   */\n          mload\n            /* \"#utility.yul\":57:76   */\n          swap1\n          pop\n            /* \"#utility.yul\":7:82   */\n          swap1\n          jump\t// out\n            /* \"#utility.yul\":88:205   */\n        tag_40:\n            /* \"#utility.yul\":197:198   */\n          0x00\n            /* \"#utility.yul\":194:195   */\n          dup1\n            /* \"#utility.yul\":187:199   */\n          revert\n            /* \"#utility.yul\":211:328   */\n        tag_41:\n            /* \"#utility.yul\":320:321   */\n          0x00\n            /* \"#utility.yul\":317:318   */\n          dup1\n            /* \"#utility.yul\":310:322   */\n          revert\n            /* \"#utility.yul\":334:451   */\n        tag_42:\n            /* \"#utility.yul\":443:444   */\n          0x00\n            /* \"#utility.yul\":440:441   */\n          dup1\n            /* \"#utility.yul\":433:445   */\n          revert\n            /* \"#utility.yul\":457:574   */\n        tag_43:\n            /* \"#utility.yul\":566:567   */\n          0x00\n            /* \"#utility.yul\":563:564   */\n          dup1\n            /* \"#utility.yul\":556:568   */\n          revert\n            /* \"#utility.yul\":580:682   */\n        tag_44:\n            /* \"#utility.yul\":621:627   */\n          0x00\n            /* \"#utility.yul\":672:674   */\n          0x1f\n            /* \"#utility.yul\":668:675   */\n          not\n            /* \"#utility.yul\":663:665   */\n          0x1f\n            /* \"#utility.yul\":656:661   */\n          dup4\n            /* \"#utility.yul\":652:666   */\n          add\n            /* \"#utility.yul\":648:676   */\n          and\n            /* \"#utility.yul\":638:676   */\n          swap1\n          pop\n            /* \"#utility.yul\":580:682   */\n          swap2\n          swap1\n          pop\n          jump\t// out\n            /* \"#utility.yul\":688:868   */\n        tag_45:\n            /* \"#utility.yul\":736:813   */\n          0x4e487b7100000000000000000000000000000000000000000000000000000000\n            /* \"#utility.yul\":733:734   */\n          0x00\n            /* \"#utility.yul\":726:814   */\n          mstore\n            /* \"#utility.yul\":833:837   */\n          0x41\n            /* \"#utility.yul\":830:831   */\n          0x04\n            /* \"#utility.yul\":823:838   */\n          mstore\n            /* \"#utility.yul\":857:861   */\n          0x24\n            /* \"#utility.yul\":854:855   */\n          0x00\n            /* \"#utility.yul\":847:862   */\n          revert\n            /* \"#utility.yul\":874:1155   */\n        tag_46:\n            /* \"#utility.yul\":957:984   */\n          tag_93\n            /* \"#utility.yul\":979:983   */\n          dup3\n            /* \"#utility.yul\":957:984   */\n          tag_44\n          jump\t// in\n        tag_93:\n            /* \"#utility.yul\":949:955   */\n          dup2\n            /* \"#utility.yul\":945:985   */\n          add\n            /* \"#utility.yul\":1087:1093   */\n          dup2\n            /* \"#utility.yul\":1075:1085   */\n          dup2\n            /* \"#utility.yul\":1072:1094   */\n          lt\n            /* \"#utility.yul\":1051:1069   */\n          0xffffffffffffffff\n            /* \"#utility.yul\":1039:1049   */\n          dup3\n            /* \"#utility.yul\":1036:1070   */\n          gt\n            /* \"#utility.yul\":1033:1095   */\n          or\n            /* \"#utility.yul\":1030:1118   */\n          iszero\n          tag_94\n          jumpi\n            /* \"#utility.yul\":1098:1116   */\n          tag_95\n          tag_45\n          jump\t// in\n        tag_95:\n            /* \"#utility.yul\":1030:1118   */\n        tag_94:\n            /* \"#utility.yul\":1138:1148   */\n          dup1\n            /* \"#utility.yul\":1134:1136   */\n          0x40\n            /* \"#utility.yul\":1127:1149   */\n          mstore\n            /* \"#utility.yul\":917:1155   */\n          pop\n            /* \"#utility.yul\":874:1155   */\n          pop\n          pop\n          jump\t// out\n            /* \"#utility.yul\":1161:1290   */\n        tag_47:\n            /* \"#utility.yul\":1195:1201   */\n          0x00\n            /* \"#utility.yul\":1222:1242   */\n          tag_97\n          tag_39\n          jump\t// in\n        tag_97:\n            /* \"#utility.yul\":1212:1242   */\n          swap1\n          pop\n            /* \"#utility.yul\":1251:1284   */\n          tag_98\n            /* \"#utility.yul\":1279:1283   */\n          dup3\n            /* \"#utility.yul\":1271:1277   */\n          dup3\n            /* \"#utility.yul\":1251:1284   */\n          tag_46\n          jump\t// in\n        tag_98:\n            /* \"#utility.yul\":1161:1290   */\n          swap2\n          swap1\n          pop\n          jump\t// out\n            /* \"#utility.yul\":1296:1604   */\n        tag_48:\n            /* \"#utility.yul\":1358:1362   */\n          0x00\n            /* \"#utility.yul\":1448:1466   */\n          0xffffffffffffffff\n            /* \"#utility.yul\":1440:1446   */\n          dup3\n            /* \"#utility.yul\":1437:1467   */\n          gt\n            /* \"#utility.yul\":1434:1490   */\n          iszero\n          tag_100\n          jumpi\n            /* \"#utility.yul\":1470:1488   */\n          tag_101\n          tag_45\n          jump\t// in\n        tag_101:\n            /* \"#utility.yul\":1434:1490   */\n        tag_100:\n            /* \"#utility.yul\":1508:1537   */\n          tag_102\n            /* \"#utility.yul\":1530:1536   */\n          dup3\n            /* \"#utility.yul\":1508:1537   */\n          tag_44\n          jump\t// in\n        tag_102:\n            /* \"#utility.yul\":1500:1537   */\n          swap1\n          pop\n            /* \"#utility.yul\":1592:1596   */\n          0x20\n            /* \"#utility.yul\":1586:1590   */\n          dup2\n            /* \"#utility.yul\":1582:1597   */\n          add\n            /* \"#utility.yul\":1574:1597   */\n          swap1\n          pop\n            /* \"#utility.yul\":1296:1604   */\n          swap2\n          swap1\n          pop\n          jump\t// out\n            /* \"#utility.yul\":1610:1749   */\n        tag_49:\n            /* \"#utility.yul\":1699:1705   */\n          dup3\n            /* \"#utility.yul\":1694:1697   */\n          dup2\n            /* \"#utility.yul\":1689:1692   */\n          dup4\n            /* \"#utility.yul\":1683:1706   */\n          mcopy\n            /* \"#utility.yul\":1740:1741   */\n          0x00\n            /* \"#utility.yul\":1731:1737   */\n          dup4\n            /* \"#utility.yul\":1726:1729   */\n          dup4\n            /* \"#utility.yul\":1722:1738   */\n          add\n            /* \"#utility.yul\":1715:1742   */\n          mstore\n            /* \"#utility.yul\":1610:1749   */\n          pop\n          pop\n          pop\n          jump\t// out\n            /* \"#utility.yul\":1755:2189   */\n        tag_50:\n            /* \"#utility.yul\":1844:1849   */\n          0x00\n            /* \"#utility.yul\":1869:1935   */\n          tag_105\n            /* \"#utility.yul\":1885:1934   */\n          tag_106\n            /* \"#utility.yul\":1927:1933   */\n          dup5\n            /* \"#utility.yul\":1885:1934   */\n          tag_48\n          jump\t// in\n        tag_106:\n            /* \"#utility.yul\":1869:1935   */\n          tag_47\n          jump\t// in\n        tag_105:\n            /* \"#utility.yul\":1860:1935   */\n          swap1\n          pop\n            /* \"#utility.yul\":1958:1964   */\n          dup3\n            /* \"#utility.yul\":1951:1956   */\n          dup2\n            /* \"#utility.yul\":1944:1965   */\n          mstore\n            /* \"#utility.yul\":1996:2000   */\n          0x20\n            /* \"#utility.yul\":1989:1994   */\n          dup2\n            /* \"#utility.yul\":1985:2001   */\n          add\n            /* \"#utility.yul\":2034:2037   */\n          dup5\n            /* \"#utility.yul\":2025:2031   */\n          dup5\n            /* \"#utility.yul\":2020:2023   */\n          dup5\n            /* \"#utility.yul\":2016:2032   */\n          add\n            /* \"#utility.yul\":2013:2038   */\n          gt\n            /* \"#utility.yul\":2010:2122   */\n          iszero\n          tag_107\n          jumpi\n            /* \"#utility.yul\":2041:2120   */\n          tag_108\n          tag_43\n          jump\t// in\n        tag_108:\n            /* \"#utility.yul\":2010:2122   */\n        tag_107:\n            /* \"#utility.yul\":2131:2183   */\n          tag_109\n            /* \"#utility.yul\":2176:2182   */\n          dup5\n            /* \"#utility.yul\":2171:2174   */\n          dup3\n            /* \"#utility.yul\":2166:2169   */\n          dup6\n            /* \"#utility.yul\":2131:2183   */\n          tag_49\n          jump\t// in\n        tag_109:\n            /* \"#utility.yul\":1850:2189   */\n          pop\n            /* \"#utility.yul\":1755:2189   */\n          swap4\n          swap3\n          pop\n          pop\n          pop\n          jump\t// out\n            /* \"#utility.yul\":2209:2564   */\n        tag_51:\n            /* \"#utility.yul\":2276:2281   */\n          0x00\n            /* \"#utility.yul\":2325:2328   */\n          dup3\n            /* \"#utility.yul\":2318:2322   */\n          0x1f\n            /* \"#utility.yul\":2310:2316   */\n          dup4\n            /* \"#utility.yul\":2306:2323   */\n          add\n            /* \"#utility.yul\":2302:2329   */\n          slt\n            /* \"#utility.yul\":2292:2414   */\n          tag_111\n          jumpi\n            /* \"#utility.yul\":2333:2412   */\n          tag_112\n          tag_42\n          jump\t// in\n        tag_112:\n            /* \"#utility.yul\":2292:2414   */\n        tag_111:\n            /* \"#utility.yul\":2443:2449   */\n          dup2\n            /* \"#utility.yul\":2437:2450   */\n          mload\n            /* \"#utility.yul\":2468:2558   */\n          tag_113\n            /* \"#utility.yul\":2554:2557   */\n          dup5\n            /* \"#utility.yul\":2546:2552   */\n          dup3\n            /* \"#utility.yul\":2539:2543   */\n          0x20\n            /* \"#utility.yul\":2531:2537   */\n          dup7\n            /* \"#utility.yul\":2527:2544   */\n          add\n            /* \"#utility.yul\":2468:2558   */\n          tag_50\n          jump\t// in\n        tag_113:\n            /* \"#utility.yul\":2459:2558   */\n          swap2\n          pop\n            /* \"#utility.yul\":2282:2564   */\n          pop\n            /* \"#utility.yul\":2209:2564   */\n          swap3\n          swap2\n          pop\n          pop\n          jump\t// out\n            /* \"#utility.yul\":2570:2647   */\n        tag_52:\n            /* \"#utility.yul\":2607:2614   */\n          0x00\n            /* \"#utility.yul\":2636:2641   */\n          dup2\n            /* \"#utility.yul\":2625:2641   */\n          swap1\n          pop\n            /* \"#utility.yul\":2570:2647   */\n          swap2\n          swap1\n          pop\n          jump\t// out\n            /* \"#utility.yul\":2653:2775   */\n        tag_53:\n            /* \"#utility.yul\":2726:2750   */\n          tag_116\n            /* \"#utility.yul\":2744:2749   */\n          dup2\n            /* \"#utility.yul\":2726:2750   */\n          tag_52\n          jump\t// in\n        tag_116:\n            /* \"#utility.yul\":2719:2724   */\n          dup2\n            /* \"#utility.yul\":2716:2751   */\n          eq\n            /* \"#utility.yul\":2706:2769   */\n          tag_117\n          jumpi\n            /* \"#utility.yul\":2765:2766   */\n          0x00\n            /* \"#utility.yul\":2762:2763   */\n          dup1\n            /* \"#utility.yul\":2755:2767   */\n          revert\n            /* \"#utility.yul\":2706:2769   */\n        tag_117:\n            /* \"#utility.yul\":2653:2775   */\n          pop\n          jump\t// out\n            /* \"#utility.yul\":2781:2924   */\n        tag_54:\n            /* \"#utility.yul\":2838:2843   */\n          0x00\n            /* \"#utility.yul\":2869:2875   */\n          dup2\n            /* \"#utility.yul\":2863:2876   */\n          mload\n            /* \"#utility.yul\":2854:2876   */\n          swap1\n          pop\n            /* \"#utility.yul\":2885:2918   */\n          tag_119\n            /* \"#utility.yul\":2912:2917   */\n          dup2\n            /* \"#utility.yul\":2885:2918   */\n          tag_53\n          jump\t// in\n        tag_119:\n            /* \"#utility.yul\":2781:2924   */\n          swap3\n          swap2\n          pop\n          pop\n          jump\t// out\n            /* \"#utility.yul\":2930:3056   */\n        tag_55:\n            /* \"#utility.yul\":2967:2974   */\n          0x00\n            /* \"#utility.yul\":3007:3049   */\n          0xffffffffffffffffffffffffffffffffffffffff\n            /* \"#utility.yul\":3000:3005   */\n          dup3\n            /* \"#utility.yul\":2996:3050   */\n          and\n            /* \"#utility.yul\":2985:3050   */\n          swap1\n          pop\n            /* \"#utility.yul\":2930:3056   */\n          swap2\n          swap1\n          pop\n          jump\t// out\n            /* \"#utility.yul\":3062:3158   */\n        tag_56:\n            /* \"#utility.yul\":3099:3106   */\n          0x00\n            /* \"#utility.yul\":3128:3152   */\n          tag_122\n            /* \"#utility.yul\":3146:3151   */\n          dup3\n            /* \"#utility.yul\":3128:3152   */\n          tag_55\n          jump\t// in\n        tag_122:\n            /* \"#utility.yul\":3117:3152   */\n          swap1\n          pop\n            /* \"#utility.yul\":3062:3158   */\n          swap2\n          swap1\n          pop\n          jump\t// out\n            /* \"#utility.yul\":3164:3286   */\n        tag_57:\n            /* \"#utility.yul\":3237:3261   */\n          tag_124\n            /* \"#utility.yul\":3255:3260   */\n          dup2\n            /* \"#utility.yul\":3237:3261   */\n          tag_56\n          jump\t// in\n        tag_124:\n            /* \"#utility.yul\":3230:3235   */\n          dup2\n            /* \"#utility.yul\":3227:3262   */\n          eq\n            /* \"#utility.yul\":3217:3280   */\n          tag_125\n          jumpi\n            /* \"#utility.yul\":3276:3277   */\n          0x00\n            /* \"#utility.yul\":3273:3274   */\n          dup1\n            /* \"#utility.yul\":3266:3278   */\n          revert\n            /* \"#utility.yul\":3217:3280   */\n        tag_125:\n            /* \"#utility.yul\":3164:3286   */\n          pop\n          jump\t// out\n            /* \"#utility.yul\":3292:3435   */\n        tag_58:\n            /* \"#utility.yul\":3349:3354   */\n          0x00\n            /* \"#utility.yul\":3380:3386   */\n          dup2\n            /* \"#utility.yul\":3374:3387   */\n          mload\n            /* \"#utility.yul\":3365:3387   */\n          swap1\n          pop\n            /* \"#utility.yul\":3396:3429   */\n          tag_127\n            /* \"#utility.yul\":3423:3428   */\n          dup2\n            /* \"#utility.yul\":3396:3429   */\n          tag_57\n          jump\t// in\n        tag_127:\n            /* \"#utility.yul\":3292:3435   */\n          swap3\n          swap2\n          pop\n          pop\n          jump\t// out\n            /* \"#utility.yul\":3441:4607   */\n        tag_3:\n            /* \"#utility.yul\":3558:3564   */\n          0x00\n            /* \"#utility.yul\":3566:3572   */\n          dup1\n            /* \"#utility.yul\":3574:3580   */\n          0x00\n            /* \"#utility.yul\":3582:3588   */\n          dup1\n            /* \"#utility.yul\":3631:3634   */\n          0x80\n            /* \"#utility.yul\":3619:3628   */\n          dup6\n            /* \"#utility.yul\":3610:3617   */\n          dup8\n            /* \"#utility.yul\":3606:3629   */\n          sub\n            /* \"#utility.yul\":3602:3635   */\n          slt\n            /* \"#utility.yul\":3599:3719   */\n          iszero\n          tag_129\n          jumpi\n            /* \"#utility.yul\":3638:3717   */\n          tag_130\n          tag_40\n          jump\t// in\n        tag_130:\n            /* \"#utility.yul\":3599:3719   */\n        tag_129:\n            /* \"#utility.yul\":3779:3780   */\n          0x00\n            /* \"#utility.yul\":3768:3777   */\n          dup6\n            /* \"#utility.yul\":3764:3781   */\n          add\n            /* \"#utility.yul\":3758:3782   */\n          mload\n            /* \"#utility.yul\":3809:3827   */\n          0xffffffffffffffff\n            /* \"#utility.yul\":3801:3807   */\n          dup2\n            /* \"#utility.yul\":3798:3828   */\n          gt\n            /* \"#utility.yul\":3795:3912   */\n          iszero\n          tag_131\n          jumpi\n            /* \"#utility.yul\":3831:3910   */\n          tag_132\n          tag_41\n          jump\t// in\n        tag_132:\n            /* \"#utility.yul\":3795:3912   */\n        tag_131:\n            /* \"#utility.yul\":3936:4010   */\n          tag_133\n            /* \"#utility.yul\":4002:4009   */\n          dup8\n            /* \"#utility.yul\":3993:3999   */\n          dup3\n            /* \"#utility.yul\":3982:3991   */\n          dup9\n            /* \"#utility.yul\":3978:4000   */\n          add\n            /* \"#utility.yul\":3936:4010   */\n          tag_51\n          jump\t// in\n        tag_133:\n            /* \"#utility.yul\":3926:4010   */\n          swap5\n          pop\n            /* \"#utility.yul\":3729:4020   */\n          pop\n            /* \"#utility.yul\":4080:4082   */\n          0x20\n            /* \"#utility.yul\":4069:4078   */\n          dup6\n            /* \"#utility.yul\":4065:4083   */\n          add\n            /* \"#utility.yul\":4059:4084   */\n          mload\n            /* \"#utility.yul\":4111:4129   */\n          0xffffffffffffffff\n            /* \"#utility.yul\":4103:4109   */\n          dup2\n            /* \"#utility.yul\":4100:4130   */\n          gt\n            /* \"#utility.yul\":4097:4214   */\n          iszero\n          tag_134\n          jumpi\n            /* \"#utility.yul\":4133:4212   */\n          tag_135\n          tag_41\n          jump\t// in\n        tag_135:\n            /* \"#utility.yul\":4097:4214   */\n        tag_134:\n            /* \"#utility.yul\":4238:4312   */\n          tag_136\n            /* \"#utility.yul\":4304:4311   */\n          dup8\n            /* \"#utility.yul\":4295:4301   */\n          dup3\n            /* \"#utility.yul\":4284:4293   */\n          dup9\n            /* \"#utility.yul\":4280:4302   */\n          add\n            /* \"#utility.yul\":4238:4312   */\n          tag_51\n          jump\t// in\n        tag_136:\n            /* \"#utility.yul\":4228:4312   */\n          swap4\n          pop\n            /* \"#utility.yul\":4030:4322   */\n          pop\n            /* \"#utility.yul\":4361:4363   */\n          0x40\n            /* \"#utility.yul\":4387:4451   */\n          tag_137\n            /* \"#utility.yul\":4443:4450   */\n          dup8\n            /* \"#utility.yul\":4434:4440   */\n          dup3\n            /* \"#utility.yul\":4423:4432   */\n          dup9\n            /* \"#utility.yul\":4419:4441   */\n          add\n            /* \"#utility.yul\":4387:4451   */\n          tag_54\n          jump\t// in\n        tag_137:\n            /* \"#utility.yul\":4377:4451   */\n          swap3\n          pop\n            /* \"#utility.yul\":4332:4461   */\n          pop\n            /* \"#utility.yul\":4500:4502   */\n          0x60\n            /* \"#utility.yul\":4526:4590   */\n          tag_138\n            /* \"#utility.yul\":4582:4589   */\n          dup8\n            /* \"#utility.yul\":4573:4579   */\n          dup3\n            /* \"#utility.yul\":4562:4571   */\n          dup9\n            /* \"#utility.yul\":4558:4580   */\n          add\n            /* \"#utility.yul\":4526:4590   */\n          tag_58\n          jump\t// in\n        tag_138:\n            /* \"#utility.yul\":4516:4590   */\n          swap2\n          pop\n            /* \"#utility.yul\":4471:4600   */\n          pop\n            /* \"#utility.yul\":3441:4607   */\n          swap3\n          swap6\n          swap2\n          swap5\n          pop\n          swap3\n          pop\n          jump\t// out\n            /* \"#utility.yul\":4613:4712   */\n        tag_59:\n            /* \"#utility.yul\":4665:4671   */\n          0x00\n            /* \"#utility.yul\":4699:4704   */\n          dup2\n            /* \"#utility.yul\":4693:4705   */\n          mload\n            /* \"#utility.yul\":4683:4705   */\n          swap1\n          pop\n            /* \"#utility.yul\":4613:4712   */\n          swap2\n          swap1\n          pop\n          jump\t// out\n            /* \"#utility.yul\":4718:4898   */\n        tag_60:\n            /* \"#utility.yul\":4766:4843   */\n          0x4e487b7100000000000000000000000000000000000000000000000000000000\n            /* \"#utility.yul\":4763:4764   */\n          0x00\n            /* \"#utility.yul\":4756:4844   */\n          mstore\n            /* \"#utility.yul\":4863:4867   */\n          0x22\n            /* \"#utility.yul\":4860:4861   */\n          0x04\n            /* \"#utility.yul\":4853:4868   */\n          mstore\n            /* \"#utility.yul\":4887:4891   */\n          0x24\n            /* \"#utility.yul\":4884:4885   */\n          0x00\n            /* \"#utility.yul\":4877:4892   */\n          revert\n            /* \"#utility.yul\":4904:5224   */\n        tag_61:\n            /* \"#utility.yul\":4948:4954   */\n          0x00\n            /* \"#utility.yul\":4985:4986   */\n          0x02\n            /* \"#utility.yul\":4979:4983   */\n          dup3\n            /* \"#utility.yul\":4975:4987   */\n          div\n            /* \"#utility.yul\":4965:4987   */\n          swap1\n          pop\n            /* \"#utility.yul\":5032:5033   */\n          0x01\n            /* \"#utility.yul\":5026:5030   */\n          dup3\n            /* \"#utility.yul\":5022:5034   */\n          and\n            /* \"#utility.yul\":5053:5071   */\n          dup1\n            /* \"#utility.yul\":5043:5124   */\n          tag_142\n          jumpi\n            /* \"#utility.yul\":5109:5113   */\n          0x7f\n            /* \"#utility.yul\":5101:5107   */\n          dup3\n            /* \"#utility.yul\":5097:5114   */\n          and\n            /* \"#utility.yul\":5087:5114   */\n          swap2\n          pop\n            /* \"#utility.yul\":5043:5124   */\n        tag_142:\n            /* \"#utility.yul\":5171:5173   */\n          0x20\n            /* \"#utility.yul\":5163:5169   */\n          dup3\n            /* \"#utility.yul\":5160:5174   */\n          lt\n            /* \"#utility.yul\":5140:5158   */\n          dup2\n            /* \"#utility.yul\":5137:5175   */\n          sub\n            /* \"#utility.yul\":5134:5218   */\n          tag_143\n          jumpi\n            /* \"#utility.yul\":5190:5208   */\n          tag_144\n          tag_60\n          jump\t// in\n        tag_144:\n            /* \"#utility.yul\":5134:5218   */\n        tag_143:\n            /* \"#utility.yul\":4955:5224   */\n          pop\n            /* \"#utility.yul\":4904:5224   */\n          swap2\n          swap1\n          pop\n          jump\t// out\n            /* \"#utility.yul\":5230:5371   */\n        tag_62:\n            /* \"#utility.yul\":5279:5283   */\n          0x00\n            /* \"#utility.yul\":5302:5305   */\n          dup2\n            /* \"#utility.yul\":5294:5305   */\n          swap1\n          pop\n            /* \"#utility.yul\":5325:5328   */\n          dup2\n            /* \"#utility.yul\":5322:5323   */\n          0x00\n            /* \"#utility.yul\":5315:5329   */\n          mstore\n            /* \"#utility.yul\":5359:5363   */\n          0x20\n            /* \"#utility.yul\":5356:5357   */\n          0x00\n            /* \"#utility.yul\":5346:5364   */\n          keccak256\n            /* \"#utility.yul\":5338:5364   */\n          swap1\n          pop\n            /* \"#utility.yul\":5230:5371   */\n          swap2\n          swap1\n          pop\n          jump\t// out\n            /* \"#utility.yul\":5377:5470   */\n        tag_63:\n            /* \"#utility.yul\":5414:5420   */\n          0x00\n            /* \"#utility.yul\":5461:5463   */\n          0x20\n            /* \"#utility.yul\":5456:5458   */\n          0x1f\n            /* \"#utility.yul\":5449:5454   */\n          dup4\n            /* \"#utility.yul\":5445:5459   */\n          add\n            /* \"#utility.yul\":5441:5464   */\n          div\n            /* \"#utility.yul\":5431:5464   */\n          swap1\n          pop\n            /* \"#utility.yul\":5377:5470   */\n          swap2\n          swap1\n          pop\n          jump\t// out\n            /* \"#utility.yul\":5476:5583   */\n        tag_64:\n            /* \"#utility.yul\":5520:5528   */\n          0x00\n            /* \"#utility.yul\":5570:5575   */\n          dup3\n            /* \"#utility.yul\":5564:5568   */\n          dup3\n            /* \"#utility.yul\":5560:5576   */\n          shl\n            /* \"#utility.yul\":5539:5576   */\n          swap1\n          pop\n            /* \"#utility.yul\":5476:5583   */\n          swap3\n          swap2\n          pop\n          pop\n          jump\t// out\n            /* \"#utility.yul\":5589:5982   */\n        tag_65:\n            /* \"#utility.yul\":5658:5664   */\n          0x00\n            /* \"#utility.yul\":5708:5709   */\n          0x08\n            /* \"#utility.yul\":5696:5706   */\n          dup4\n            /* \"#utility.yul\":5692:5710   */\n          mul\n            /* \"#utility.yul\":5731:5828   */\n          tag_149\n            /* \"#utility.yul\":5761:5827   */\n          0xffffffffffffffffffffffffffffffffffffffffffffffffffffffffffffffff\n            /* \"#utility.yul\":5750:5759   */\n          dup3\n            /* \"#utility.yul\":5731:5828   */\n          tag_64\n          jump\t// in\n        tag_149:\n            /* \"#utility.yul\":5849:5888   */\n          tag_150\n            /* \"#utility.yul\":5879:5887   */\n          dup7\n            /* \"#utility.yul\":5868:5877   */\n          dup4\n            /* \"#utility.yul\":5849:5888   */\n          tag_64\n          jump\t// in\n        tag_150:\n            /* \"#utility.yul\":5837:5888   */\n          swap6\n          pop\n            /* \"#utility.yul\":5921:5925   */\n          dup1\n            /* \"#utility.yul\":5917:5926   */\n          not\n            /* \"#utility.yul\":5910:5915   */\n          dup5\n            /* \"#utility.yul\":5906:5927   */\n          and\n            /* \"#utility.yul\":5897:5927   */\n          swap4\n          pop\n            /* \"#utility.yul\":5970:5974   */\n          dup1\n            /* \"#utility.yul\":5960:5968   */\n          dup7\n            /* \"#utility.yul\":5956:5975   */\n          and\n            /* \"#utility.yul\":5949:5954   */\n          dup5\n            /* \"#utility.yul\":5946:5976   */\n          or\n            /* \"#utility.yul\":5936:5976   */\n          swap3\n          pop\n            /* \"#utility.yul\":5665:5982   */\n          pop\n          pop\n            /* \"#utility.yul\":5589:5982   */\n          swap4\n          swap3\n          pop\n          pop\n          pop\n          jump\t// out\n            /* \"#utility.yul\":5988:6048   */\n        tag_66:\n            /* \"#utility.yul\":6016:6019   */\n          0x00\n            /* \"#utility.yul\":6037:6042   */\n          dup2\n            /* \"#utility.yul\":6030:6042   */\n          swap1\n          pop\n            /* \"#utility.yul\":5988:6048   */\n          swap2\n          swap1\n          pop\n          jump\t// out\n            /* \"#utility.yul\":6054:6196   */\n        tag_67:\n            /* \"#utility.yul\":6104:6113   */\n          0x00\n            /* \"#utility.yul\":6137:6190   */\n          tag_153\n            /* \"#utility.yul\":6155:6189   */\n          tag_154\n            /* \"#utility.yul\":6164:6188   */\n          tag_155\n            /* \"#utility.yul\":6182:6187   */\n          dup5\n            /* \"#utility.yul\":6164:6188   */\n          tag_52\n          jump\t// in\n        tag_155:\n            /* \"#utility.yul\":6155:6189   */\n          tag_66\n          jump\t// in\n        tag_154:\n            /* \"#utility.yul\":6137:6190   */\n          tag_52\n          jump\t// in\n        tag_153:\n            /* \"#utility.yul\":6124:6190   */\n          swap1\n          pop\n            /* \"#utility.yul\":6054:6196   */\n          swap2\n          swap1\n          pop\n          jump\t// out\n            /* \"#utility.yul\":6202:6277   */\n        tag_68:\n            /* \"#utility.yul\":6245:6248   */\n          0x00\n            /* \"#utility.yul\":6266:6271   */\n          dup2\n            /* \"#utility.yul\":6259:6271   */\n          swap1\n          pop\n            /* \"#utility.yul\":6202:6277   */\n          swap2\n          swap1\n          pop\n          jump\t// out\n            /* \"#utility.yul\":6283:6552   */\n        tag_69:\n            /* \"#utility.yul\":6393:6432   */\n          tag_158\n            /* \"#utility.yul\":6424:6431   */\n          dup4\n            /* \"#utility.yul\":6393:6432   */\n          tag_67\n          jump\t// in\n        tag_158:\n            /* \"#utility.yul\":6454:6545   */\n          tag_159\n            /* \"#utility.yul\":6503:6544   */\n          tag_160\n            /* \"#utility.yul\":6527:6543   */\n          dup3\n            /* \"#utility.yul\":6503:6544   */\n          tag_68\n          jump\t// in\n        tag_160:\n            /* \"#utility.yul\":6495:6501   */\n          dup5\n            /* \"#utility.yul\":6488:6492   */\n          dup5\n            /* \"#utility.yul\":6482:6493   */\n          sload\n            /* \"#utility.yul\":6454:6545   */\n          tag_65\n          jump\t// in\n        tag_159:\n            /* \"#utility.yul\":6448:6452   */\n          dup3\n            /* \"#utility.yul\":6441:6546   */\n          sstore\n            /* \"#utility.yul\":6359:6552   */\n          pop\n            /* \"#utility.yul\":6283:6552   */\n          pop\n          pop\n          pop\n          jump\t// out\n            /* \"#utility.yul\":6558:6631   */\n        tag_70:\n            /* \"#utility.yul\":6603:6606   */\n          0x00\n            /* \"#utility.yul\":6558:6631   */\n          swap1\n          jump\t// out\n            /* \"#utility.yul\":6637:6826   */\n        tag_71:\n            /* \"#utility.yul\":6714:6746   */\n          tag_163\n          tag_70\n          jump\t// in\n        tag_163:\n            /* \"#utility.yul\":6755:6820   */\n          tag_164\n            /* \"#utility.yul\":6813:6819   */\n          dup2\n            /* \"#utility.yul\":6805:6811   */\n          dup5\n            /* \"#utility.yul\":6799:6803   */\n          dup5\n            /* \"#utility.yul\":6755:6820   */\n          tag_69\n          jump\t// in\n        tag_164:\n            /* \"#utility.yul\":6690:6826   */\n          pop\n            /* \"#utility.yul\":6637:6826   */\n          pop\n          pop\n          jump\t// out\n            /* \"#utility.yul\":6832:7018   */\n        tag_72:\n            /* \"#utility.yul\":6892:7012   */\n        tag_166:\n            /* \"#utility.yul\":6909:6912   */\n          dup2\n            /* \"#utility.yul\":6902:6907   */\n          dup2\n            /* \"#utility.yul\":6899:6913   */\n          lt\n            /* \"#utility.yul\":6892:7012   */\n          iszero\n          tag_168\n          jumpi\n            /* \"#utility.yul\":6963:7002   */\n          tag_169\n            /* \"#utility.yul\":7000:7001   */\n          0x00\n            /* \"#utility.yul\":6993:6998   */\n          dup3\n            /* \"#utility.yul\":6963:7002   */\n          tag_71\n          jump\t// in\n        tag_169:\n            /* \"#utility.yul\":6936:6937   */\n          0x01\n            /* \"#utility.yul\":6929:6934   */\n          dup2\n            /* \"#utility.yul\":6925:6938   */\n          add\n            /* \"#utility.yul\":6916:6938   */\n          swap1\n          pop\n            /* \"#utility.yul\":6892:7012   */\n          jump(tag_166)\n        tag_168:\n            /* \"#utility.yul\":6832:7018   */\n          pop\n          pop\n          jump\t// out\n            /* \"#utility.yul\":7024:7567   */\n        tag_73:\n            /* \"#utility.yul\":7125:7127   */\n          0x1f\n            /* \"#utility.yul\":7120:7123   */\n          dup3\n            /* \"#utility.yul\":7117:7128   */\n          gt\n            /* \"#utility.yul\":7114:7560   */\n          iszero\n          tag_171\n          jumpi\n            /* \"#utility.yul\":7159:7197   */\n          tag_172\n            /* \"#utility.yul\":7191:7196   */\n          dup2\n            /* \"#utility.yul\":7159:7197   */\n          tag_62\n          jump\t// in\n        tag_172:\n            /* \"#utility.yul\":7243:7272   */\n          tag_173\n            /* \"#utility.yul\":7261:7271   */\n          dup5\n            /* \"#utility.yul\":7243:7272   */\n          tag_63\n          jump\t// in\n        tag_173:\n            /* \"#utility.yul\":7233:7241   */\n          dup2\n            /* \"#utility.yul\":7229:7273   */\n          add\n            /* \"#utility.yul\":7426:7428   */\n          0x20\n            /* \"#utility.yul\":7414:7424   */\n          dup6\n            /* \"#utility.yul\":7411:7429   */\n          lt\n            /* \"#utility.yul\":7408:7457   */\n          iszero\n          tag_174\n          jumpi\n            /* \"#utility.yul\":7447:7455   */\n          dup2\n            /* \"#utility.yul\":7432:7455   */\n          swap1\n          pop\n            /* \"#utility.yul\":7408:7457   */\n        tag_174:\n            /* \"#utility.yul\":7470:7550   */\n          tag_175\n            /* \"#utility.yul\":7526:7548   */\n          tag_176\n            /* \"#utility.yul\":7544:7547   */\n          dup6\n            /* \"#utility.yul\":7526:7548   */\n          tag_63\n          jump\t// in\n        tag_176:\n            /* \"#utility.yul\":7516:7524   */\n          dup4\n            /* \"#utility.yul\":7512:7549   */\n          add\n            /* \"#utility.yul\":7499:7510   */\n          dup3\n            /* \"#utility.yul\":7470:7550   */\n          tag_72\n          jump\t// in\n        tag_175:\n            /* \"#utility.yul\":7129:7560   */\n          pop\n          pop\n            /* \"#utility.yul\":7114:7560   */\n        tag_171:\n            /* \"#utility.yul\":7024:7567   */\n          pop\n          pop\n          pop\n          jump\t// out\n            /* \"#utility.yul\":7573:7690   */\n        tag_74:\n            /* \"#utility.yul\":7627:7635   */\n          0x00\n            /* \"#utility.yul\":7677:7682   */\n          dup3\n            /* \"#utility.yul\":7671:7675   */\n          dup3\n            /* \"#utility.yul\":7667:7683   */\n          shr\n            /* \"#utility.yul\":7646:7683   */\n          swap1\n          pop\n            /* \"#utility.yul\":7573:7690   */\n          swap3\n          swap2\n          pop\n          pop\n          jump\t// out\n            /* \"#utility.yul\":7696:7865   */\n        tag_75:\n            /* \"#utility.yul\":7740:7746   */\n          0x00\n            /* \"#utility.yul\":7773:7824   */\n          tag_179\n            /* \"#utility.yul\":7821:7822   */\n          0x00\n            /* \"#utility.yul\":7817:7823   */\n          not\n            /* \"#utility.yul\":7809:7814   */\n          dup5\n            /* \"#utility.yul\":7806:7807   */\n          0x08\n            /* \"#utility.yul\":7802:7815   */\n          mul\n            /* \"#utility.yul\":7773:7824   */\n          tag_74\n          jump\t// in\n        tag_179:\n            /* \"#utility.yul\":7769:7825   */\n          not\n            /* \"#utility.yul\":7854:7858   */\n          dup1\n            /* \"#utility.yul\":7848:7852   */\n          dup4\n            /* \"#utility.yul\":7844:7859   */\n          and\n            /* \"#utility.yul\":7834:7859   */\n          swap2\n          pop\n            /* \"#utility.yul\":7747:7865   */\n          pop\n            /* \"#utility.yul\":7696:7865   */\n          swap3\n          swap2\n          pop\n          pop\n          jump\t// out\n            /* \"#utility.yul\":7870:8165   */\n        tag_76:\n            /* \"#utility.yul\":7946:7950   */\n          0x00\n            /* \"#utility.yul\":8092:8121   */\n          tag_181\n            /* \"#utility.yul\":8117:8120   */\n          dup4\n            /* \"#utility.yul\":8111:8115   */\n          dup4\n            /* \"#utility.yul\":8092:8121   */\n          tag_75\n          jump\t// in\n        tag_181:\n            /* \"#utility.yul\":8084:8121   */\n          swap2\n          pop\n            /* \"#utility.yul\":8154:8157   */\n          dup3\n            /* \"#utility.yul\":8151:8152   */\n          0x02\n            /* \"#utility.yul\":8147:8158   */\n          mul\n            /* \"#utility.yul\":8141:8145   */\n          dup3\n            /* \"#utility.yul\":8138:8159   */\n          or\n            /* \"#utility.yul\":8130:8159   */\n          swap1\n          pop\n            /* \"#utility.yul\":7870:8165   */\n          swap3\n          swap2\n          pop\n          pop\n          jump\t// out\n            /* \"#utility.yul\":8170:9565   */\n        tag_8:\n            /* \"#utility.yul\":8287:8324   */\n          tag_183\n            /* \"#utility.yul\":8320:8323   */\n          dup3\n            /* \"#utility.yul\":8287:8324   */\n          tag_59\n          jump\t// in\n        tag_183:\n            /* \"#utility.yul\":8389:8407   */\n          0xffffffffffffffff\n            /* \"#utility.yul\":8381:8387   */\n          dup2\n            /* \"#utility.yul\":8378:8408   */\n          gt\n            /* \"#utility.yul\":8375:8431   */\n          iszero\n          tag_184\n          jumpi\n            /* \"#utility.yul\":8411:8429   */\n          tag_185\n          tag_45\n          jump\t// in\n        tag_185:\n            /* \"#utility.yul\":8375:8431   */\n        tag_184:\n            /* \"#utility.yul\":8455:8493   */\n          tag_186\n            /* \"#utility.yul\":8487:8491   */\n          dup3\n            /* \"#utility.yul\":8481:8492   */\n          sload\n            /* \"#utility.yul\":8455:8493   */\n          tag_61\n          jump\t// in\n        tag_186:\n            /* \"#utility.yul\":8540:8607   */\n          tag_187\n            /* \"#utility.yul\":8600:8606   */\n          dup3\n            /* \"#utility.yul\":8592:8598   */\n          dup3\n            /* \"#utility.yul\":8586:8590   */\n          dup6\n            /* \"#utility.yul\":8540:8607   */\n          tag_73\n          jump\t// in\n        tag_187:\n            /* \"#utility.yul\":8634:8635   */\n          0x00\n            /* \"#utility.yul\":8658:8662   */\n          0x20\n            /* \"#utility.yul\":8645:8662   */\n          swap1\n          pop\n            /* \"#utility.yul\":8690:8692   */\n          0x1f\n            /* \"#utility.yul\":8682:8688   */\n          dup4\n            /* \"#utility.yul\":8679:8693   */\n          gt\n            /* \"#utility.yul\":8707:8708   */\n          0x01\n            /* \"#utility.yul\":8702:9320   */\n          dup2\n          eq\n          tag_189\n          jumpi\n            /* \"#utility.yul\":9364:9365   */\n          0x00\n            /* \"#utility.yul\":9381:9387   */\n          dup5\n            /* \"#utility.yul\":9378:9455   */\n          iszero\n          tag_190\n          jumpi\n            /* \"#utility.yul\":9430:9439   */\n          dup3\n            /* \"#utility.yul\":9425:9428   */\n          dup8\n            /* \"#utility.yul\":9421:9440   */\n          add\n            /* \"#utility.yul\":9415:9441   */\n          mload\n            /* \"#utility.yul\":9406:9441   */\n          swap1\n          pop\n            /* \"#utility.yul\":9378:9455   */\n        tag_190:\n            /* \"#utility.yul\":9481:9548   */\n          tag_191\n            /* \"#utility.yul\":9541:9547   */\n          dup6\n            /* \"#utility.yul\":9534:9539   */\n          dup3\n            /* \"#utility.yul\":9481:9548   */\n          tag_76\n          jump\t// in\n        tag_191:\n            /* \"#utility.yul\":9475:9479   */\n          dup7\n            /* \"#utility.yul\":9468:9549   */\n          sstore\n            /* \"#utility.yul\":9337:9559   */\n          pop\n            /* \"#utility.yul\":8672:9559   */\n          jump(tag_188)\n            /* \"#utility.yul\":8702:9320   */\n        tag_189:\n            /* \"#utility.yul\":8754:8758   */\n          0x1f\n            /* \"#utility.yul\":8750:8759   */\n          not\n            /* \"#utility.yul\":8742:8748   */\n          dup5\n            /* \"#utility.yul\":8738:8760   */\n          and\n            /* \"#utility.yul\":8788:8825   */\n          tag_192\n            /* \"#utility.yul\":8820:8824   */\n          dup7\n            /* \"#utility.yul\":8788:8825   */\n          tag_62\n          jump\t// in\n        tag_192:\n            /* \"#utility.yul\":8847:8848   */\n          0x00\n            /* \"#utility.yul\":8861:9069   */\n        tag_193:\n            /* \"#utility.yul\":8875:8882   */\n          dup3\n            /* \"#utility.yul\":8872:8873   */\n          dup2\n            /* \"#utility.yul\":8869:8883   */\n          lt\n            /* \"#utility.yul\":8861:9069   */\n          iszero\n          tag_195\n          jumpi\n            /* \"#utility.yul\":8954:8963   */\n          dup5\n            /* \"#utility.yul\":8949:8952   */\n          dup10\n            /* \"#utility.yul\":8945:8964   */\n          add\n            /* \"#utility.yul\":8939:8965   */\n          mload\n            /* \"#utility.yul\":8931:8937   */\n          dup3\n            /* \"#utility.yul\":8924:8966   */\n          sstore\n            /* \"#utility.yul\":9005:9006   */\n          0x01\n            /* \"#utility.yul\":8997:9003   */\n          dup3\n            /* \"#utility.yul\":8993:9007   */\n          add\n            /* \"#utility.yul\":8983:9007   */\n          swap2\n          pop\n            /* \"#utility.yul\":9052:9054   */\n          0x20\n            /* \"#utility.yul\":9041:9050   */\n          dup6\n            /* \"#utility.yul\":9037:9055   */\n          add\n            /* \"#utility.yul\":9024:9055   */\n          swap5\n          pop\n            /* \"#utility.yul\":8898:8902   */\n          0x20\n            /* \"#utility.yul\":8895:8896   */\n          dup2\n            /* \"#utility.yul\":8891:8903   */\n          add\n            /* \"#utility.yul\":8886:8903   */\n          swap1\n          pop\n            /* \"#utility.yul\":8861:9069   */\n          jump(tag_193)\n        tag_195:\n            /* \"#utility.yul\":9097:9103   */\n          dup7\n            /* \"#utility.yul\":9088:9095   */\n          dup4\n            /* \"#utility.yul\":9085:9104   */\n          lt\n            /* \"#utility.yul\":9082:9261   */\n          iszero\n          tag_196\n          jumpi\n            /* \"#utility.yul\":9155:9164   */\n          dup5\n            /* \"#utility.yul\":9150:9153   */\n          dup10\n            /* \"#utility.yul\":9146:9165   */\n          add\n            /* \"#utility.yul\":9140:9166   */\n          mload\n            /* \"#utility.yul\":9198:9246   */\n          tag_197\n            /* \"#utility.yul\":9240:9244   */\n          0x1f\n            /* \"#utility.yul\":9232:9238   */\n          dup10\n            /* \"#utility.yul\":9228:9245   */\n          and\n            /* \"#utility.yul\":9217:9226   */\n          dup3\n            /* \"#utility.yul\":9198:9246   */\n          tag_75\n          jump\t// in\n        tag_197:\n            /* \"#utility.yul\":9190:9196   */\n          dup4\n            /* \"#utility.yul\":9183:9247   */\n          sstore\n            /* \"#utility.yul\":9105:9261   */\n          pop\n            /* \"#utility.yul\":9082:9261   */\n        tag_196:\n            /* \"#utility.yul\":9307:9308   */\n          0x01\n            /* \"#utility.yul\":9303:9304   */\n          0x02\n            /* \"#utility.yul\":9295:9301   */\n          dup9\n            /* \"#utility.yul\":9291:9305   */\n          mul\n            /* \"#utility.yul\":9287:9309   */\n          add\n            /* \"#utility.yul\":9281:9285   */\n          dup9\n            /* \"#utility.yul\":9274:9310   */\n          sstore\n            /* \"#utility.yul\":8709:9320   */\n          pop\n          pop\n          pop\n            /* \"#utility.yul\":8672:9559   */\n        tag_188:\n          pop\n            /* \"#utility.yul\":8262:9565   */\n          pop\n          pop\n          pop\n            /* \"#utility.yul\":8170:9565   */\n          pop\n          pop\n          jump\t// out\n            /* \"#utility.yul\":9571:9751   */\n        tag_77:\n            /* \"#utility.yul\":9619:9696   */\n          0x4e487b7100000000000000000000000000000000000000000000000000000000\n            /* \"#utility.yul\":9616:9617   */\n          0x00\n            /* \"#utility.yul\":9609:9697   */\n          mstore\n            /* \"#utility.yul\":9716:9720   */\n          0x11\n            /* \"#utility.yul\":9713:9714   */\n          0x04\n            /* \"#utility.yul\":9706:9721   */\n          mstore\n            /* \"#utility.yul\":9740:9744   */\n          0x24\n            /* \"#utility.yul\":9737:9738   */\n          0x00\n            /* \"#utility.yul\":9730:9745   */\n          revert\n            /* \"#utility.yul\":9757:9859   */\n        tag_78:\n            /* \"#utility.yul\":9799:9807   */\n          0x00\n            /* \"#utility.yul\":9846:9851   */\n          dup2\n            /* \"#utility.yul\":9843:9844   */\n          0x01\n            /* \"#utility.yul\":9839:9852   */\n          shr\n            /* \"#utility.yul\":9818:9852   */\n          swap1\n          pop\n            /* \"#utility.yul\":9757:9859   */\n          swap2\n          swap1\n          pop\n          jump\t// out\n            /* \"#utility.yul\":9865:10713   */\n        tag_79:\n            /* \"#utility.yul\":9926:9931   */\n          0x00\n            /* \"#utility.yul\":9933:9937   */\n          dup1\n            /* \"#utility.yul\":9957:9963   */\n          dup3\n            /* \"#utility.yul\":9948:9963   */\n          swap2\n          pop\n            /* \"#utility.yul\":9981:9986   */\n          dup4\n            /* \"#utility.yul\":9972:9986   */\n          swap1\n          pop\n            /* \"#utility.yul\":9995:10707   */\n        tag_201:\n            /* \"#utility.yul\":10016:10017   */\n          0x01\n            /* \"#utility.yul\":10006:10014   */\n          dup6\n            /* \"#utility.yul\":10003:10018   */\n          gt\n            /* \"#utility.yul\":9995:10707   */\n          iszero\n          tag_203\n          jumpi\n            /* \"#utility.yul\":10111:10115   */\n          dup1\n            /* \"#utility.yul\":10106:10109   */\n          dup7\n            /* \"#utility.yul\":10102:10116   */\n          div\n            /* \"#utility.yul\":10096:10100   */\n          dup2\n            /* \"#utility.yul\":10093:10117   */\n          gt\n            /* \"#utility.yul\":10090:10140   */\n          iszero\n          tag_204\n          jumpi\n            /* \"#utility.yul\":10120:10138   */\n          tag_205\n          tag_77\n          jump\t// in\n        tag_205:\n            /* \"#utility.yul\":10090:10140   */\n        tag_204:\n            /* \"#utility.yul\":10170:10171   */\n          0x01\n            /* \"#utility.yul\":10160:10168   */\n          dup6\n            /* \"#utility.yul\":10156:10172   */\n          and\n            /* \"#utility.yul\":10153:10604   */\n          iszero\n          tag_206\n          jumpi\n            /* \"#utility.yul\":10585:10589   */\n          dup1\n            /* \"#utility.yul\":10578:10583   */\n          dup3\n            /* \"#utility.yul\":10574:10590   */\n          mul\n            /* \"#utility.yul\":10565:10590   */\n          swap2\n          pop\n            /* \"#utility.yul\":10153:10604   */\n        tag_206:\n            /* \"#utility.yul\":10635:10639   */\n          dup1\n            /* \"#utility.yul\":10629:10633   */\n          dup2\n            /* \"#utility.yul\":10625:10640   */\n          mul\n            /* \"#utility.yul\":10617:10640   */\n          swap1\n          pop\n            /* \"#utility.yul\":10665:10697   */\n          tag_207\n            /* \"#utility.yul\":10688:10696   */\n          dup6\n            /* \"#utility.yul\":10665:10697   */\n          tag_78\n          jump\t// in\n        tag_207:\n            /* \"#utility.yul\":10653:10697   */\n          swap5\n          pop\n            /* \"#utility.yul\":9995:10707   */\n          jump(tag_201)\n        tag_203:\n            /* \"#utility.yul\":9865:10713   */\n          swap5\n          pop\n          swap5\n          swap3\n          pop\n          pop\n          pop\n          jump\t// out\n            /* \"#utility.yul\":10719:11792   */\n        tag_80:\n            /* \"#utility.yul\":10773:10778   */\n          0x00\n            /* \"#utility.yul\":10964:10972   */\n          dup3\n            /* \"#utility.yul\":10954:10994   */\n          tag_209\n          jumpi\n            /* \"#utility.yul\":10985:10986   */\n          0x01\n            /* \"#utility.yul\":10976:10986   */\n          swap1\n          pop\n            /* \"#utility.yul\":10987:10992   */\n          jump(tag_208)\n            /* \"#utility.yul\":10954:10994   */\n        tag_209:\n            /* \"#utility.yul\":11013:11017   */\n          dup2\n            /* \"#utility.yul\":11003:11039   */\n          tag_210\n          jumpi\n            /* \"#utility.yul\":11030:11031   */\n          0x00\n            /* \"#utility.yul\":11021:11031   */\n          swap1\n          pop\n            /* \"#utility.yul\":11032:11037   */\n          jump(tag_208)\n            /* \"#utility.yul\":11003:11039   */\n        tag_210:\n            /* \"#utility.yul\":11099:11103   */\n          dup2\n            /* \"#utility.yul\":11147:11148   */\n          0x01\n            /* \"#utility.yul\":11142:11169   */\n          dup2\n          eq\n          tag_212\n          jumpi\n            /* \"#utility.yul\":11183:11184   */\n          0x02\n            /* \"#utility.yul\":11178:11369   */\n          dup2\n          eq\n          tag_213\n          jumpi\n            /* \"#utility.yul\":11092:11369   */\n          jump(tag_211)\n            /* \"#utility.yul\":11142:11169   */\n        tag_212:\n            /* \"#utility.yul\":11160:11161   */\n          0x01\n            /* \"#utility.yul\":11151:11161   */\n          swap2\n          pop\n            /* \"#utility.yul\":11162:11167   */\n          pop\n          jump(tag_208)\n            /* \"#utility.yul\":11178:11369   */\n        tag_213:\n            /* \"#utility.yul\":11223:11226   */\n          0xff\n            /* \"#utility.yul\":11213:11221   */\n          dup5\n            /* \"#utility.yul\":11210:11227   */\n          gt\n            /* \"#utility.yul\":11207:11250   */\n          iszero\n          tag_214\n          jumpi\n            /* \"#utility.yul\":11230:11248   */\n          tag_215\n          tag_77\n          jump\t// in\n        tag_215:\n            /* \"#utility.yul\":11207:11250   */\n        tag_214:\n            /* \"#utility.yul\":11279:11287   */\n          dup4\n            /* \"#utility.yul\":11276:11277   */\n          0x02\n            /* \"#utility.yul\":11272:11288   */\n          exp\n            /* \"#utility.yul\":11263:11288   */\n          swap2\n          pop\n            /* \"#utility.yul\":11314:11317   */\n          dup5\n            /* \"#utility.yul\":11307:11312   */\n          dup3\n            /* \"#utility.yul\":11304:11318   */\n          gt\n            /* \"#utility.yul\":11301:11341   */\n          iszero\n          tag_216\n          jumpi\n            /* \"#utility.yul\":11321:11339   */\n          tag_217\n          tag_77\n          jump\t// in\n        tag_217:\n            /* \"#utility.yul\":11301:11341   */\n        tag_216:\n            /* \"#utility.yul\":11354:11359   */\n          pop\n          jump(tag_208)\n            /* \"#utility.yul\":11092:11369   */\n        tag_211:\n          pop\n            /* \"#utility.yul\":11478:11480   */\n          0x20\n            /* \"#utility.yul\":11468:11476   */\n          dup4\n            /* \"#utility.yul\":11465:11481   */\n          lt\n            /* \"#utility.yul\":11459:11462   */\n          0x0133\n            /* \"#utility.yul\":11453:11457   */\n          dup4\n            /* \"#utility.yul\":11450:11463   */\n          lt\n            /* \"#utility.yul\":11446:11482   */\n          and\n            /* \"#utility.yul\":11428:11430   */\n          0x4e\n            /* \"#utility.yul\":11418:11426   */\n          dup5\n            /* \"#utility.yul\":11415:11431   */\n          lt\n            /* \"#utility.yul\":11410:11412   */\n          0x0b\n            /* \"#utility.yul\":11404:11408   */\n          dup5\n            /* \"#utility.yul\":11401:11413   */\n          lt\n            /* \"#utility.yul\":11397:11432   */\n          and\n            /* \"#utility.yul\":11381:11492   */\n          or\n            /* \"#utility.yul\":11378:11624   */\n          iszero\n          tag_218\n          jumpi\n            /* \"#utility.yul\":11534:11542   */\n          dup3\n            /* \"#utility.yul\":11528:11532   */\n          dup3\n            /* \"#utility.yul\":11524:11543   */\n          exp\n            /* \"#utility.yul\":11515:11543   */\n          swap1\n          pop\n            /* \"#utility.yul\":11569:11572   */\n          dup4\n            /* \"#utility.yul\":11562:11567   */\n          dup2\n            /* \"#utility.yul\":11559:11573   */\n          gt\n            /* \"#utility.yul\":11556:11596   */\n          iszero\n          tag_219\n          jumpi\n            /* \"#utility.yul\":11576:11594   */\n          tag_220\n          tag_77\n          jump\t// in\n        tag_220:\n            /* \"#utility.yul\":11556:11596   */\n        tag_219:\n            /* \"#utility.yul\":11609:11614   */\n          jump(tag_208)\n            /* \"#utility.yul\":11378:11624   */\n        tag_218:\n            /* \"#utility.yul\":11649:11691   */\n          tag_221\n            /* \"#utility.yul\":11687:11690   */\n          dup5\n            /* \"#utility.yul\":11677:11685   */\n          dup5\n            /* \"#utility.yul\":11671:11675   */\n          dup5\n            /* \"#utility.yul\":11668:11669   */\n          0x01\n            /* \"#utility.yul\":11649:11691   */\n          tag_79\n          jump\t// in\n        tag_221:\n            /* \"#utility.yul\":11634:11691   */\n          swap3\n          pop\n          swap1\n          pop\n            /* \"#utility.yul\":11723:11727   */\n          dup2\n            /* \"#utility.yul\":11718:11721   */\n          dup5\n            /* \"#utility.yul\":11714:11728   */\n          div\n            /* \"#utility.yul\":11707:11712   */\n          dup2\n            /* \"#utility.yul\":11704:11729   */\n          gt\n            /* \"#utility.yul\":11701:11752   */\n          iszero\n          tag_222\n          jumpi\n            /* \"#utility.yul\":11732:11750   */\n          tag_223\n          tag_77\n          jump\t// in\n        tag_223:\n            /* \"#utility.yul\":11701:11752   */\n        tag_222:\n            /* \"#utility.yul\":11781:11785   */\n          dup2\n            /* \"#utility.yul\":11774:11779   */\n          dup2\n            /* \"#utility.yul\":11770:11786   */\n          mul\n            /* \"#utility.yul\":11761:11786   */\n          swap1\n          pop\n            /* \"#utility.yul\":10719:11792   */\n        tag_208:\n          swap4\n          swap3\n          pop\n          pop\n          pop\n          jump\t// out\n            /* \"#utility.yul\":11798:11884   */\n        tag_81:\n            /* \"#utility.yul\":11833:11840   */\n          0x00\n            /* \"#utility.yul\":11873:11877   */\n          0xff\n            /* \"#utility.yul\":11866:11871   */\n          dup3\n            /* \"#utility.yul\":11862:11878   */\n          and\n            /* \"#utility.yul\":11851:11878   */\n          swap1\n          pop\n            /* \"#utility.yul\":11798:11884   */\n          swap2\n          swap1\n          pop\n          jump\t// out\n            /* \"#utility.yul\":11890:12171   */\n        tag_15:\n            /* \"#utility.yul\":11948:11953   */\n          0x00\n            /* \"#utility.yul\":11972:11995   */\n          tag_226\n            /* \"#utility.yul\":11990:11994   */\n          dup3\n            /* \"#utility.yul\":11972:11995   */\n          tag_52\n          jump\t// in\n        tag_226:\n            /* \"#utility.yul\":11964:11995   */\n          swap2\n          pop\n            /* \"#utility.yul\":12016:12041   */\n          tag_227\n            /* \"#utility.yul\":12032:12040   */\n          dup4\n            /* \"#utility.yul\":12016:12041   */\n          tag_81\n          jump\t// in\n        tag_227:\n            /* \"#utility.yul\":12004:12041   */\n          swap3\n          pop\n            /* \"#utility.yul\":12060:12164   */\n          tag_228\n            /* \"#utility.yul\":12097:12163   */\n          0xffffffffffffffffffffffffffffffffffffffffffffffffffffffffffffffff\n            /* \"#utility.yul\":12087:12095   */\n          dup5\n            /* \"#utility.yul\":12081:12085   */\n          dup5\n            /* \"#utility.yul\":12060:12164   */\n          tag_80\n          jump\t// in\n        tag_228:\n            /* \"#utility.yul\":12051:12164   */\n          swap1\n          pop\n            /* \"#utility.yul\":11890:12171   */\n          swap3\n          swap2\n          pop\n          pop\n          jump\t// out\n            /* \"#utility.yul\":12177:12587   */\n        tag_17:\n            /* \"#utility.yul\":12217:12224   */\n          0x00\n            /* \"#utility.yul\":12240:12260   */\n          tag_230\n            /* \"#utility.yul\":12258:12259   */\n          dup3\n            /* \"#utility.yul\":12240:12260   */\n          tag_52\n          jump\t// in\n        tag_230:\n            /* \"#utility.yul\":12235:12260   */\n          swap2\n          pop\n            /* \"#utility.yul\":12274:12294   */\n          tag_231\n            /* \"#utility.yul\":12292:12293   */\n          dup4\n            /* \"#utility.yul\":12274:12294   */\n          tag_52\n          jump\t// in\n        tag_231:\n            /* \"#utility.yul\":12269:12294   */\n          swap3\n          pop\n            /* \"#utility.yul\":12329:12330   */\n          dup3\n            /* \"#utility.yul\":12326:12327   */\n          dup3\n            /* \"#utility.yul\":12322:12331   */\n          mul\n            /* \"#utility.yul\":12351:12381   */\n          tag_232\n            /* \"#utility.yul\":12369:12380   */\n          dup2\n            /* \"#utility.yul\":12351:12381   */\n          tag_52\n          jump\t// in\n        tag_232:\n            /* \"#utility.yul\":12340:12381   */\n          swap2\n          pop\n            /* \"#utility.yul\":12530:12531   */\n          dup3\n            /* \"#utility.yul\":12521:12528   */\n          dup3\n            /* \"#utility.yul\":12517:12532   */\n          div\n            /* \"#utility.yul\":12514:12515   */\n          dup5\n            /* \"#utility.yul\":12511:12533   */\n          eq\n            /* \"#utility.yul\":12491:12492   */\n          dup4\n            /* \"#utility.yul\":12484:12493   */\n          iszero\n            /* \"#utility.yul\":12464:12547   */\n          or\n            /* \"#utility.yul\":12441:12580   */\n          tag_233\n          jumpi\n            /* \"#utility.yul\":12560:12578   */\n          tag_234\n          tag_77\n          jump\t// in\n        tag_234:\n            /* \"#utility.yul\":12441:12580   */\n        tag_233:\n            /* \"#utility.yul\":12225:12587   */\n          pop\n            /* \"#utility.yul\":12177:12587   */\n          swap3\n          swap2\n          pop\n          pop\n          jump\t// out\n            /* \"#utility.yul\":12593:12711   */\n        tag_82:\n            /* \"#utility.yul\":12680:12704   */\n          tag_236\n            /* \"#utility.yul\":12698:12703   */\n          dup2\n            /* \"#utility.yul\":12680:12704   */\n          tag_56\n          jump\t// in\n        tag_236:\n            /* \"#utility.yul\":12675:12678   */\n          dup3\n            /* \"#utility.yul\":12668:12705   */\n          mstore\n            /* \"#utility.yul\":12593:12711   */\n          pop\n          pop\n          jump\t// out\n            /* \"#utility.yul\":12717:12939   */\n        tag_24:\n            /* \"#utility.yul\":12810:12814   */\n          0x00\n            /* \"#utility.yul\":12848:12850   */\n          0x20\n            /* \"#utility.yul\":12837:12846   */\n          dup3\n            /* \"#utility.yul\":12833:12851   */\n          add\n            /* \"#utility.yul\":12825:12851   */\n          swap1\n          pop\n            /* \"#utility.yul\":12861:12932   */\n          tag_238\n            /* \"#utility.yul\":12929:12930   */\n          0x00\n            /* \"#utility.yul\":12918:12927   */\n          dup4\n            /* \"#utility.yul\":12914:12931   */\n          add\n            /* \"#utility.yul\":12905:12911   */\n          dup5\n            /* \"#utility.yul\":12861:12932   */\n          tag_82\n          jump\t// in\n        tag_238:\n            /* \"#utility.yul\":12717:12939   */\n          swap3\n          swap2\n          pop\n          pop\n          jump\t// out\n            /* \"#utility.yul\":12945:13136   */\n        tag_30:\n            /* \"#utility.yul\":12985:12988   */\n          0x00\n            /* \"#utility.yul\":13004:13024   */\n          tag_240\n            /* \"#utility.yul\":13022:13023   */\n          dup3\n            /* \"#utility.yul\":13004:13024   */\n          tag_52\n          jump\t// in\n        tag_240:\n            /* \"#utility.yul\":12999:13024   */\n          swap2\n          pop\n            /* \"#utility.yul\":13038:13058   */\n          tag_241\n            /* \"#utility.yul\":13056:13057   */\n          dup4\n            /* \"#utility.yul\":13038:13058   */\n          tag_52\n          jump\t// in\n        tag_241:\n            /* \"#utility.yul\":13033:13058   */\n          swap3\n          pop\n            /* \"#utility.yul\":13081:13082   */\n          dup3\n            /* \"#utility.yul\":13078:13079   */\n          dup3\n            /* \"#utility.yul\":13074:13083   */\n          add\n            /* \"#utility.yul\":13067:13083   */\n          swap1\n          pop\n            /* \"#utility.yul\":13102:13105   */\n          dup1\n            /* \"#utility.yul\":13099:13100   */\n          dup3\n            /* \"#utility.yul\":13096:13106   */\n          gt\n            /* \"#utility.yul\":13093:13129   */\n          iszero\n          tag_242\n          jumpi\n            /* \"#utility.yul\":13109:13127   */\n          tag_243\n          tag_77\n          jump\t// in\n        tag_243:\n            /* \"#utility.yul\":13093:13129   */\n        tag_242:\n            /* \"#utility.yul\":12945:13136   */\n          swap3\n          swap2\n          pop\n          pop\n          jump\t// out\n            /* \"#utility.yul\":13142:13260   */\n        tag_83:\n            /* \"#utility.yul\":13229:13253   */\n          tag_245\n            /* \"#utility.yul\":13247:13252   */\n          dup2\n            /* \"#utility.yul\":13229:13253   */\n          tag_52\n          jump\t// in\n        tag_245:\n            /* \"#utility.yul\":13224:13227   */\n          dup3\n            /* \"#utility.yul\":13217:13254   */\n          mstore\n            /* \"#utility.yul\":13142:13260   */\n          pop\n          pop\n          jump\t// out\n            /* \"#utility.yul\":13266:13708   */\n        tag_34:\n            /* \"#utility.yul\":13415:13419   */\n          0x00\n            /* \"#utility.yul\":13453:13455   */\n          0x60\n            /* \"#utility.yul\":13442:13451   */\n          dup3\n            /* \"#utility.yul\":13438:13456   */\n          add\n            /* \"#utility.yul\":13430:13456   */\n          swap1\n          pop\n            /* \"#utility.yul\":13466:13537   */\n          tag_247\n            /* \"#utility.yul\":13534:13535   */\n          0x00\n            /* \"#utility.yul\":13523:13532   */\n          dup4\n            /* \"#utility.yul\":13519:13536   */\n          add\n            /* \"#utility.yul\":13510:13516   */\n          dup7\n            /* \"#utility.yul\":13466:13537   */\n          tag_82\n          jump\t// in\n        tag_247:\n            /* \"#utility.yul\":13547:13619   */\n          tag_248\n            /* \"#utility.yul\":13615:13617   */\n          0x20\n            /* \"#utility.yul\":13604:13613   */\n          dup4\n            /* \"#utility.yul\":13600:13618   */\n          add\n            /* \"#utility.yul\":13591:13597   */\n          dup6\n            /* \"#utility.yul\":13547:13619   */\n          tag_83\n          jump\t// in\n        tag_248:\n            /* \"#utility.yul\":13629:13701   */\n          tag_249\n            /* \"#utility.yul\":13697:13699   */\n          0x40\n            /* \"#utility.yul\":13686:13695   */\n          dup4\n            /* \"#utility.yul\":13682:13700   */\n          add\n            /* \"#utility.yul\":13673:13679   */\n          dup5\n            /* \"#utility.yul\":13629:13701   */\n          tag_83\n          jump\t// in\n        tag_249:\n            /* \"#utility.yul\":13266:13708   */\n          swap5\n          swap4\n          pop\n          pop\n          pop\n          pop\n          jump\t// out\n            /* \"#utility.yul\":13714:13936   */\n        tag_38:\n            /* \"#utility.yul\":13807:13811   */\n          0x00\n            /* \"#utility.yul\":13845:13847   */\n          0x20\n            /* \"#utility.yul\":13834:13843   */\n          dup3\n            /* \"#utility.yul\":13830:13848   */\n          add\n            /* \"#utility.yul\":13822:13848   */\n          swap1\n          pop\n            /* \"#utility.yul\":13858:13929   */\n          tag_251\n            /* \"#utility.yul\":13926:13927   */\n          0x00\n            /* \"#utility.yul\":13915:13924   */\n          dup4\n            /* \"#utility.yul\":13911:13928   */\n          add\n            /* \"#utility.yul\":13902:13908   */\n          dup5\n            /* \"#utility.yul\":13858:13929   */\n          tag_83\n          jump\t// in\n        tag_251:\n            /* \"#utility.yul\":13714:13936   */\n          swap3\n          swap2\n          pop\n          pop\n          jump\t// out\n            /* \"StoryhuntTokenLaunchpad_flattened.sol\":22507:22824  contract ERC20Token is ERC20 {... */\n        tag_19:\n          dataSize(sub_0)\n          dup1\n          dataOffset(sub_0)\n          0x00\n          codecopy\n          0x00\n          return\n        stop\n\n        sub_0: assembly {\n                /* \"StoryhuntTokenLaunchpad_flattened.sol\":22507:22824  contract ERC20Token is ERC20 {... */\n              mstore(0x40, 0x80)\n              callvalue\n              dup1\n              iszero\n              tag_1\n              jumpi\n              0x00\n              dup1\n              revert\n            tag_1:\n              pop\n              jumpi(tag_2, lt(calldatasize, 0x04))\n              shr(0xe0, calldataload(0x00))\n              dup1\n              0x70a08231\n              gt\n              tag_13\n              jumpi\n              dup1\n              0x70a08231\n              eq\n              tag_8\n              jumpi\n              dup1\n              0x8da5cb5b\n              eq\n              tag_9\n              jumpi\n              dup1\n              0x95d89b41\n              eq\n              tag_10\n              jumpi\n              dup1\n              0xa9059cbb\n              eq\n              tag_11\n              jumpi\n              dup1\n              0xdd62ed3e\n              eq\n              tag_12\n              jumpi\n              jump(tag_2)\n            tag_13:\n              dup1\n              0x06fdde03\n              eq\n              tag_3\n              jumpi\n              dup1\n              0x095ea7b3\n              eq\n              tag_4\n              jumpi\n              dup1\n              0x18160ddd\n              eq\n              tag_5\n              jumpi\n              dup1\n              0x23b872dd\n              eq\n              tag_6\n              jumpi\n              dup1\n              0x313ce567\n              eq\n              tag_7\n              jumpi\n            tag_2:\n              0x00\n              dup1\n              revert\n                /* \"StoryhuntTokenLaunchpad_flattened.sol\":12648:12737  function name() public view virtual returns (string memory) {... */\n            tag_3:\n              tag_14\n              tag_15\n              jump\t// in\n            tag_14:\n              mload(0x40)\n              tag_16\n              swap2\n              swap1\n              tag_17\n              jump\t// in\n            tag_16:\n              mload(0x40)\n              dup1\n              swap2\n              sub\n              swap1\n              return\n                /* \"StoryhuntTokenLaunchpad_flattened.sol\":14867:15053  function approve(address spender, uint256 value) public virtual returns (bool) {... */\n            tag_4:\n              tag_18\n              0x04\n              dup1\n              calldatasize\n              sub\n              dup2\n              add\n              swap1\n              tag_19\n              swap2\n              swap1\n              tag_20\n              jump\t// in\n            tag_19:\n              tag_21\n              jump\t// in\n            tag_18:\n              mload(0x40)\n              tag_22\n              swap2\n              swap1\n              tag_23\n              jump\t// in\n            tag_22:\n              mload(0x40)\n              dup1\n              swap2\n              sub\n              swap1\n              return\n                /* \"StoryhuntTokenLaunchpad_flattened.sol\":13718:13815  function totalSupply() public view virtual returns (uint256) {... */\n            tag_5:\n              tag_24\n              tag_25\n              jump\t// in\n            tag_24:\n              mload(0x40)\n              tag_26\n              swap2\n              swap1\n              tag_27\n              jump\t// in\n            tag_26:\n              mload(0x40)\n              dup1\n              swap2\n              sub\n              swap1\n              return\n                /* \"StoryhuntTokenLaunchpad_flattened.sol\":15645:15889  function transferFrom(address from, address to, uint256 value) public virtual returns (bool) {... */\n            tag_6:\n              tag_28\n              0x04\n              dup1\n              calldatasize\n              sub\n              dup2\n              add\n              swap1\n              tag_29\n              swap2\n              swap1\n              tag_30\n              jump\t// in\n            tag_29:\n              tag_31\n              jump\t// in\n            tag_28:\n              mload(0x40)\n              tag_32\n              swap2\n              swap1\n              tag_23\n              jump\t// in\n            tag_32:\n              mload(0x40)\n              dup1\n              swap2\n              sub\n              swap1\n              return\n                /* \"StoryhuntTokenLaunchpad_flattened.sol\":13576:13658  function decimals() public view virtual returns (uint8) {... */\n            tag_7:\n              tag_33\n              tag_34\n              jump\t// in\n            tag_33:\n              mload(0x40)\n              tag_35\n              swap2\n              swap1\n              tag_36\n              jump\t// in\n            tag_35:\n              mload(0x40)\n              dup1\n              swap2\n              sub\n              swap1\n              return\n                /* \"StoryhuntTokenLaunchpad_flattened.sol\":13873:13989  function balanceOf(address account) public view virtual returns (uint256) {... */\n            tag_8:\n              tag_37\n              0x04\n              dup1\n              calldatasize\n              sub\n              dup2\n              add\n              swap1\n              tag_38\n              swap2\n              swap1\n              tag_39\n              jump\t// in\n            tag_38:\n              tag_40\n              jump\t// in\n            tag_37:\n              mload(0x40)\n              tag_41\n              swap2\n              swap1\n              tag_27\n              jump\t// in\n            tag_41:\n              mload(0x40)\n              dup1\n              swap2\n              sub\n              swap1\n              return\n                /* \"StoryhuntTokenLaunchpad_flattened.sol\":22542:22562  address public owner */\n            tag_9:\n              tag_42\n              tag_43\n              jump\t// in\n            tag_42:\n              mload(0x40)\n              tag_44\n              swap2\n              swap1\n              tag_45\n              jump\t// in\n            tag_44:\n              mload(0x40)\n              dup1\n              swap2\n              sub\n              swap1\n              return\n                /* \"StoryhuntTokenLaunchpad_flattened.sol\":12850:12943  function symbol() public view virtual returns (string memory) {... */\n            tag_10:\n              tag_46\n              tag_47\n              jump\t// in\n            tag_46:\n              mload(0x40)\n              tag_48\n              swap2\n              swap1\n              tag_17\n              jump\t// in\n            tag_48:\n              mload(0x40)\n              dup1\n              swap2\n              sub\n              swap1\n              return\n                /* \"StoryhuntTokenLaunchpad_flattened.sol\":14184:14362  function transfer(address to, uint256 value) public virtual returns (bool) {... */\n            tag_11:\n              tag_49\n              0x04\n              dup1\n              calldatasize\n              sub\n              dup2\n              add\n              swap1\n              tag_50\n              swap2\n              swap1\n              tag_20\n              jump\t// in\n            tag_50:\n              tag_51\n              jump\t// in\n            tag_49:\n              mload(0x40)\n              tag_52\n              swap2\n              swap1\n              tag_23\n              jump\t// in\n            tag_52:\n              mload(0x40)\n              dup1\n              swap2\n              sub\n              swap1\n              return\n                /* \"StoryhuntTokenLaunchpad_flattened.sol\":14420:14560  function allowance(address owner, address spender) public view virtual returns (uint256) {... */\n            tag_12:\n              tag_53\n              0x04\n              dup1\n              calldatasize\n              sub\n              dup2\n              add\n              swap1\n              tag_54\n              swap2\n              swap1\n              tag_55\n              jump\t// in\n            tag_54:\n              tag_56\n              jump\t// in\n            tag_53:\n              mload(0x40)\n              tag_57\n              swap2\n              swap1\n              tag_27\n              jump\t// in\n            tag_57:\n              mload(0x40)\n              dup1\n              swap2\n              sub\n              swap1\n              return\n                /* \"StoryhuntTokenLaunchpad_flattened.sol\":12648:12737  function name() public view virtual returns (string memory) {... */\n            tag_15:\n                /* \"StoryhuntTokenLaunchpad_flattened.sol\":12693:12706  string memory */\n              0x60\n                /* \"StoryhuntTokenLaunchpad_flattened.sol\":12725:12730  _name */\n              0x03\n                /* \"StoryhuntTokenLaunchpad_flattened.sol\":12718:12730  return _name */\n              dup1\n              sload\n              tag_59\n              swap1\n              tag_60\n              jump\t// in\n            tag_59:\n              dup1\n              0x1f\n              add\n              0x20\n              dup1\n              swap2\n              div\n              mul\n              0x20\n              add\n              mload(0x40)\n              swap1\n              dup2\n              add\n              0x40\n              mstore\n              dup1\n              swap3\n              swap2\n              swap1\n              dup2\n              dup2\n              mstore\n              0x20\n              add\n              dup3\n              dup1\n              sload\n              tag_61\n              swap1\n              tag_60\n              jump\t// in\n            tag_61:\n              dup1\n              iszero\n              tag_62\n              jumpi\n              dup1\n              0x1f\n              lt\n              tag_63\n              jumpi\n              0x0100\n              dup1\n              dup4\n              sload\n              div\n              mul\n              dup4\n              mstore\n              swap2\n              0x20\n              add\n              swap2\n              jump(tag_62)\n            tag_63:\n              dup3\n              add\n              swap2\n              swap1\n              0x00\n              mstore\n              keccak256(0x00, 0x20)\n              swap1\n            tag_64:\n              dup2\n              sload\n              dup2\n              mstore\n              swap1\n              0x01\n              add\n              swap1\n              0x20\n              add\n              dup1\n              dup4\n              gt\n              tag_64\n              jumpi\n              dup3\n              swap1\n              sub\n              0x1f\n              and\n              dup3\n              add\n              swap2\n            tag_62:\n              pop\n              pop\n              pop\n              pop\n              pop\n              swap1\n              pop\n                /* \"StoryhuntTokenLaunchpad_flattened.sol\":12648:12737  function name() public view virtual returns (string memory) {... */\n              swap1\n              jump\t// out\n                /* \"StoryhuntTokenLaunchpad_flattened.sol\":14867:15053  function approve(address spender, uint256 value) public virtual returns (bool) {... */\n            tag_21:\n                /* \"StoryhuntTokenLaunchpad_flattened.sol\":14940:14944  bool */\n              0x00\n                /* \"StoryhuntTokenLaunchpad_flattened.sol\":14956:14969  address owner */\n              dup1\n                /* \"StoryhuntTokenLaunchpad_flattened.sol\":14972:14984  _msgSender() */\n              tag_66\n                /* \"StoryhuntTokenLaunchpad_flattened.sol\":14972:14982  _msgSender */\n              tag_67\n                /* \"StoryhuntTokenLaunchpad_flattened.sol\":14972:14984  _msgSender() */\n              jump\t// in\n            tag_66:\n                /* \"StoryhuntTokenLaunchpad_flattened.sol\":14956:14984  address owner = _msgSender() */\n              swap1\n              pop\n                /* \"StoryhuntTokenLaunchpad_flattened.sol\":14994:15025  _approve(owner, spender, value) */\n              tag_68\n                /* \"StoryhuntTokenLaunchpad_flattened.sol\":15003:15008  owner */\n              dup2\n                /* \"StoryhuntTokenLaunchpad_flattened.sol\":15010:15017  spender */\n              dup6\n                /* \"StoryhuntTokenLaunchpad_flattened.sol\":15019:15024  value */\n              dup6\n                /* \"StoryhuntTokenLaunchpad_flattened.sol\":14994:15002  _approve */\n              tag_69\n                /* \"StoryhuntTokenLaunchpad_flattened.sol\":14994:15025  _approve(owner, spender, value) */\n              jump\t// in\n            tag_68:\n                /* \"StoryhuntTokenLaunchpad_flattened.sol\":15042:15046  true */\n              0x01\n                /* \"StoryhuntTokenLaunchpad_flattened.sol\":15035:15046  return true */\n              swap2\n              pop\n              pop\n                /* \"StoryhuntTokenLaunchpad_flattened.sol\":14867:15053  function approve(address spender, uint256 value) public virtual returns (bool) {... */\n              swap3\n              swap2\n              pop\n              pop\n              jump\t// out\n                /* \"StoryhuntTokenLaunchpad_flattened.sol\":13718:13815  function totalSupply() public view virtual returns (uint256) {... */\n            tag_25:\n                /* \"StoryhuntTokenLaunchpad_flattened.sol\":13770:13777  uint256 */\n              0x00\n                /* \"StoryhuntTokenLaunchpad_flattened.sol\":13796:13808  _totalSupply */\n              sload(0x02)\n                /* \"StoryhuntTokenLaunchpad_flattened.sol\":13789:13808  return _totalSupply */\n              swap1\n              pop\n                /* \"StoryhuntTokenLaunchpad_flattened.sol\":13718:13815  function totalSupply() public view virtual returns (uint256) {... */\n              swap1\n              jump\t// out\n                /* \"StoryhuntTokenLaunchpad_flattened.sol\":15645:15889  function transferFrom(address from, address to, uint256 value) public virtual returns (bool) {... */\n            tag_31:\n                /* \"StoryhuntTokenLaunchpad_flattened.sol\":15732:15736  bool */\n              0x00\n                /* \"StoryhuntTokenLaunchpad_flattened.sol\":15748:15763  address spender */\n              dup1\n                /* \"StoryhuntTokenLaunchpad_flattened.sol\":15766:15778  _msgSender() */\n              tag_72\n                /* \"StoryhuntTokenLaunchpad_flattened.sol\":15766:15776  _msgSender */\n              tag_67\n                /* \"StoryhuntTokenLaunchpad_flattened.sol\":15766:15778  _msgSender() */\n              jump\t// in\n            tag_72:\n                /* \"StoryhuntTokenLaunchpad_flattened.sol\":15748:15778  address spender = _msgSender() */\n              swap1\n              pop\n                /* \"StoryhuntTokenLaunchpad_flattened.sol\":15788:15825  _spendAllowance(from, spender, value) */\n              tag_73\n                /* \"StoryhuntTokenLaunchpad_flattened.sol\":15804:15808  from */\n              dup6\n                /* \"StoryhuntTokenLaunchpad_flattened.sol\":15810:15817  spender */\n              dup3\n                /* \"StoryhuntTokenLaunchpad_flattened.sol\":15819:15824  value */\n              dup6\n                /* \"StoryhuntTokenLaunchpad_flattened.sol\":15788:15803  _spendAllowance */\n              tag_74\n                /* \"StoryhuntTokenLaunchpad_flattened.sol\":15788:15825  _spendAllowance(from, spender, value) */\n              jump\t// in\n            tag_73:\n                /* \"StoryhuntTokenLaunchpad_flattened.sol\":15835:15861  _transfer(from, to, value) */\n              tag_75\n                /* \"StoryhuntTokenLaunchpad_flattened.sol\":15845:15849  from */\n              dup6\n                /* \"StoryhuntTokenLaunchpad_flattened.sol\":15851:15853  to */\n              dup6\n                /* \"StoryhuntTokenLaunchpad_flattened.sol\":15855:15860  value */\n              dup6\n                /* \"StoryhuntTokenLaunchpad_flattened.sol\":15835:15844  _transfer */\n              tag_76\n                /* \"StoryhuntTokenLaunchpad_flattened.sol\":15835:15861  _transfer(from, to, value) */\n              jump\t// in\n            tag_75:\n                /* \"StoryhuntTokenLaunchpad_flattened.sol\":15878:15882  true */\n              0x01\n                /* \"StoryhuntTokenLaunchpad_flattened.sol\":15871:15882  return true */\n              swap2\n              pop\n              pop\n                /* \"StoryhuntTokenLaunchpad_flattened.sol\":15645:15889  function transferFrom(address from, address to, uint256 value) public virtual returns (bool) {... */\n              swap4\n              swap3\n              pop\n              pop\n              pop\n              jump\t// out\n                /* \"StoryhuntTokenLaunchpad_flattened.sol\":13576:13658  function decimals() public view virtual returns (uint8) {... */\n            tag_34:\n                /* \"StoryhuntTokenLaunchpad_flattened.sol\":13625:13630  uint8 */\n              0x00\n                /* \"StoryhuntTokenLaunchpad_flattened.sol\":13649:13651  18 */\n              0x12\n                /* \"StoryhuntTokenLaunchpad_flattened.sol\":13642:13651  return 18 */\n              swap1\n              pop\n                /* \"StoryhuntTokenLaunchpad_flattened.sol\":13576:13658  function decimals() public view virtual returns (uint8) {... */\n              swap1\n              jump\t// out\n                /* \"StoryhuntTokenLaunchpad_flattened.sol\":13873:13989  function balanceOf(address account) public view virtual returns (uint256) {... */\n            tag_40:\n                /* \"StoryhuntTokenLaunchpad_flattened.sol\":13938:13945  uint256 */\n              0x00\n                /* \"StoryhuntTokenLaunchpad_flattened.sol\":13964:13973  _balances */\n              dup1\n                /* \"StoryhuntTokenLaunchpad_flattened.sol\":13964:13982  _balances[account] */\n              0x00\n                /* \"StoryhuntTokenLaunchpad_flattened.sol\":13974:13981  account */\n              dup4\n                /* \"StoryhuntTokenLaunchpad_flattened.sol\":13964:13982  _balances[account] */\n              0xffffffffffffffffffffffffffffffffffffffff\n              and\n              0xffffffffffffffffffffffffffffffffffffffff\n              and\n              dup2\n              mstore\n              0x20\n              add\n              swap1\n              dup2\n              mstore\n              0x20\n              add\n              0x00\n              keccak256\n              sload\n                /* \"StoryhuntTokenLaunchpad_flattened.sol\":13957:13982  return _balances[account] */\n              swap1\n              pop\n                /* \"StoryhuntTokenLaunchpad_flattened.sol\":13873:13989  function balanceOf(address account) public view virtual returns (uint256) {... */\n              swap2\n              swap1\n              pop\n              jump\t// out\n                /* \"StoryhuntTokenLaunchpad_flattened.sol\":22542:22562  address public owner */\n            tag_43:\n              0x05\n              0x00\n              swap1\n              sload\n              swap1\n              0x0100\n              exp\n              swap1\n              div\n              0xffffffffffffffffffffffffffffffffffffffff\n              and\n              dup2\n              jump\t// out\n                /* \"StoryhuntTokenLaunchpad_flattened.sol\":12850:12943  function symbol() public view virtual returns (string memory) {... */\n            tag_47:\n                /* \"StoryhuntTokenLaunchpad_flattened.sol\":12897:12910  string memory */\n              0x60\n                /* \"StoryhuntTokenLaunchpad_flattened.sol\":12929:12936  _symbol */\n              0x04\n                /* \"StoryhuntTokenLaunchpad_flattened.sol\":12922:12936  return _symbol */\n              dup1\n              sload\n              tag_80\n              swap1\n              tag_60\n              jump\t// in\n            tag_80:\n              dup1\n              0x1f\n              add\n              0x20\n              dup1\n              swap2\n              div\n              mul\n              0x20\n              add\n              mload(0x40)\n              swap1\n              dup2\n              add\n              0x40\n              mstore\n              dup1\n              swap3\n              swap2\n              swap1\n              dup2\n              dup2\n              mstore\n              0x20\n              add\n              dup3\n              dup1\n              sload\n              tag_81\n              swap1\n              tag_60\n              jump\t// in\n            tag_81:\n              dup1\n              iszero\n              tag_82\n              jumpi\n              dup1\n              0x1f\n              lt\n              tag_83\n              jumpi\n              0x0100\n              dup1\n              dup4\n              sload\n              div\n              mul\n              dup4\n              mstore\n              swap2\n              0x20\n              add\n              swap2\n              jump(tag_82)\n            tag_83:\n              dup3\n              add\n              swap2\n              swap1\n              0x00\n              mstore\n              keccak256(0x00, 0x20)\n              swap1\n            tag_84:\n              dup2\n              sload\n              dup2\n              mstore\n              swap1\n              0x01\n              add\n              swap1\n              0x20\n              add\n              dup1\n              dup4\n              gt\n              tag_84\n              jumpi\n              dup3\n              swap1\n              sub\n              0x1f\n              and\n              dup3\n              add\n              swap2\n            tag_82:\n              pop\n              pop\n              pop\n              pop\n              pop\n              swap1\n              pop\n                /* \"StoryhuntTokenLaunchpad_flattened.sol\":12850:12943  function symbol() public view virtual returns (string memory) {... */\n              swap1\n              jump\t// out\n                /* \"StoryhuntTokenLaunchpad_flattened.sol\":14184:14362  function transfer(address to, uint256 value) public virtual returns (bool) {... */\n            tag_51:\n                /* \"StoryhuntTokenLaunchpad_flattened.sol\":14253:14257  bool */\n              0x00\n                /* \"StoryhuntTokenLaunchpad_flattened.sol\":14269:14282  address owner */\n              dup1\n                /* \"StoryhuntTokenLaunchpad_flattened.sol\":14285:14297  _msgSender() */\n              tag_86\n                /* \"StoryhuntTokenLaunchpad_flattened.sol\":14285:14295  _msgSender */\n              tag_67\n                /* \"StoryhuntTokenLaunchpad_flattened.sol\":14285:14297  _msgSender() */\n              jump\t// in\n            tag_86:\n                /* \"StoryhuntTokenLaunchpad_flattened.sol\":14269:14297  address owner = _msgSender() */\n              swap1\n              pop\n                /* \"StoryhuntTokenLaunchpad_flattened.sol\":14307:14334  _transfer(owner, to, value) */\n              tag_87\n                /* \"StoryhuntTokenLaunchpad_flattened.sol\":14317:14322  owner */\n              dup2\n                /* \"StoryhuntTokenLaunchpad_flattened.sol\":14324:14326  to */\n              dup6\n                /* \"StoryhuntTokenLaunchpad_flattened.sol\":14328:14333  value */\n              dup6\n                /* \"StoryhuntTokenLaunchpad_flattened.sol\":14307:14316  _transfer */\n              tag_76\n                /* \"StoryhuntTokenLaunchpad_flattened.sol\":14307:14334  _transfer(owner, to, value) */\n              jump\t// in\n            tag_87:\n                /* \"StoryhuntTokenLaunchpad_flattened.sol\":14351:14355  true */\n              0x01\n                /* \"StoryhuntTokenLaunchpad_flattened.sol\":14344:14355  return true */\n              swap2\n              pop\n              pop\n                /* \"StoryhuntTokenLaunchpad_flattened.sol\":14184:14362  function transfer(address to, uint256 value) public virtual returns (bool) {... */\n              swap3\n              swap2\n              pop\n              pop\n              jump\t// out\n                /* \"StoryhuntTokenLaunchpad_flattened.sol\":14420:14560  function allowance(address owner, address spender) public view virtual returns (uint256) {... */\n            tag_56:\n                /* \"StoryhuntTokenLaunchpad_flattened.sol\":14500:14507  uint256 */\n              0x00\n                /* \"StoryhuntTokenLaunchpad_flattened.sol\":14526:14537  _allowances */\n              0x01\n                /* \"StoryhuntTokenLaunchpad_flattened.sol\":14526:14544  _allowances[owner] */\n              0x00\n                /* \"StoryhuntTokenLaunchpad_flattened.sol\":14538:14543  owner */\n              dup5\n                /* \"StoryhuntTokenLaunchpad_flattened.sol\":14526:14544  _allowances[owner] */\n              0xffffffffffffffffffffffffffffffffffffffff\n              and\n              0xffffffffffffffffffffffffffffffffffffffff\n              and\n              dup2\n              mstore\n              0x20\n              add\n              swap1\n              dup2\n              mstore\n              0x20\n              add\n              0x00\n              keccak256\n                /* \"StoryhuntTokenLaunchpad_flattened.sol\":14526:14553  _allowances[owner][spender] */\n              0x00\n                /* \"StoryhuntTokenLaunchpad_flattened.sol\":14545:14552  spender */\n              dup4\n                /* \"StoryhuntTokenLaunchpad_flattened.sol\":14526:14553  _allowances[owner][spender] */\n              0xffffffffffffffffffffffffffffffffffffffff\n              and\n              0xffffffffffffffffffffffffffffffffffffffff\n              and\n              dup2\n              mstore\n              0x20\n              add\n              swap1\n              dup2\n              mstore\n              0x20\n              add\n              0x00\n              keccak256\n              sload\n                /* \"StoryhuntTokenLaunchpad_flattened.sol\":14519:14553  return _allowances[owner][spender] */\n              swap1\n              pop\n                /* \"StoryhuntTokenLaunchpad_flattened.sol\":14420:14560  function allowance(address owner, address spender) public view virtual returns (uint256) {... */\n              swap3\n              swap2\n              pop\n              pop\n              jump\t// out\n                /* \"StoryhuntTokenLaunchpad_flattened.sol\":4177:4273  function _msgSender() internal view virtual returns (address) {... */\n            tag_67:\n                /* \"StoryhuntTokenLaunchpad_flattened.sol\":4230:4237  address */\n              0x00\n                /* \"StoryhuntTokenLaunchpad_flattened.sol\":4256:4266  msg.sender */\n              caller\n                /* \"StoryhuntTokenLaunchpad_flattened.sol\":4249:4266  return msg.sender */\n              swap1\n              pop\n                /* \"StoryhuntTokenLaunchpad_flattened.sol\":4177:4273  function _msgSender() internal view virtual returns (address) {... */\n              swap1\n              jump\t// out\n                /* \"StoryhuntTokenLaunchpad_flattened.sol\":19595:19723  function _approve(address owner, address spender, uint256 value) internal {... */\n            tag_69:\n                /* \"StoryhuntTokenLaunchpad_flattened.sol\":19679:19716  _approve(owner, spender, value, true) */\n              tag_91\n                /* \"StoryhuntTokenLaunchpad_flattened.sol\":19688:19693  owner */\n              dup4\n                /* \"StoryhuntTokenLaunchpad_flattened.sol\":19695:19702  spender */\n              dup4\n                /* \"StoryhuntTokenLaunchpad_flattened.sol\":19704:19709  value */\n              dup4\n                /* \"StoryhuntTokenLaunchpad_flattened.sol\":19711:19715  true */\n              0x01\n                /* \"StoryhuntTokenLaunchpad_flattened.sol\":19679:19687  _approve */\n              tag_92\n                /* \"StoryhuntTokenLaunchpad_flattened.sol\":19679:19716  _approve(owner, spender, value, true) */\n              jump\t// in\n            tag_91:\n                /* \"StoryhuntTokenLaunchpad_flattened.sol\":19595:19723  function _approve(address owner, address spender, uint256 value) internal {... */\n              pop\n              pop\n              pop\n              jump\t// out\n                /* \"StoryhuntTokenLaunchpad_flattened.sol\":21284:21761  function _spendAllowance(address owner, address spender, uint256 value) internal virtual {... */\n            tag_74:\n                /* \"StoryhuntTokenLaunchpad_flattened.sol\":21383:21407  uint256 currentAllowance */\n              0x00\n                /* \"StoryhuntTokenLaunchpad_flattened.sol\":21410:21435  allowance(owner, spender) */\n              tag_94\n                /* \"StoryhuntTokenLaunchpad_flattened.sol\":21420:21425  owner */\n              dup5\n                /* \"StoryhuntTokenLaunchpad_flattened.sol\":21427:21434  spender */\n              dup5\n                /* \"StoryhuntTokenLaunchpad_flattened.sol\":21410:21419  allowance */\n              tag_56\n                /* \"StoryhuntTokenLaunchpad_flattened.sol\":21410:21435  allowance(owner, spender) */\n              jump\t// in\n            tag_94:\n                /* \"StoryhuntTokenLaunchpad_flattened.sol\":21383:21435  uint256 currentAllowance = allowance(owner, spender) */\n              swap1\n              pop\n                /* \"StoryhuntTokenLaunchpad_flattened.sol\":21469:21486  type(uint256).max */\n              0xffffffffffffffffffffffffffffffffffffffffffffffffffffffffffffffff\n                /* \"StoryhuntTokenLaunchpad_flattened.sol\":21449:21465  currentAllowance */\n              dup2\n                /* \"StoryhuntTokenLaunchpad_flattened.sol\":21449:21486  currentAllowance != type(uint256).max */\n              eq\n                /* \"StoryhuntTokenLaunchpad_flattened.sol\":21445:21755  if (currentAllowance != type(uint256).max) {... */\n              tag_95\n              jumpi\n                /* \"StoryhuntTokenLaunchpad_flattened.sol\":21525:21530  value */\n              dup2\n                /* \"StoryhuntTokenLaunchpad_flattened.sol\":21506:21522  currentAllowance */\n              dup2\n                /* \"StoryhuntTokenLaunchpad_flattened.sol\":21506:21530  currentAllowance < value */\n              lt\n                /* \"StoryhuntTokenLaunchpad_flattened.sol\":21502:21632  if (currentAllowance < value) {... */\n              iszero\n              tag_96\n              jumpi\n                /* \"StoryhuntTokenLaunchpad_flattened.sol\":21584:21591  spender */\n              dup3\n                /* \"StoryhuntTokenLaunchpad_flattened.sol\":21593:21609  currentAllowance */\n              dup2\n                /* \"StoryhuntTokenLaunchpad_flattened.sol\":21611:21616  value */\n              dup4\n                /* \"StoryhuntTokenLaunchpad_flattened.sol\":21557:21617  ERC20InsufficientAllowance(spender, currentAllowance, value) */\n              mload(0x40)\n              0xfb8f41b200000000000000000000000000000000000000000000000000000000\n              dup2\n              mstore\n              0x04\n              add\n              tag_97\n              swap4\n              swap3\n              swap2\n              swap1\n              tag_98\n              jump\t// in\n            tag_97:\n              mload(0x40)\n              dup1\n              swap2\n              sub\n              swap1\n              revert\n                /* \"StoryhuntTokenLaunchpad_flattened.sol\":21502:21632  if (currentAllowance < value) {... */\n            tag_96:\n                /* \"StoryhuntTokenLaunchpad_flattened.sol\":21673:21730  _approve(owner, spender, currentAllowance - value, false) */\n              tag_99\n                /* \"StoryhuntTokenLaunchpad_flattened.sol\":21682:21687  owner */\n              dup5\n                /* \"StoryhuntTokenLaunchpad_flattened.sol\":21689:21696  spender */\n              dup5\n                /* \"StoryhuntTokenLaunchpad_flattened.sol\":21717:21722  value */\n              dup5\n                /* \"StoryhuntTokenLaunchpad_flattened.sol\":21698:21714  currentAllowance */\n              dup5\n                /* \"StoryhuntTokenLaunchpad_flattened.sol\":21698:21722  currentAllowance - value */\n              sub\n                /* \"StoryhuntTokenLaunchpad_flattened.sol\":21724:21729  false */\n              0x00\n                /* \"StoryhuntTokenLaunchpad_flattened.sol\":21673:21681  _approve */\n              tag_92\n                /* \"StoryhuntTokenLaunchpad_flattened.sol\":21673:21730  _approve(owner, spender, currentAllowance - value, false) */\n              jump\t// in\n            tag_99:\n                /* \"StoryhuntTokenLaunchpad_flattened.sol\":21445:21755  if (currentAllowance != type(uint256).max) {... */\n            tag_95:\n                /* \"StoryhuntTokenLaunchpad_flattened.sol\":21373:21761  {... */\n              pop\n                /* \"StoryhuntTokenLaunchpad_flattened.sol\":21284:21761  function _spendAllowance(address owner, address spender, uint256 value) internal virtual {... */\n              pop\n              pop\n              pop\n              jump\t// out\n                /* \"StoryhuntTokenLaunchpad_flattened.sol\":16262:16562  function _transfer(address from, address to, uint256 value) internal {... */\n            tag_76:\n                /* \"StoryhuntTokenLaunchpad_flattened.sol\":16361:16362  0 */\n              0x00\n                /* \"StoryhuntTokenLaunchpad_flattened.sol\":16345:16363  from == address(0) */\n              0xffffffffffffffffffffffffffffffffffffffff\n              and\n                /* \"StoryhuntTokenLaunchpad_flattened.sol\":16345:16349  from */\n              dup4\n                /* \"StoryhuntTokenLaunchpad_flattened.sol\":16345:16363  from == address(0) */\n              0xffffffffffffffffffffffffffffffffffffffff\n              and\n              sub\n                /* \"StoryhuntTokenLaunchpad_flattened.sol\":16341:16427  if (from == address(0)) {... */\n              tag_101\n              jumpi\n                /* \"StoryhuntTokenLaunchpad_flattened.sol\":16413:16414  0 */\n              0x00\n                /* \"StoryhuntTokenLaunchpad_flattened.sol\":16386:16416  ERC20InvalidSender(address(0)) */\n              mload(0x40)\n              0x96c6fd1e00000000000000000000000000000000000000000000000000000000\n              dup2\n              mstore\n              0x04\n              add\n              tag_102\n              swap2\n              swap1\n              tag_45\n              jump\t// in\n            tag_102:\n              mload(0x40)\n              dup1\n              swap2\n              sub\n              swap1\n              revert\n                /* \"StoryhuntTokenLaunchpad_flattened.sol\":16341:16427  if (from == address(0)) {... */\n            tag_101:\n                /* \"StoryhuntTokenLaunchpad_flattened.sol\":16454:16455  0 */\n              0x00\n                /* \"StoryhuntTokenLaunchpad_flattened.sol\":16440:16456  to == address(0) */\n              0xffffffffffffffffffffffffffffffffffffffff\n              and\n                /* \"StoryhuntTokenLaunchpad_flattened.sol\":16440:16442  to */\n              dup3\n                /* \"StoryhuntTokenLaunchpad_flattened.sol\":16440:16456  to == address(0) */\n              0xffffffffffffffffffffffffffffffffffffffff\n              and\n              sub\n                /* \"StoryhuntTokenLaunchpad_flattened.sol\":16436:16522  if (to == address(0)) {... */\n              tag_103\n              jumpi\n                /* \"StoryhuntTokenLaunchpad_flattened.sol\":16508:16509  0 */\n              0x00\n                /* \"StoryhuntTokenLaunchpad_flattened.sol\":16479:16511  ERC20InvalidReceiver(address(0)) */\n              mload(0x40)\n              0xec442f0500000000000000000000000000000000000000000000000000000000\n              dup2\n              mstore\n              0x04\n              add\n              tag_104\n              swap2\n              swap1\n              tag_45\n              jump\t// in\n            tag_104:\n              mload(0x40)\n              dup1\n              swap2\n              sub\n              swap1\n              revert\n                /* \"StoryhuntTokenLaunchpad_flattened.sol\":16436:16522  if (to == address(0)) {... */\n            tag_103:\n                /* \"StoryhuntTokenLaunchpad_flattened.sol\":16531:16555  _update(from, to, value) */\n              tag_105\n                /* \"StoryhuntTokenLaunchpad_flattened.sol\":16539:16543  from */\n              dup4\n                /* \"StoryhuntTokenLaunchpad_flattened.sol\":16545:16547  to */\n              dup4\n                /* \"StoryhuntTokenLaunchpad_flattened.sol\":16549:16554  value */\n              dup4\n                /* \"StoryhuntTokenLaunchpad_flattened.sol\":16531:16538  _update */\n              tag_106\n                /* \"StoryhuntTokenLaunchpad_flattened.sol\":16531:16555  _update(from, to, value) */\n              jump\t// in\n            tag_105:\n                /* \"StoryhuntTokenLaunchpad_flattened.sol\":16262:16562  function _transfer(address from, address to, uint256 value) internal {... */\n              pop\n              pop\n              pop\n              jump\t// out\n                /* \"StoryhuntTokenLaunchpad_flattened.sol\":20570:21002  function _approve(address owner, address spender, uint256 value, bool emitEvent) internal virtual {... */\n            tag_92:\n                /* \"StoryhuntTokenLaunchpad_flattened.sol\":20699:20700  0 */\n              0x00\n                /* \"StoryhuntTokenLaunchpad_flattened.sol\":20682:20701  owner == address(0) */\n              0xffffffffffffffffffffffffffffffffffffffff\n              and\n                /* \"StoryhuntTokenLaunchpad_flattened.sol\":20682:20687  owner */\n              dup5\n                /* \"StoryhuntTokenLaunchpad_flattened.sol\":20682:20701  owner == address(0) */\n              0xffffffffffffffffffffffffffffffffffffffff\n              and\n              sub\n                /* \"StoryhuntTokenLaunchpad_flattened.sol\":20678:20767  if (owner == address(0)) {... */\n              tag_108\n              jumpi\n                /* \"StoryhuntTokenLaunchpad_flattened.sol\":20753:20754  0 */\n              0x00\n                /* \"StoryhuntTokenLaunchpad_flattened.sol\":20724:20756  ERC20InvalidApprover(address(0)) */\n              mload(0x40)\n              0xe602df0500000000000000000000000000000000000000000000000000000000\n              dup2\n              mstore\n              0x04\n              add\n              tag_109\n              swap2\n              swap1\n              tag_45\n              jump\t// in\n            tag_109:\n              mload(0x40)\n              dup1\n              swap2\n              sub\n              swap1\n              revert\n                /* \"StoryhuntTokenLaunchpad_flattened.sol\":20678:20767  if (owner == address(0)) {... */\n            tag_108:\n                /* \"StoryhuntTokenLaunchpad_flattened.sol\":20799:20800  0 */\n              0x00\n                /* \"StoryhuntTokenLaunchpad_flattened.sol\":20780:20801  spender == address(0) */\n              0xffffffffffffffffffffffffffffffffffffffff\n              and\n                /* \"StoryhuntTokenLaunchpad_flattened.sol\":20780:20787  spender */\n              dup4\n                /* \"StoryhuntTokenLaunchpad_flattened.sol\":20780:20801  spender == address(0) */\n              0xffffffffffffffffffffffffffffffffffffffff\n              and\n              sub\n                /* \"StoryhuntTokenLaunchpad_flattened.sol\":20776:20866  if (spender == address(0)) {... */\n              tag_110\n              jumpi\n                /* \"StoryhuntTokenLaunchpad_flattened.sol\":20852:20853  0 */\n              0x00\n                /* \"StoryhuntTokenLaunchpad_flattened.sol\":20824:20855  ERC20InvalidSpender(address(0)) */\n              mload(0x40)\n              0x94280d6200000000000000000000000000000000000000000000000000000000\n              dup2\n              mstore\n              0x04\n              add\n              tag_111\n              swap2\n              swap1\n              tag_45\n              jump\t// in\n            tag_111:\n              mload(0x40)\n              dup1\n              swap2\n              sub\n              swap1\n              revert\n                /* \"StoryhuntTokenLaunchpad_flattened.sol\":20776:20866  if (spender == address(0)) {... */\n            tag_110:\n                /* \"StoryhuntTokenLaunchpad_flattened.sol\":20905:20910  value */\n              dup2\n                /* \"StoryhuntTokenLaunchpad_flattened.sol\":20875:20886  _allowances */\n              0x01\n                /* \"StoryhuntTokenLaunchpad_flattened.sol\":20875:20893  _allowances[owner] */\n              0x00\n                /* \"StoryhuntTokenLaunchpad_flattened.sol\":20887:20892  owner */\n              dup7\n                /* \"StoryhuntTokenLaunchpad_flattened.sol\":20875:20893  _allowances[owner] */\n              0xffffffffffffffffffffffffffffffffffffffff\n              and\n              0xffffffffffffffffffffffffffffffffffffffff\n              and\n              dup2\n              mstore\n              0x20\n              add\n              swap1\n              dup2\n              mstore\n              0x20\n              add\n              0x00\n              keccak256\n                /* \"StoryhuntTokenLaunchpad_flattened.sol\":20875:20902  _allowances[owner][spender] */\n              0x00\n                /* \"StoryhuntTokenLaunchpad_flattened.sol\":20894:20901  spender */\n              dup6\n                /* \"StoryhuntTokenLaunchpad_flattened.sol\":20875:20902  _allowances[owner][spender] */\n              0xffffffffffffffffffffffffffffffffffffffff\n              and\n              0xffffffffffffffffffffffffffffffffffffffff\n              and\n              dup2\n              mstore\n              0x20\n              add\n              swap1\n              dup2\n              mstore\n              0x20\n              add\n              0x00\n              keccak256\n                /* \"StoryhuntTokenLaunchpad_flattened.sol\":20875:20910  _allowances[owner][spender] = value */\n              dup2\n              swap1\n              sstore\n              pop\n                /* \"StoryhuntTokenLaunchpad_flattened.sol\":20924:20933  emitEvent */\n              dup1\n                /* \"StoryhuntTokenLaunchpad_flattened.sol\":20920:20996  if (emitEvent) {... */\n              iszero\n              tag_112\n              jumpi\n                /* \"StoryhuntTokenLaunchpad_flattened.sol\":20970:20977  spender */\n              dup3\n                /* \"StoryhuntTokenLaunchpad_flattened.sol\":20954:20985  Approval(owner, spender, value) */\n              0xffffffffffffffffffffffffffffffffffffffff\n              and\n                /* \"StoryhuntTokenLaunchpad_flattened.sol\":20963:20968  owner */\n              dup5\n                /* \"StoryhuntTokenLaunchpad_flattened.sol\":20954:20985  Approval(owner, spender, value) */\n              0xffffffffffffffffffffffffffffffffffffffff\n              and\n              0x8c5be1e5ebec7d5bd14f71427d1e84f3dd0314c0f7b2291e5b200ac8c7c3b925\n                /* \"StoryhuntTokenLaunchpad_flattened.sol\":20979:20984  value */\n              dup5\n                /* \"StoryhuntTokenLaunchpad_flattened.sol\":20954:20985  Approval(owner, spender, value) */\n              mload(0x40)\n              tag_113\n              swap2\n              swap1\n              tag_27\n              jump\t// in\n            tag_113:\n              mload(0x40)\n              dup1\n              swap2\n              sub\n              swap1\n              log3\n                /* \"StoryhuntTokenLaunchpad_flattened.sol\":20920:20996  if (emitEvent) {... */\n            tag_112:\n                /* \"StoryhuntTokenLaunchpad_flattened.sol\":20570:21002  function _approve(address owner, address spender, uint256 value, bool emitEvent) internal virtual {... */\n              pop\n              pop\n              pop\n              pop\n              jump\t// out\n                /* \"StoryhuntTokenLaunchpad_flattened.sol\":16877:17984  function _update(address from, address to, uint256 value) internal virtual {... */\n            tag_106:\n                /* \"StoryhuntTokenLaunchpad_flattened.sol\":16982:16983  0 */\n              0x00\n                /* \"StoryhuntTokenLaunchpad_flattened.sol\":16966:16984  from == address(0) */\n              0xffffffffffffffffffffffffffffffffffffffff\n              and\n                /* \"StoryhuntTokenLaunchpad_flattened.sol\":16966:16970  from */\n              dup4\n                /* \"StoryhuntTokenLaunchpad_flattened.sol\":16966:16984  from == address(0) */\n              0xffffffffffffffffffffffffffffffffffffffff\n              and\n              sub\n                /* \"StoryhuntTokenLaunchpad_flattened.sol\":16962:17502  if (from == address(0)) {... */\n              tag_115\n              jumpi\n                /* \"StoryhuntTokenLaunchpad_flattened.sol\":17118:17123  value */\n              dup1\n                /* \"StoryhuntTokenLaunchpad_flattened.sol\":17102:17114  _totalSupply */\n              0x02\n              0x00\n                /* \"StoryhuntTokenLaunchpad_flattened.sol\":17102:17123  _totalSupply += value */\n              dup3\n              dup3\n              sload\n              tag_116\n              swap2\n              swap1\n              tag_117\n              jump\t// in\n            tag_116:\n              swap3\n              pop\n              pop\n              dup2\n              swap1\n              sstore\n              pop\n                /* \"StoryhuntTokenLaunchpad_flattened.sol\":16962:17502  if (from == address(0)) {... */\n              jump(tag_118)\n            tag_115:\n                /* \"StoryhuntTokenLaunchpad_flattened.sol\":17154:17173  uint256 fromBalance */\n              0x00\n                /* \"StoryhuntTokenLaunchpad_flattened.sol\":17176:17185  _balances */\n              dup1\n                /* \"StoryhuntTokenLaunchpad_flattened.sol\":17176:17191  _balances[from] */\n              0x00\n                /* \"StoryhuntTokenLaunchpad_flattened.sol\":17186:17190  from */\n              dup6\n                /* \"StoryhuntTokenLaunchpad_flattened.sol\":17176:17191  _balances[from] */\n              0xffffffffffffffffffffffffffffffffffffffff\n              and\n              0xffffffffffffffffffffffffffffffffffffffff\n              and\n              dup2\n              mstore\n              0x20\n              add\n              swap1\n              dup2\n              mstore\n              0x20\n              add\n              0x00\n              keccak256\n              sload\n                /* \"StoryhuntTokenLaunchpad_flattened.sol\":17154:17191  uint256 fromBalance = _balances[from] */\n              swap1\n              pop\n                /* \"StoryhuntTokenLaunchpad_flattened.sol\":17223:17228  value */\n              dup2\n                /* \"StoryhuntTokenLaunchpad_flattened.sol\":17209:17220  fromBalance */\n              dup2\n                /* \"StoryhuntTokenLaunchpad_flattened.sol\":17209:17228  fromBalance < value */\n              lt\n                /* \"StoryhuntTokenLaunchpad_flattened.sol\":17205:17320  if (fromBalance < value) {... */\n              iszero\n              tag_119\n              jumpi\n                /* \"StoryhuntTokenLaunchpad_flattened.sol\":17280:17284  from */\n              dup4\n                /* \"StoryhuntTokenLaunchpad_flattened.sol\":17286:17297  fromBalance */\n              dup2\n                /* \"StoryhuntTokenLaunchpad_flattened.sol\":17299:17304  value */\n              dup4\n                /* \"StoryhuntTokenLaunchpad_flattened.sol\":17255:17305  ERC20InsufficientBalance(from, fromBalance, value) */\n              mload(0x40)\n              0xe450d38c00000000000000000000000000000000000000000000000000000000\n              dup2\n              mstore\n              0x04\n              add\n              tag_120\n              swap4\n              swap3\n              swap2\n              swap1\n              tag_98\n              jump\t// in\n            tag_120:\n              mload(0x40)\n              dup1\n              swap2\n              sub\n              swap1\n              revert\n                /* \"StoryhuntTokenLaunchpad_flattened.sol\":17205:17320  if (fromBalance < value) {... */\n            tag_119:\n                /* \"StoryhuntTokenLaunchpad_flattened.sol\":17472:17477  value */\n              dup2\n                /* \"StoryhuntTokenLaunchpad_flattened.sol\":17458:17469  fromBalance */\n              dup2\n                /* \"StoryhuntTokenLaunchpad_flattened.sol\":17458:17477  fromBalance - value */\n              sub\n                /* \"StoryhuntTokenLaunchpad_flattened.sol\":17440:17449  _balances */\n              0x00\n                /* \"StoryhuntTokenLaunchpad_flattened.sol\":17440:17455  _balances[from] */\n              dup1\n                /* \"StoryhuntTokenLaunchpad_flattened.sol\":17450:17454  from */\n              dup7\n                /* \"StoryhuntTokenLaunchpad_flattened.sol\":17440:17455  _balances[from] */\n              0xffffffffffffffffffffffffffffffffffffffff\n              and\n              0xffffffffffffffffffffffffffffffffffffffff\n              and\n              dup2\n              mstore\n              0x20\n              add\n              swap1\n              dup2\n              mstore\n              0x20\n              add\n              0x00\n              keccak256\n                /* \"StoryhuntTokenLaunchpad_flattened.sol\":17440:17477  _balances[from] = fromBalance - value */\n              dup2\n              swap1\n              sstore\n              pop\n                /* \"StoryhuntTokenLaunchpad_flattened.sol\":17140:17502  {... */\n              pop\n                /* \"StoryhuntTokenLaunchpad_flattened.sol\":16962:17502  if (from == address(0)) {... */\n            tag_118:\n                /* \"StoryhuntTokenLaunchpad_flattened.sol\":17530:17531  0 */\n              0x00\n                /* \"StoryhuntTokenLaunchpad_flattened.sol\":17516:17532  to == address(0) */\n              0xffffffffffffffffffffffffffffffffffffffff\n              and\n                /* \"StoryhuntTokenLaunchpad_flattened.sol\":17516:17518  to */\n              dup3\n                /* \"StoryhuntTokenLaunchpad_flattened.sol\":17516:17532  to == address(0) */\n              0xffffffffffffffffffffffffffffffffffffffff\n              and\n              sub\n                /* \"StoryhuntTokenLaunchpad_flattened.sol\":17512:17937  if (to == address(0)) {... */\n              tag_121\n              jumpi\n                /* \"StoryhuntTokenLaunchpad_flattened.sol\":17695:17700  value */\n              dup1\n                /* \"StoryhuntTokenLaunchpad_flattened.sol\":17679:17691  _totalSupply */\n              0x02\n              0x00\n                /* \"StoryhuntTokenLaunchpad_flattened.sol\":17679:17700  _totalSupply -= value */\n              dup3\n              dup3\n              sload\n              sub\n              swap3\n              pop\n              pop\n              dup2\n              swap1\n              sstore\n              pop\n                /* \"StoryhuntTokenLaunchpad_flattened.sol\":17512:17937  if (to == address(0)) {... */\n              jump(tag_122)\n            tag_121:\n                /* \"StoryhuntTokenLaunchpad_flattened.sol\":17907:17912  value */\n              dup1\n                /* \"StoryhuntTokenLaunchpad_flattened.sol\":17890:17899  _balances */\n              0x00\n                /* \"StoryhuntTokenLaunchpad_flattened.sol\":17890:17903  _balances[to] */\n              dup1\n                /* \"StoryhuntTokenLaunchpad_flattened.sol\":17900:17902  to */\n              dup5\n                /* \"StoryhuntTokenLaunchpad_flattened.sol\":17890:17903  _balances[to] */\n              0xffffffffffffffffffffffffffffffffffffffff\n              and\n              0xffffffffffffffffffffffffffffffffffffffff\n              and\n              dup2\n              mstore\n              0x20\n              add\n              swap1\n              dup2\n              mstore\n              0x20\n              add\n              0x00\n              keccak256\n              0x00\n                /* \"StoryhuntTokenLaunchpad_flattened.sol\":17890:17912  _balances[to] += value */\n              dup3\n              dup3\n              sload\n              add\n              swap3\n              pop\n              pop\n              dup2\n              swap1\n              sstore\n              pop\n                /* \"StoryhuntTokenLaunchpad_flattened.sol\":17512:17937  if (to == address(0)) {... */\n            tag_122:\n                /* \"StoryhuntTokenLaunchpad_flattened.sol\":17967:17969  to */\n              dup2\n                /* \"StoryhuntTokenLaunchpad_flattened.sol\":17952:17977  Transfer(from, to, value) */\n              0xffffffffffffffffffffffffffffffffffffffff\n              and\n                /* \"StoryhuntTokenLaunchpad_flattened.sol\":17961:17965  from */\n              dup4\n                /* \"StoryhuntTokenLaunchpad_flattened.sol\":17952:17977  Transfer(from, to, value) */\n              0xffffffffffffffffffffffffffffffffffffffff\n              and\n              0xddf252ad1be2c89b69c2b068fc378daa952ba7f163c4a11628f55a4df523b3ef\n                /* \"StoryhuntTokenLaunchpad_flattened.sol\":17971:17976  value */\n              dup4\n                /* \"StoryhuntTokenLaunchpad_flattened.sol\":17952:17977  Transfer(from, to, value) */\n              mload(0x40)\n              tag_123\n              swap2\n              swap1\n              tag_27\n              jump\t// in\n            tag_123:\n              mload(0x40)\n              dup1\n              swap2\n              sub\n              swap1\n              log3\n                /* \"StoryhuntTokenLaunchpad_flattened.sol\":16877:17984  function _update(address from, address to, uint256 value) internal virtual {... */\n              pop\n              pop\n              pop\n              jump\t// out\n                /* \"#utility.yul\":7:106   */\n            tag_124:\n                /* \"#utility.yul\":59:65   */\n              0x00\n                /* \"#utility.yul\":93:98   */\n              dup2\n                /* \"#utility.yul\":87:99   */\n              mload\n                /* \"#utility.yul\":77:99   */\n              swap1\n              pop\n                /* \"#utility.yul\":7:106   */\n              swap2\n              swap1\n              pop\n              jump\t// out\n                /* \"#utility.yul\":112:281   */\n            tag_125:\n                /* \"#utility.yul\":196:207   */\n              0x00\n                /* \"#utility.yul\":230:236   */\n              dup3\n                /* \"#utility.yul\":225:228   */\n              dup3\n                /* \"#utility.yul\":218:237   */\n              mstore\n                /* \"#utility.yul\":270:274   */\n              0x20\n                /* \"#utility.yul\":265:268   */\n              dup3\n                /* \"#utility.yul\":261:275   */\n              add\n                /* \"#utility.yul\":246:275   */\n              swap1\n              pop\n                /* \"#utility.yul\":112:281   */\n              swap3\n              swap2\n              pop\n              pop\n              jump\t// out\n                /* \"#utility.yul\":287:426   */\n            tag_126:\n                /* \"#utility.yul\":376:382   */\n              dup3\n                /* \"#utility.yul\":371:374   */\n              dup2\n                /* \"#utility.yul\":366:369   */\n              dup4\n                /* \"#utility.yul\":360:383   */\n              mcopy\n                /* \"#utility.yul\":417:418   */\n              0x00\n                /* \"#utility.yul\":408:414   */\n              dup4\n                /* \"#utility.yul\":403:406   */\n              dup4\n                /* \"#utility.yul\":399:415   */\n              add\n                /* \"#utility.yul\":392:419   */\n              mstore\n                /* \"#utility.yul\":287:426   */\n              pop\n              pop\n              pop\n              jump\t// out\n                /* \"#utility.yul\":432:534   */\n            tag_127:\n                /* \"#utility.yul\":473:479   */\n              0x00\n                /* \"#utility.yul\":524:526   */\n              0x1f\n                /* \"#utility.yul\":520:527   */\n              not\n                /* \"#utility.yul\":515:517   */\n              0x1f\n                /* \"#utility.yul\":508:513   */\n              dup4\n                /* \"#utility.yul\":504:518   */\n              add\n                /* \"#utility.yul\":500:528   */\n              and\n                /* \"#utility.yul\":490:528   */\n              swap1\n              pop\n                /* \"#utility.yul\":432:534   */\n              swap2\n              swap1\n              pop\n              jump\t// out\n                /* \"#utility.yul\":540:917   */\n            tag_128:\n                /* \"#utility.yul\":628:631   */\n              0x00\n                /* \"#utility.yul\":656:695   */\n              tag_153\n                /* \"#utility.yul\":689:694   */\n              dup3\n                /* \"#utility.yul\":656:695   */\n              tag_124\n              jump\t// in\n            tag_153:\n                /* \"#utility.yul\":711:782   */\n              tag_154\n                /* \"#utility.yul\":775:781   */\n              dup2\n                /* \"#utility.yul\":770:773   */\n              dup6\n                /* \"#utility.yul\":711:782   */\n              tag_125\n              jump\t// in\n            tag_154:\n                /* \"#utility.yul\":704:782   */\n              swap4\n              pop\n                /* \"#utility.yul\":791:856   */\n              tag_155\n                /* \"#utility.yul\":849:855   */\n              dup2\n                /* \"#utility.yul\":844:847   */\n              dup6\n                /* \"#utility.yul\":837:841   */\n              0x20\n                /* \"#utility.yul\":830:835   */\n              dup7\n                /* \"#utility.yul\":826:842   */\n              add\n                /* \"#utility.yul\":791:856   */\n              tag_126\n              jump\t// in\n            tag_155:\n                /* \"#utility.yul\":881:910   */\n              tag_156\n                /* \"#utility.yul\":903:909   */\n              dup2\n                /* \"#utility.yul\":881:910   */\n              tag_127\n              jump\t// in\n            tag_156:\n                /* \"#utility.yul\":876:879   */\n              dup5\n                /* \"#utility.yul\":872:911   */\n              add\n                /* \"#utility.yul\":865:911   */\n              swap2\n              pop\n                /* \"#utility.yul\":632:917   */\n              pop\n                /* \"#utility.yul\":540:917   */\n              swap3\n              swap2\n              pop\n              pop\n              jump\t// out\n                /* \"#utility.yul\":923:1236   */\n            tag_17:\n                /* \"#utility.yul\":1036:1040   */\n              0x00\n                /* \"#utility.yul\":1074:1076   */\n              0x20\n                /* \"#utility.yul\":1063:1072   */\n              dup3\n                /* \"#utility.yul\":1059:1077   */\n              add\n                /* \"#utility.yul\":1051:1077   */\n              swap1\n              pop\n                /* \"#utility.yul\":1123:1132   */\n              dup2\n                /* \"#utility.yul\":1117:1121   */\n              dup2\n                /* \"#utility.yul\":1113:1133   */\n              sub\n                /* \"#utility.yul\":1109:1110   */\n              0x00\n                /* \"#utility.yul\":1098:1107   */\n              dup4\n                /* \"#utility.yul\":1094:1111   */\n              add\n                /* \"#utility.yul\":1087:1134   */\n              mstore\n                /* \"#utility.yul\":1151:1229   */\n              tag_158\n                /* \"#utility.yul\":1224:1228   */\n              dup2\n                /* \"#utility.yul\":1215:1221   */\n              dup5\n                /* \"#utility.yul\":1151:1229   */\n              tag_128\n              jump\t// in\n            tag_158:\n                /* \"#utility.yul\":1143:1229   */\n              swap1\n              pop\n                /* \"#utility.yul\":923:1236   */\n              swap3\n              swap2\n              pop\n              pop\n              jump\t// out\n                /* \"#utility.yul\":1323:1440   */\n            tag_130:\n                /* \"#utility.yul\":1432:1433   */\n              0x00\n                /* \"#utility.yul\":1429:1430   */\n              dup1\n                /* \"#utility.yul\":1422:1434   */\n              revert\n                /* \"#utility.yul\":1569:1695   */\n            tag_132:\n                /* \"#utility.yul\":1606:1613   */\n              0x00\n                /* \"#utility.yul\":1646:1688   */\n              0xffffffffffffffffffffffffffffffffffffffff\n                /* \"#utility.yul\":1639:1644   */\n              dup3\n                /* \"#utility.yul\":1635:1689   */\n              and\n                /* \"#utility.yul\":1624:1689   */\n              swap1\n              pop\n                /* \"#utility.yul\":1569:1695   */\n              swap2\n              swap1\n              pop\n              jump\t// out\n                /* \"#utility.yul\":1701:1797   */\n            tag_133:\n                /* \"#utility.yul\":1738:1745   */\n              0x00\n                /* \"#utility.yul\":1767:1791   */\n              tag_164\n                /* \"#utility.yul\":1785:1790   */\n              dup3\n                /* \"#utility.yul\":1767:1791   */\n              tag_132\n              jump\t// in\n            tag_164:\n                /* \"#utility.yul\":1756:1791   */\n              swap1\n              pop\n                /* \"#utility.yul\":1701:1797   */\n              swap2\n              swap1\n              pop\n              jump\t// out\n                /* \"#utility.yul\":1803:1925   */\n            tag_134:\n                /* \"#utility.yul\":1876:1900   */\n              tag_166\n                /* \"#utility.yul\":1894:1899   */\n              dup2\n                /* \"#utility.yul\":1876:1900   */\n              tag_133\n              jump\t// in\n            tag_166:\n                /* \"#utility.yul\":1869:1874   */\n              dup2\n                /* \"#utility.yul\":1866:1901   */\n              eq\n                /* \"#utility.yul\":1856:1919   */\n              tag_167\n              jumpi\n                /* \"#utility.yul\":1915:1916   */\n              0x00\n                /* \"#utility.yul\":1912:1913   */\n              dup1\n                /* \"#utility.yul\":1905:1917   */\n              revert\n                /* \"#utility.yul\":1856:1919   */\n            tag_167:\n                /* \"#utility.yul\":1803:1925   */\n              pop\n              jump\t// out\n                /* \"#utility.yul\":1931:2070   */\n            tag_135:\n                /* \"#utility.yul\":1977:1982   */\n              0x00\n                /* \"#utility.yul\":2015:2021   */\n              dup2\n                /* \"#utility.yul\":2002:2022   */\n              calldataload\n                /* \"#utility.yul\":1993:2022   */\n              swap1\n              pop\n                /* \"#utility.yul\":2031:2064   */\n              tag_169\n                /* \"#utility.yul\":2058:2063   */\n              dup2\n                /* \"#utility.yul\":2031:2064   */\n              tag_134\n              jump\t// in\n            tag_169:\n                /* \"#utility.yul\":1931:2070   */\n              swap3\n              swap2\n              pop\n              pop\n              jump\t// out\n                /* \"#utility.yul\":2076:2153   */\n            tag_136:\n                /* \"#utility.yul\":2113:2120   */\n              0x00\n                /* \"#utility.yul\":2142:2147   */\n              dup2\n                /* \"#utility.yul\":2131:2147   */\n              swap1\n              pop\n                /* \"#utility.yul\":2076:2153   */\n              swap2\n              swap1\n              pop\n              jump\t// out\n                /* \"#utility.yul\":2159:2281   */\n            tag_137:\n                /* \"#utility.yul\":2232:2256   */\n              tag_172\n                /* \"#utility.yul\":2250:2255   */\n              dup2\n                /* \"#utility.yul\":2232:2256   */\n              tag_136\n              jump\t// in\n            tag_172:\n                /* \"#utility.yul\":2225:2230   */\n              dup2\n                /* \"#utility.yul\":2222:2257   */\n              eq\n                /* \"#utility.yul\":2212:2275   */\n              tag_173\n              jumpi\n                /* \"#utility.yul\":2271:2272   */\n              0x00\n                /* \"#utility.yul\":2268:2269   */\n              dup1\n                /* \"#utility.yul\":2261:2273   */\n              revert\n                /* \"#utility.yul\":2212:2275   */\n            tag_173:\n                /* \"#utility.yul\":2159:2281   */\n              pop\n              jump\t// out\n                /* \"#utility.yul\":2287:2426   */\n            tag_138:\n                /* \"#utility.yul\":2333:2338   */\n              0x00\n                /* \"#utility.yul\":2371:2377   */\n              dup2\n                /* \"#utility.yul\":2358:2378   */\n              calldataload\n                /* \"#utility.yul\":2349:2378   */\n              swap1\n              pop\n                /* \"#utility.yul\":2387:2420   */\n              tag_175\n                /* \"#utility.yul\":2414:2419   */\n              dup2\n                /* \"#utility.yul\":2387:2420   */\n              tag_137\n              jump\t// in\n            tag_175:\n                /* \"#utility.yul\":2287:2426   */\n              swap3\n              swap2\n              pop\n              pop\n              jump\t// out\n                /* \"#utility.yul\":2432:2906   */\n            tag_20:\n                /* \"#utility.yul\":2500:2506   */\n              0x00\n                /* \"#utility.yul\":2508:2514   */\n              dup1\n                /* \"#utility.yul\":2557:2559   */\n              0x40\n                /* \"#utility.yul\":2545:2554   */\n              dup4\n                /* \"#utility.yul\":2536:2543   */\n              dup6\n                /* \"#utility.yul\":2532:2555   */\n              sub\n                /* \"#utility.yul\":2528:2560   */\n              slt\n                /* \"#utility.yul\":2525:2644   */\n              iszero\n              tag_177\n              jumpi\n                /* \"#utility.yul\":2563:2642   */\n              tag_178\n              tag_130\n              jump\t// in\n            tag_178:\n                /* \"#utility.yul\":2525:2644   */\n            tag_177:\n                /* \"#utility.yul\":2683:2684   */\n              0x00\n                /* \"#utility.yul\":2708:2761   */\n              tag_179\n                /* \"#utility.yul\":2753:2760   */\n              dup6\n                /* \"#utility.yul\":2744:2750   */\n              dup3\n                /* \"#utility.yul\":2733:2742   */\n              dup7\n                /* \"#utility.yul\":2729:2751   */\n              add\n                /* \"#utility.yul\":2708:2761   */\n              tag_135\n              jump\t// in\n            tag_179:\n                /* \"#utility.yul\":2698:2761   */\n              swap3\n              pop\n                /* \"#utility.yul\":2654:2771   */\n              pop\n                /* \"#utility.yul\":2810:2812   */\n              0x20\n                /* \"#utility.yul\":2836:2889   */\n              tag_180\n                /* \"#utility.yul\":2881:2888   */\n              dup6\n                /* \"#utility.yul\":2872:2878   */\n              dup3\n                /* \"#utility.yul\":2861:2870   */\n              dup7\n                /* \"#utility.yul\":2857:2879   */\n              add\n                /* \"#utility.yul\":2836:2889   */\n              tag_138\n              jump\t// in\n            tag_180:\n                /* \"#utility.yul\":2826:2889   */\n              swap2\n              pop\n                /* \"#utility.yul\":2781:2899   */\n              pop\n                /* \"#utility.yul\":2432:2906   */\n              swap3\n              pop\n              swap3\n              swap1\n              pop\n              jump\t// out\n                /* \"#utility.yul\":2912:3002   */\n            tag_139:\n                /* \"#utility.yul\":2946:2953   */\n              0x00\n                /* \"#utility.yul\":2989:2994   */\n              dup2\n                /* \"#utility.yul\":2982:2995   */\n              iszero\n                /* \"#utility.yul\":2975:2996   */\n              iszero\n                /* \"#utility.yul\":2964:2996   */\n              swap1\n              pop\n                /* \"#utility.yul\":2912:3002   */\n              swap2\n              swap1\n              pop\n              jump\t// out\n                /* \"#utility.yul\":3008:3117   */\n            tag_140:\n                /* \"#utility.yul\":3089:3110   */\n              tag_183\n                /* \"#utility.yul\":3104:3109   */\n              dup2\n                /* \"#utility.yul\":3089:3110   */\n              tag_139\n              jump\t// in\n            tag_183:\n                /* \"#utility.yul\":3084:3087   */\n              dup3\n                /* \"#utility.yul\":3077:3111   */\n              mstore\n                /* \"#utility.yul\":3008:3117   */\n              pop\n              pop\n              jump\t// out\n                /* \"#utility.yul\":3123:3333   */\n            tag_23:\n                /* \"#utility.yul\":3210:3214   */\n              0x00\n                /* \"#utility.yul\":3248:3250   */\n              0x20\n                /* \"#utility.yul\":3237:3246   */\n              dup3\n                /* \"#utility.yul\":3233:3251   */\n              add\n                /* \"#utility.yul\":3225:3251   */\n              swap1\n              pop\n                /* \"#utility.yul\":3261:3326   */\n              tag_185\n                /* \"#utility.yul\":3323:3324   */\n              0x00\n                /* \"#utility.yul\":3312:3321   */\n              dup4\n                /* \"#utility.yul\":3308:3325   */\n              add\n                /* \"#utility.yul\":3299:3305   */\n              dup5\n                /* \"#utility.yul\":3261:3326   */\n              tag_140\n              jump\t// in\n            tag_185:\n                /* \"#utility.yul\":3123:3333   */\n              swap3\n              swap2\n              pop\n              pop\n              jump\t// out\n                /* \"#utility.yul\":3339:3457   */\n            tag_141:\n                /* \"#utility.yul\":3426:3450   */\n              tag_187\n                /* \"#utility.yul\":3444:3449   */\n              dup2\n                /* \"#utility.yul\":3426:3450   */\n              tag_136\n              jump\t// in\n            tag_187:\n                /* \"#utility.yul\":3421:3424   */\n              dup3\n                /* \"#utility.yul\":3414:3451   */\n              mstore\n                /* \"#utility.yul\":3339:3457   */\n              pop\n              pop\n              jump\t// out\n                /* \"#utility.yul\":3463:3685   */\n            tag_27:\n                /* \"#utility.yul\":3556:3560   */\n              0x00\n                /* \"#utility.yul\":3594:3596   */\n              0x20\n                /* \"#utility.yul\":3583:3592   */\n              dup3\n                /* \"#utility.yul\":3579:3597   */\n              add\n                /* \"#utility.yul\":3571:3597   */\n              swap1\n              pop\n                /* \"#utility.yul\":3607:3678   */\n              tag_189\n                /* \"#utility.yul\":3675:3676   */\n              0x00\n                /* \"#utility.yul\":3664:3673   */\n              dup4\n                /* \"#utility.yul\":3660:3677   */\n              add\n                /* \"#utility.yul\":3651:3657   */\n              dup5\n                /* \"#utility.yul\":3607:3678   */\n              tag_141\n              jump\t// in\n            tag_189:\n                /* \"#utility.yul\":3463:3685   */\n              swap3\n              swap2\n              pop\n              pop\n              jump\t// out\n                /* \"#utility.yul\":3691:4310   */\n            tag_30:\n                /* \"#utility.yul\":3768:3774   */\n              0x00\n                /* \"#utility.yul\":3776:3782   */\n              dup1\n                /* \"#utility.yul\":3784:3790   */\n              0x00\n                /* \"#utility.yul\":3833:3835   */\n              0x60\n                /* \"#utility.yul\":3821:3830   */\n              dup5\n                /* \"#utility.yul\":3812:3819   */\n              dup7\n                /* \"#utility.yul\":3808:3831   */\n              sub\n                /* \"#utility.yul\":3804:3836   */\n              slt\n                /* \"#utility.yul\":3801:3920   */\n              iszero\n              tag_191\n              jumpi\n                /* \"#utility.yul\":3839:3918   */\n              tag_192\n              tag_130\n              jump\t// in\n            tag_192:\n                /* \"#utility.yul\":3801:3920   */\n            tag_191:\n                /* \"#utility.yul\":3959:3960   */\n              0x00\n                /* \"#utility.yul\":3984:4037   */\n              tag_193\n                /* \"#utility.yul\":4029:4036   */\n              dup7\n                /* \"#utility.yul\":4020:4026   */\n              dup3\n                /* \"#utility.yul\":4009:4018   */\n              dup8\n                /* \"#utility.yul\":4005:4027   */\n              add\n                /* \"#utility.yul\":3984:4037   */\n              tag_135\n              jump\t// in\n            tag_193:\n                /* \"#utility.yul\":3974:4037   */\n              swap4\n              pop\n                /* \"#utility.yul\":3930:4047   */\n              pop\n                /* \"#utility.yul\":4086:4088   */\n              0x20\n                /* \"#utility.yul\":4112:4165   */\n              tag_194\n                /* \"#utility.yul\":4157:4164   */\n              dup7\n                /* \"#utility.yul\":4148:4154   */\n              dup3\n                /* \"#utility.yul\":4137:4146   */\n              dup8\n                /* \"#utility.yul\":4133:4155   */\n              add\n                /* \"#utility.yul\":4112:4165   */\n              tag_135\n              jump\t// in\n            tag_194:\n                /* \"#utility.yul\":4102:4165   */\n              swap3\n              pop\n                /* \"#utility.yul\":4057:4175   */\n              pop\n                /* \"#utility.yul\":4214:4216   */\n              0x40\n                /* \"#utility.yul\":4240:4293   */\n              tag_195\n                /* \"#utility.yul\":4285:4292   */\n              dup7\n                /* \"#utility.yul\":4276:4282   */\n              dup3\n                /* \"#utility.yul\":4265:4274   */\n              dup8\n                /* \"#utility.yul\":4261:4283   */\n              add\n                /* \"#utility.yul\":4240:4293   */\n              tag_138\n              jump\t// in\n            tag_195:\n                /* \"#utility.yul\":4230:4293   */\n              swap2\n              pop\n                /* \"#utility.yul\":4185:4303   */\n              pop\n                /* \"#utility.yul\":3691:4310   */\n              swap3\n              pop\n              swap3\n              pop\n              swap3\n              jump\t// out\n                /* \"#utility.yul\":4316:4402   */\n            tag_142:\n                /* \"#utility.yul\":4351:4358   */\n              0x00\n                /* \"#utility.yul\":4391:4395   */\n              0xff\n                /* \"#utility.yul\":4384:4389   */\n              dup3\n                /* \"#utility.yul\":4380:4396   */\n              and\n                /* \"#utility.yul\":4369:4396   */\n              swap1\n              pop\n                /* \"#utility.yul\":4316:4402   */\n              swap2\n              swap1\n              pop\n              jump\t// out\n                /* \"#utility.yul\":4408:4520   */\n            tag_143:\n                /* \"#utility.yul\":4491:4513   */\n              tag_198\n                /* \"#utility.yul\":4507:4512   */\n              dup2\n                /* \"#utility.yul\":4491:4513   */\n              tag_142\n              jump\t// in\n            tag_198:\n                /* \"#utility.yul\":4486:4489   */\n              dup3\n                /* \"#utility.yul\":4479:4514   */\n              mstore\n                /* \"#utility.yul\":4408:4520   */\n              pop\n              pop\n              jump\t// out\n                /* \"#utility.yul\":4526:4740   */\n            tag_36:\n                /* \"#utility.yul\":4615:4619   */\n              0x00\n                /* \"#utility.yul\":4653:4655   */\n              0x20\n                /* \"#utility.yul\":4642:4651   */\n              dup3\n                /* \"#utility.yul\":4638:4656   */\n              add\n                /* \"#utility.yul\":4630:4656   */\n              swap1\n              pop\n                /* \"#utility.yul\":4666:4733   */\n              tag_200\n                /* \"#utility.yul\":4730:4731   */\n              0x00\n                /* \"#utility.yul\":4719:4728   */\n              dup4\n                /* \"#utility.yul\":4715:4732   */\n              add\n                /* \"#utility.yul\":4706:4712   */\n              dup5\n                /* \"#utility.yul\":4666:4733   */\n              tag_143\n              jump\t// in\n            tag_200:\n                /* \"#utility.yul\":4526:4740   */\n              swap3\n              swap2\n              pop\n              pop\n              jump\t// out\n                /* \"#utility.yul\":4746:5075   */\n            tag_39:\n                /* \"#utility.yul\":4805:4811   */\n              0x00\n                /* \"#utility.yul\":4854:4856   */\n              0x20\n                /* \"#utility.yul\":4842:4851   */\n              dup3\n                /* \"#utility.yul\":4833:4840   */\n              dup5\n                /* \"#utility.yul\":4829:4852   */\n              sub\n                /* \"#utility.yul\":4825:4857   */\n              slt\n                /* \"#utility.yul\":4822:4941   */\n              iszero\n              tag_202\n              jumpi\n                /* \"#utility.yul\":4860:4939   */\n              tag_203\n              tag_130\n              jump\t// in\n            tag_203:\n                /* \"#utility.yul\":4822:4941   */\n            tag_202:\n                /* \"#utility.yul\":4980:4981   */\n              0x00\n                /* \"#utility.yul\":5005:5058   */\n              tag_204\n                /* \"#utility.yul\":5050:5057   */\n              dup5\n                /* \"#utility.yul\":5041:5047   */\n              dup3\n                /* \"#utility.yul\":5030:5039   */\n              dup6\n                /* \"#utility.yul\":5026:5048   */\n              add\n                /* \"#utility.yul\":5005:5058   */\n              tag_135\n              jump\t// in\n            tag_204:\n                /* \"#utility.yul\":4995:5058   */\n              swap2\n              pop\n                /* \"#utility.yul\":4951:5068   */\n              pop\n                /* \"#utility.yul\":4746:5075   */\n              swap3\n              swap2\n              pop\n              pop\n              jump\t// out\n                /* \"#utility.yul\":5081:5199   */\n            tag_144:\n                /* \"#utility.yul\":5168:5192   */\n              tag_206\n                /* \"#utility.yul\":5186:5191   */\n              dup2\n                /* \"#utility.yul\":5168:5192   */\n              tag_133\n              jump\t// in\n            tag_206:\n                /* \"#utility.yul\":5163:5166   */\n              dup3\n                /* \"#utility.yul\":5156:5193   */\n              mstore\n                /* \"#utility.yul\":5081:5199   */\n              pop\n              pop\n              jump\t// out\n                /* \"#utility.yul\":5205:5427   */\n            tag_45:\n                /* \"#utility.yul\":5298:5302   */\n              0x00\n                /* \"#utility.yul\":5336:5338   */\n              0x20\n                /* \"#utility.yul\":5325:5334   */\n              dup3\n                /* \"#utility.yul\":5321:5339   */\n              add\n                /* \"#utility.yul\":5313:5339   */\n              swap1\n              pop\n                /* \"#utility.yul\":5349:5420   */\n              tag_208\n                /* \"#utility.yul\":5417:5418   */\n              0x00\n                /* \"#utility.yul\":5406:5415   */\n              dup4\n                /* \"#utility.yul\":5402:5419   */\n              add\n                /* \"#utility.yul\":5393:5399   */\n              dup5\n                /* \"#utility.yul\":5349:5420   */\n              tag_144\n              jump\t// in\n            tag_208:\n                /* \"#utility.yul\":5205:5427   */\n              swap3\n              swap2\n              pop\n              pop\n              jump\t// out\n                /* \"#utility.yul\":5433:5907   */\n            tag_55:\n                /* \"#utility.yul\":5501:5507   */\n              0x00\n                /* \"#utility.yul\":5509:5515   */\n              dup1\n                /* \"#utility.yul\":5558:5560   */\n              0x40\n                /* \"#utility.yul\":5546:5555   */\n              dup4\n                /* \"#utility.yul\":5537:5544   */\n              dup6\n                /* \"#utility.yul\":5533:5556   */\n              sub\n                /* \"#utility.yul\":5529:5561   */\n              slt\n                /* \"#utility.yul\":5526:5645   */\n              iszero\n              tag_210\n              jumpi\n                /* \"#utility.yul\":5564:5643   */\n              tag_211\n              tag_130\n              jump\t// in\n            tag_211:\n                /* \"#utility.yul\":5526:5645   */\n            tag_210:\n                /* \"#utility.yul\":5684:5685   */\n              0x00\n                /* \"#utility.yul\":5709:5762   */\n              tag_212\n                /* \"#utility.yul\":5754:5761   */\n              dup6\n                /* \"#utility.yul\":5745:5751   */\n              dup3\n                /* \"#utility.yul\":5734:5743   */\n              dup7\n                /* \"#utility.yul\":5730:5752   */\n              add\n                /* \"#utility.yul\":5709:5762   */\n              tag_135\n              jump\t// in\n            tag_212:\n                /* \"#utility.yul\":5699:5762   */\n              swap3\n              pop\n                /* \"#utility.yul\":5655:5772   */\n              pop\n                /* \"#utility.yul\":5811:5813   */\n              0x20\n                /* \"#utility.yul\":5837:5890   */\n              tag_213\n                /* \"#utility.yul\":5882:5889   */\n              dup6\n                /* \"#utility.yul\":5873:5879   */\n              dup3\n                /* \"#utility.yul\":5862:5871   */\n              dup7\n                /* \"#utility.yul\":5858:5880   */\n              add\n                /* \"#utility.yul\":5837:5890   */\n              tag_135\n              jump\t// in\n            tag_213:\n                /* \"#utility.yul\":5827:5890   */\n              swap2\n              pop\n                /* \"#utility.yul\":5782:5900   */\n              pop\n                /* \"#utility.yul\":5433:5907   */\n              swap3\n              pop\n              swap3\n              swap1\n              pop\n              jump\t// out\n                /* \"#utility.yul\":5913:6093   */\n            tag_145:\n                /* \"#utility.yul\":5961:6038   */\n              0x4e487b7100000000000000000000000000000000000000000000000000000000\n                /* \"#utility.yul\":5958:5959   */\n              0x00\n                /* \"#utility.yul\":5951:6039   */\n              mstore\n                /* \"#utility.yul\":6058:6062   */\n              0x22\n                /* \"#utility.yul\":6055:6056   */\n              0x04\n                /* \"#utility.yul\":6048:6063   */\n              mstore\n                /* \"#utility.yul\":6082:6086   */\n              0x24\n                /* \"#utility.yul\":6079:6080   */\n              0x00\n                /* \"#utility.yul\":6072:6087   */\n              revert\n                /* \"#utility.yul\":6099:6419   */\n            tag_60:\n                /* \"#utility.yul\":6143:6149   */\n              0x00\n                /* \"#utility.yul\":6180:6181   */\n              0x02\n                /* \"#utility.yul\":6174:6178   */\n              dup3\n                /* \"#utility.yul\":6170:6182   */\n              div\n                /* \"#utility.yul\":6160:6182   */\n              swap1\n              pop\n                /* \"#utility.yul\":6227:6228   */\n              0x01\n                /* \"#utility.yul\":6221:6225   */\n              dup3\n                /* \"#utility.yul\":6217:6229   */\n              and\n                /* \"#utility.yul\":6248:6266   */\n              dup1\n                /* \"#utility.yul\":6238:6319   */\n              tag_216\n              jumpi\n                /* \"#utility.yul\":6304:6308   */\n              0x7f\n                /* \"#utility.yul\":6296:6302   */\n              dup3\n                /* \"#utility.yul\":6292:6309   */\n              and\n                /* \"#utility.yul\":6282:6309   */\n              swap2\n              pop\n                /* \"#utility.yul\":6238:6319   */\n            tag_216:\n                /* \"#utility.yul\":6366:6368   */\n              0x20\n                /* \"#utility.yul\":6358:6364   */\n              dup3\n                /* \"#utility.yul\":6355:6369   */\n              lt\n                /* \"#utility.yul\":6335:6353   */\n              dup2\n                /* \"#utility.yul\":6332:6370   */\n              sub\n                /* \"#utility.yul\":6329:6413   */\n              tag_217\n              jumpi\n                /* \"#utility.yul\":6385:6403   */\n              tag_218\n              tag_145\n              jump\t// in\n            tag_218:\n                /* \"#utility.yul\":6329:6413   */\n            tag_217:\n                /* \"#utility.yul\":6150:6419   */\n              pop\n                /* \"#utility.yul\":6099:6419   */\n              swap2\n              swap1\n              pop\n              jump\t// out\n                /* \"#utility.yul\":6425:6867   */\n            tag_98:\n                /* \"#utility.yul\":6574:6578   */\n              0x00\n                /* \"#utility.yul\":6612:6614   */\n              0x60\n                /* \"#utility.yul\":6601:6610   */\n              dup3\n                /* \"#utility.yul\":6597:6615   */\n              add\n                /* \"#utility.yul\":6589:6615   */\n              swap1\n              pop\n                /* \"#utility.yul\":6625:6696   */\n              tag_220\n                /* \"#utility.yul\":6693:6694   */\n              0x00\n                /* \"#utility.yul\":6682:6691   */\n              dup4\n                /* \"#utility.yul\":6678:6695   */\n              add\n                /* \"#utility.yul\":6669:6675   */\n              dup7\n                /* \"#utility.yul\":6625:6696   */\n              tag_144\n              jump\t// in\n            tag_220:\n                /* \"#utility.yul\":6706:6778   */\n              tag_221\n                /* \"#utility.yul\":6774:6776   */\n              0x20\n                /* \"#utility.yul\":6763:6772   */\n              dup4\n                /* \"#utility.yul\":6759:6777   */\n              add\n                /* \"#utility.yul\":6750:6756   */\n              dup6\n                /* \"#utility.yul\":6706:6778   */\n              tag_141\n              jump\t// in\n            tag_221:\n                /* \"#utility.yul\":6788:6860   */\n              tag_222\n                /* \"#utility.yul\":6856:6858   */\n              0x40\n                /* \"#utility.yul\":6845:6854   */\n              dup4\n                /* \"#utility.yul\":6841:6859   */\n              add\n                /* \"#utility.yul\":6832:6838   */\n              dup5\n                /* \"#utility.yul\":6788:6860   */\n              tag_141\n              jump\t// in\n            tag_222:\n                /* \"#utility.yul\":6425:6867   */\n              swap5\n              swap4\n              pop\n              pop\n              pop\n              pop\n              jump\t// out\n                /* \"#utility.yul\":6873:7053   */\n            tag_146:\n                /* \"#utility.yul\":6921:6998   */\n              0x4e487b7100000000000000000000000000000000000000000000000000000000\n                /* \"#utility.yul\":6918:6919   */\n              0x00\n                /* \"#utility.yul\":6911:6999   */\n              mstore\n                /* \"#utility.yul\":7018:7022   */\n              0x11\n                /* \"#utility.yul\":7015:7016   */\n              0x04\n                /* \"#utility.yul\":7008:7023   */\n              mstore\n                /* \"#utility.yul\":7042:7046   */\n              0x24\n                /* \"#utility.yul\":7039:7040   */\n              0x00\n                /* \"#utility.yul\":7032:7047   */\n              revert\n                /* \"#utility.yul\":7059:7250   */\n            tag_117:\n                /* \"#utility.yul\":7099:7102   */\n              0x00\n                /* \"#utility.yul\":7118:7138   */\n              tag_225\n                /* \"#utility.yul\":7136:7137   */\n              dup3\n                /* \"#utility.yul\":7118:7138   */\n              tag_136\n              jump\t// in\n            tag_225:\n                /* \"#utility.yul\":7113:7138   */\n              swap2\n              pop\n                /* \"#utility.yul\":7152:7172   */\n              tag_226\n                /* \"#utility.yul\":7170:7171   */\n              dup4\n                /* \"#utility.yul\":7152:7172   */\n              tag_136\n              jump\t// in\n            tag_226:\n                /* \"#utility.yul\":7147:7172   */\n              swap3\n              pop\n                /* \"#utility.yul\":7195:7196   */\n              dup3\n                /* \"#utility.yul\":7192:7193   */\n              dup3\n                /* \"#utility.yul\":7188:7197   */\n              add\n                /* \"#utility.yul\":7181:7197   */\n              swap1\n              pop\n                /* \"#utility.yul\":7216:7219   */\n              dup1\n                /* \"#utility.yul\":7213:7214   */\n              dup3\n                /* \"#utility.yul\":7210:7220   */\n              gt\n                /* \"#utility.yul\":7207:7243   */\n              iszero\n              tag_227\n              jumpi\n                /* \"#utility.yul\":7223:7241   */\n              tag_228\n              tag_146\n              jump\t// in\n            tag_228:\n                /* \"#utility.yul\":7207:7243   */\n            tag_227:\n                /* \"#utility.yul\":7059:7250   */\n              swap3\n              swap2\n              pop\n              pop\n              jump\t// out\n\n            auxdata: 0xa264697066735822122053f76e8a80371caf49f45f2ab794628733b633b49161323238a643d0d901abbf64736f6c634300081a0033\n        }\n    }\n\n    auxdata: 0xa2646970667358221220af2d16b6a2f835edd4eb1c4df9459de040f7dbd952f174d6789a4a12d9641bde64736f6c634300081a0033\n}\n",
				"bytecode": {
					"linkReferences": {},
					"object": "6080604052348015600e575f80fd5b50611e5a8061001c5f395ff3fe608060405234801561000f575f80fd5b5060043610610029575f3560e01c80635b0605301461002d575b5f80fd5b61004760048036038101906100429190610299565b61005d565b6040516100549190610360565b60405180910390f35b5f808484843360405161006f9061010c565b61007c94939291906103e8565b604051809103905ff080158015610095573d5f803e3d5ffd5b5090503373ffffffffffffffffffffffffffffffffffffffff168173ffffffffffffffffffffffffffffffffffffffff167f6e6ae68e7d7d45fbd855c40d1eaafa8de46c5fbec3ee26f1af88730e400bc92c8787876040516100f993929190610439565b60405180910390a3809150509392505050565b6119a88061047d83390190565b5f604051905090565b5f80fd5b5f80fd5b5f80fd5b5f80fd5b5f601f19601f8301169050919050565b7f4e487b71000000000000000000000000000000000000000000000000000000005f52604160045260245ffd5b61017882610132565b810181811067ffffffffffffffff8211171561019757610196610142565b5b80604052505050565b5f6101a9610119565b90506101b5828261016f565b919050565b5f67ffffffffffffffff8211156101d4576101d3610142565b5b6101dd82610132565b9050602081019050919050565b828183375f83830152505050565b5f61020a610205846101ba565b6101a0565b9050828152602081018484840111156102265761022561012e565b5b6102318482856101ea565b509392505050565b5f82601f83011261024d5761024c61012a565b5b813561025d8482602086016101f8565b91505092915050565b5f819050919050565b61027881610266565b8114610282575f80fd5b50565b5f813590506102938161026f565b92915050565b5f805f606084860312156102b0576102af610122565b5b5f84013567ffffffffffffffff8111156102cd576102cc610126565b5b6102d986828701610239565b935050602084013567ffffffffffffffff8111156102fa576102f9610126565b5b61030686828701610239565b925050604061031786828701610285565b9150509250925092565b5f73ffffffffffffffffffffffffffffffffffffffff82169050919050565b5f61034a82610321565b9050919050565b61035a81610340565b82525050565b5f6020820190506103735f830184610351565b92915050565b5f81519050919050565b5f82825260208201905092915050565b8281835e5f83830152505050565b5f6103ab82610379565b6103b58185610383565b93506103c5818560208601610393565b6103ce81610132565b840191505092915050565b6103e281610266565b82525050565b5f6080820190508181035f83015261040081876103a1565b9050818103602083015261041481866103a1565b905061042360408301856103d9565b6104306060830184610351565b95945050505050565b5f6060820190508181035f83015261045181866103a1565b9050818103602083015261046581856103a1565b905061047460408301846103d9565b94935050505056fe608060405234801561000f575f80fd5b506040516119a83803806119a883398181016040528101906100319190610552565b8383816003908161004291906107f2565b50806004908161005291906107f2565b505050610089816100676100d260201b60201c565b600a6100739190610a29565b8461007e9190610a73565b6100da60201b60201c565b8060055f6101000a81548173ffffffffffffffffffffffffffffffffffffffff021916908373ffffffffffffffffffffffffffffffffffffffff16021790555050505050610b6c565b5f6012905090565b5f73ffffffffffffffffffffffffffffffffffffffff168273ffffffffffffffffffffffffffffffffffffffff160361014a575f6040517fec442f050000000000000000000000000000000000000000000000000000000081526004016101419190610ac3565b60405180910390fd5b61015b5f838361015f60201b60201c565b5050565b5f73ffffffffffffffffffffffffffffffffffffffff168373ffffffffffffffffffffffffffffffffffffffff16036101af578060025f8282546101a39190610adc565b9250508190555061027d565b5f805f8573ffffffffffffffffffffffffffffffffffffffff1673ffffffffffffffffffffffffffffffffffffffff1681526020019081526020015f2054905081811015610238578381836040517fe450d38c00000000000000000000000000000000000000000000000000000000815260040161022f93929190610b1e565b60405180910390fd5b8181035f808673ffffffffffffffffffffffffffffffffffffffff1673ffffffffffffffffffffffffffffffffffffffff1681526020019081526020015f2081905550505b5f73ffffffffffffffffffffffffffffffffffffffff168273ffffffffffffffffffffffffffffffffffffffff16036102c4578060025f828254039250508190555061030e565b805f808473ffffffffffffffffffffffffffffffffffffffff1673ffffffffffffffffffffffffffffffffffffffff1681526020019081526020015f205f82825401925050819055505b8173ffffffffffffffffffffffffffffffffffffffff168373ffffffffffffffffffffffffffffffffffffffff167fddf252ad1be2c89b69c2b068fc378daa952ba7f163c4a11628f55a4df523b3ef8360405161036b9190610b53565b60405180910390a3505050565b5f604051905090565b5f80fd5b5f80fd5b5f80fd5b5f80fd5b5f601f19601f8301169050919050565b7f4e487b71000000000000000000000000000000000000000000000000000000005f52604160045260245ffd5b6103d782610391565b810181811067ffffffffffffffff821117156103f6576103f56103a1565b5b80604052505050565b5f610408610378565b905061041482826103ce565b919050565b5f67ffffffffffffffff821115610433576104326103a1565b5b61043c82610391565b9050602081019050919050565b8281835e5f83830152505050565b5f61046961046484610419565b6103ff565b9050828152602081018484840111156104855761048461038d565b5b610490848285610449565b509392505050565b5f82601f8301126104ac576104ab610389565b5b81516104bc848260208601610457565b91505092915050565b5f819050919050565b6104d7816104c5565b81146104e1575f80fd5b50565b5f815190506104f2816104ce565b92915050565b5f73ffffffffffffffffffffffffffffffffffffffff82169050919050565b5f610521826104f8565b9050919050565b61053181610517565b811461053b575f80fd5b50565b5f8151905061054c81610528565b92915050565b5f805f806080858703121561056a57610569610381565b5b5f85015167ffffffffffffffff81111561058757610586610385565b5b61059387828801610498565b945050602085015167ffffffffffffffff8111156105b4576105b3610385565b5b6105c087828801610498565b93505060406105d1878288016104e4565b92505060606105e28782880161053e565b91505092959194509250565b5f81519050919050565b7f4e487b71000000000000000000000000000000000000000000000000000000005f52602260045260245ffd5b5f600282049050600182168061063c57607f821691505b60208210810361064f5761064e6105f8565b5b50919050565b5f819050815f5260205f209050919050565b5f6020601f8301049050919050565b5f82821b905092915050565b5f600883026106b17fffffffffffffffffffffffffffffffffffffffffffffffffffffffffffffffff82610676565b6106bb8683610676565b95508019841693508086168417925050509392505050565b5f819050919050565b5f6106f66106f16106ec846104c5565b6106d3565b6104c5565b9050919050565b5f819050919050565b61070f836106dc565b61072361071b826106fd565b848454610682565b825550505050565b5f90565b61073761072b565b610742818484610706565b505050565b5b818110156107655761075a5f8261072f565b600181019050610748565b5050565b601f8211156107aa5761077b81610655565b61078484610667565b81016020851015610793578190505b6107a761079f85610667565b830182610747565b50505b505050565b5f82821c905092915050565b5f6107ca5f19846008026107af565b1980831691505092915050565b5f6107e283836107bb565b9150826002028217905092915050565b6107fb826105ee565b67ffffffffffffffff811115610814576108136103a1565b5b61081e8254610625565b610829828285610769565b5f60209050601f83116001811461085a575f8415610848578287015190505b61085285826107d7565b8655506108b9565b601f19841661086886610655565b5f5b8281101561088f5784890151825560018201915060208501945060208101905061086a565b868310156108ac57848901516108a8601f8916826107bb565b8355505b6001600288020188555050505b505050505050565b7f4e487b71000000000000000000000000000000000000000000000000000000005f52601160045260245ffd5b5f8160011c9050919050565b5f808291508390505b60018511156109435780860481111561091f5761091e6108c1565b5b600185161561092e5780820291505b808102905061093c856108ee565b9450610903565b94509492505050565b5f8261095b5760019050610a16565b81610968575f9050610a16565b816001811461097e5760028114610988576109b7565b6001915050610a16565b60ff84111561099a576109996108c1565b5b8360020a9150848211156109b1576109b06108c1565b5b50610a16565b5060208310610133831016604e8410600b84101617156109ec5782820a9050838111156109e7576109e66108c1565b5b610a16565b6109f984848460016108fa565b92509050818404811115610a1057610a0f6108c1565b5b81810290505b9392505050565b5f60ff82169050919050565b5f610a33826104c5565b9150610a3e83610a1d565b9250610a6b7fffffffffffffffffffffffffffffffffffffffffffffffffffffffffffffffff848461094c565b905092915050565b5f610a7d826104c5565b9150610a88836104c5565b9250828202610a96816104c5565b91508282048414831517610aad57610aac6108c1565b5b5092915050565b610abd81610517565b82525050565b5f602082019050610ad65f830184610ab4565b92915050565b5f610ae6826104c5565b9150610af1836104c5565b9250828201905080821115610b0957610b086108c1565b5b92915050565b610b18816104c5565b82525050565b5f606082019050610b315f830186610ab4565b610b3e6020830185610b0f565b610b4b6040830184610b0f565b949350505050565b5f602082019050610b665f830184610b0f565b92915050565b610e2f80610b795f395ff3fe608060405234801561000f575f80fd5b506004361061009c575f3560e01c806370a082311161006457806370a082311461015a5780638da5cb5b1461018a57806395d89b41146101a8578063a9059cbb146101c6578063dd62ed3e146101f65761009c565b806306fdde03146100a0578063095ea7b3146100be57806318160ddd146100ee57806323b872dd1461010c578063313ce5671461013c575b5f80fd5b6100a8610226565b6040516100b59190610aa8565b60405180910390f35b6100d860048036038101906100d39190610b59565b6102b6565b6040516100e59190610bb1565b60405180910390f35b6100f66102d8565b6040516101039190610bd9565b60405180910390f35b61012660048036038101906101219190610bf2565b6102e1565b6040516101339190610bb1565b60405180910390f35b61014461030f565b6040516101519190610c5d565b60405180910390f35b610174600480360381019061016f9190610c76565b610317565b6040516101819190610bd9565b60405180910390f35b61019261035c565b60405161019f9190610cb0565b60405180910390f35b6101b0610381565b6040516101bd9190610aa8565b60405180910390f35b6101e060048036038101906101db9190610b59565b610411565b6040516101ed9190610bb1565b60405180910390f35b610210600480360381019061020b9190610cc9565b610433565b60405161021d9190610bd9565b60405180910390f35b60606003805461023590610d34565b80601f016020809104026020016040519081016040528092919081815260200182805461026190610d34565b80156102ac5780601f10610283576101008083540402835291602001916102ac565b820191905f5260205f20905b81548152906001019060200180831161028f57829003601f168201915b5050505050905090565b5f806102c06104b5565b90506102cd8185856104bc565b600191505092915050565b5f600254905090565b5f806102eb6104b5565b90506102f88582856104ce565b610303858585610560565b60019150509392505050565b5f6012905090565b5f805f8373ffffffffffffffffffffffffffffffffffffffff1673ffffffffffffffffffffffffffffffffffffffff1681526020019081526020015f20549050919050565b60055f9054906101000a900473ffffffffffffffffffffffffffffffffffffffff1681565b60606004805461039090610d34565b80601f01602080910402602001604051908101604052809291908181526020018280546103bc90610d34565b80156104075780601f106103de57610100808354040283529160200191610407565b820191905f5260205f20905b8154815290600101906020018083116103ea57829003601f168201915b5050505050905090565b5f8061041b6104b5565b9050610428818585610560565b600191505092915050565b5f60015f8473ffffffffffffffffffffffffffffffffffffffff1673ffffffffffffffffffffffffffffffffffffffff1681526020019081526020015f205f8373ffffffffffffffffffffffffffffffffffffffff1673ffffffffffffffffffffffffffffffffffffffff1681526020019081526020015f2054905092915050565b5f33905090565b6104c98383836001610650565b505050565b5f6104d98484610433565b90507fffffffffffffffffffffffffffffffffffffffffffffffffffffffffffffffff811461055a578181101561054b578281836040517ffb8f41b200000000000000000000000000000000000000000000000000000000815260040161054293929190610d64565b60405180910390fd5b61055984848484035f610650565b5b50505050565b5f73ffffffffffffffffffffffffffffffffffffffff168373ffffffffffffffffffffffffffffffffffffffff16036105d0575f6040517f96c6fd1e0000000000000000000000000000000000000000000000000000000081526004016105c79190610cb0565b60405180910390fd5b5f73ffffffffffffffffffffffffffffffffffffffff168273ffffffffffffffffffffffffffffffffffffffff1603610640575f6040517fec442f050000000000000000000000000000000000000000000000000000000081526004016106379190610cb0565b60405180910390fd5b61064b83838361081f565b505050565b5f73ffffffffffffffffffffffffffffffffffffffff168473ffffffffffffffffffffffffffffffffffffffff16036106c0575f6040517fe602df050000000000000000000000000000000000000000000000000000000081526004016106b79190610cb0565b60405180910390fd5b5f73ffffffffffffffffffffffffffffffffffffffff168373ffffffffffffffffffffffffffffffffffffffff1603610730575f6040517f94280d620000000000000000000000000000000000000000000000000000000081526004016107279190610cb0565b60405180910390fd5b8160015f8673ffffffffffffffffffffffffffffffffffffffff1673ffffffffffffffffffffffffffffffffffffffff1681526020019081526020015f205f8573ffffffffffffffffffffffffffffffffffffffff1673ffffffffffffffffffffffffffffffffffffffff1681526020019081526020015f20819055508015610819578273ffffffffffffffffffffffffffffffffffffffff168473ffffffffffffffffffffffffffffffffffffffff167f8c5be1e5ebec7d5bd14f71427d1e84f3dd0314c0f7b2291e5b200ac8c7c3b925846040516108109190610bd9565b60405180910390a35b50505050565b5f73ffffffffffffffffffffffffffffffffffffffff168373ffffffffffffffffffffffffffffffffffffffff160361086f578060025f8282546108639190610dc6565b9250508190555061093d565b5f805f8573ffffffffffffffffffffffffffffffffffffffff1673ffffffffffffffffffffffffffffffffffffffff1681526020019081526020015f20549050818110156108f8578381836040517fe450d38c0000000000000000000000000000000000000000000000000000000081526004016108ef93929190610d64565b60405180910390fd5b8181035f808673ffffffffffffffffffffffffffffffffffffffff1673ffffffffffffffffffffffffffffffffffffffff1681526020019081526020015f2081905550505b5f73ffffffffffffffffffffffffffffffffffffffff168273ffffffffffffffffffffffffffffffffffffffff1603610984578060025f82825403925050819055506109ce565b805f808473ffffffffffffffffffffffffffffffffffffffff1673ffffffffffffffffffffffffffffffffffffffff1681526020019081526020015f205f82825401925050819055505b8173ffffffffffffffffffffffffffffffffffffffff168373ffffffffffffffffffffffffffffffffffffffff167fddf252ad1be2c89b69c2b068fc378daa952ba7f163c4a11628f55a4df523b3ef83604051610a2b9190610bd9565b60405180910390a3505050565b5f81519050919050565b5f82825260208201905092915050565b8281835e5f83830152505050565b5f601f19601f8301169050919050565b5f610a7a82610a38565b610a848185610a42565b9350610a94818560208601610a52565b610a9d81610a60565b840191505092915050565b5f6020820190508181035f830152610ac08184610a70565b905092915050565b5f80fd5b5f73ffffffffffffffffffffffffffffffffffffffff82169050919050565b5f610af582610acc565b9050919050565b610b0581610aeb565b8114610b0f575f80fd5b50565b5f81359050610b2081610afc565b92915050565b5f819050919050565b610b3881610b26565b8114610b42575f80fd5b50565b5f81359050610b5381610b2f565b92915050565b5f8060408385031215610b6f57610b6e610ac8565b5b5f610b7c85828601610b12565b9250506020610b8d85828601610b45565b9150509250929050565b5f8115159050919050565b610bab81610b97565b82525050565b5f602082019050610bc45f830184610ba2565b92915050565b610bd381610b26565b82525050565b5f602082019050610bec5f830184610bca565b92915050565b5f805f60608486031215610c0957610c08610ac8565b5b5f610c1686828701610b12565b9350506020610c2786828701610b12565b9250506040610c3886828701610b45565b9150509250925092565b5f60ff82169050919050565b610c5781610c42565b82525050565b5f602082019050610c705f830184610c4e565b92915050565b5f60208284031215610c8b57610c8a610ac8565b5b5f610c9884828501610b12565b91505092915050565b610caa81610aeb565b82525050565b5f602082019050610cc35f830184610ca1565b92915050565b5f8060408385031215610cdf57610cde610ac8565b5b5f610cec85828601610b12565b9250506020610cfd85828601610b12565b9150509250929050565b7f4e487b71000000000000000000000000000000000000000000000000000000005f52602260045260245ffd5b5f6002820490506001821680610d4b57607f821691505b602082108103610d5e57610d5d610d07565b5b50919050565b5f606082019050610d775f830186610ca1565b610d846020830185610bca565b610d916040830184610bca565b949350505050565b7f4e487b71000000000000000000000000000000000000000000000000000000005f52601160045260245ffd5b5f610dd082610b26565b9150610ddb83610b26565b9250828201905080821115610df357610df2610d99565b5b9291505056fea264697066735822122053f76e8a80371caf49f45f2ab794628733b633b49161323238a643d0d901abbf64736f6c634300081a0033a2646970667358221220af2d16b6a2f835edd4eb1c4df9459de040f7dbd952f174d6789a4a12d9641bde64736f6c634300081a0033",
					"opcodes": "PUSH1 0x80 PUSH1 0x40 MSTORE CALLVALUE DUP1 ISZERO PUSH1 0xE JUMPI PUSH0 DUP1 REVERT JUMPDEST POP PUSH2 0x1E5A DUP1 PUSH2 0x1C PUSH0 CODECOPY PUSH0 RETURN INVALID PUSH1 0x80 PUSH1 0x40 MSTORE CALLVALUE DUP1 ISZERO PUSH2 0xF JUMPI PUSH0 DUP1 REVERT JUMPDEST POP PUSH1 0x4 CALLDATASIZE LT PUSH2 0x29 JUMPI PUSH0 CALLDATALOAD PUSH1 0xE0 SHR DUP1 PUSH4 0x5B060530 EQ PUSH2 0x2D JUMPI JUMPDEST PUSH0 DUP1 REVERT JUMPDEST PUSH2 0x47 PUSH1 0x4 DUP1 CALLDATASIZE SUB DUP2 ADD SWAP1 PUSH2 0x42 SWAP2 SWAP1 PUSH2 0x299 JUMP JUMPDEST PUSH2 0x5D JUMP JUMPDEST PUSH1 0x40 MLOAD PUSH2 0x54 SWAP2 SWAP1 PUSH2 0x360 JUMP JUMPDEST PUSH1 0x40 MLOAD DUP1 SWAP2 SUB SWAP1 RETURN JUMPDEST PUSH0 DUP1 DUP5 DUP5 DUP5 CALLER PUSH1 0x40 MLOAD PUSH2 0x6F SWAP1 PUSH2 0x10C JUMP JUMPDEST PUSH2 0x7C SWAP5 SWAP4 SWAP3 SWAP2 SWAP1 PUSH2 0x3E8 JUMP JUMPDEST PUSH1 0x40 MLOAD DUP1 SWAP2 SUB SWAP1 PUSH0 CREATE DUP1 ISZERO DUP1 ISZERO PUSH2 0x95 JUMPI RETURNDATASIZE PUSH0 DUP1 RETURNDATACOPY RETURNDATASIZE PUSH0 REVERT JUMPDEST POP SWAP1 POP CALLER PUSH20 0xFFFFFFFFFFFFFFFFFFFFFFFFFFFFFFFFFFFFFFFF AND DUP2 PUSH20 0xFFFFFFFFFFFFFFFFFFFFFFFFFFFFFFFFFFFFFFFF AND PUSH32 0x6E6AE68E7D7D45FBD855C40D1EAAFA8DE46C5FBEC3EE26F1AF88730E400BC92C DUP8 DUP8 DUP8 PUSH1 0x40 MLOAD PUSH2 0xF9 SWAP4 SWAP3 SWAP2 SWAP1 PUSH2 0x439 JUMP JUMPDEST PUSH1 0x40 MLOAD DUP1 SWAP2 SUB SWAP1 LOG3 DUP1 SWAP2 POP POP SWAP4 SWAP3 POP POP POP JUMP JUMPDEST PUSH2 0x19A8 DUP1 PUSH2 0x47D DUP4 CODECOPY ADD SWAP1 JUMP JUMPDEST PUSH0 PUSH1 0x40 MLOAD SWAP1 POP SWAP1 JUMP JUMPDEST PUSH0 DUP1 REVERT JUMPDEST PUSH0 DUP1 REVERT JUMPDEST PUSH0 DUP1 REVERT JUMPDEST PUSH0 DUP1 REVERT JUMPDEST PUSH0 PUSH1 0x1F NOT PUSH1 0x1F DUP4 ADD AND SWAP1 POP SWAP2 SWAP1 POP JUMP JUMPDEST PUSH32 0x4E487B7100000000000000000000000000000000000000000000000000000000 PUSH0 MSTORE PUSH1 0x41 PUSH1 0x4 MSTORE PUSH1 0x24 PUSH0 REVERT JUMPDEST PUSH2 0x178 DUP3 PUSH2 0x132 JUMP JUMPDEST DUP2 ADD DUP2 DUP2 LT PUSH8 0xFFFFFFFFFFFFFFFF DUP3 GT OR ISZERO PUSH2 0x197 JUMPI PUSH2 0x196 PUSH2 0x142 JUMP JUMPDEST JUMPDEST DUP1 PUSH1 0x40 MSTORE POP POP POP JUMP JUMPDEST PUSH0 PUSH2 0x1A9 PUSH2 0x119 JUMP JUMPDEST SWAP1 POP PUSH2 0x1B5 DUP3 DUP3 PUSH2 0x16F JUMP JUMPDEST SWAP2 SWAP1 POP JUMP JUMPDEST PUSH0 PUSH8 0xFFFFFFFFFFFFFFFF DUP3 GT ISZERO PUSH2 0x1D4 JUMPI PUSH2 0x1D3 PUSH2 0x142 JUMP JUMPDEST JUMPDEST PUSH2 0x1DD DUP3 PUSH2 0x132 JUMP JUMPDEST SWAP1 POP PUSH1 0x20 DUP2 ADD SWAP1 POP SWAP2 SWAP1 POP JUMP JUMPDEST DUP3 DUP2 DUP4 CALLDATACOPY PUSH0 DUP4 DUP4 ADD MSTORE POP POP POP JUMP JUMPDEST PUSH0 PUSH2 0x20A PUSH2 0x205 DUP5 PUSH2 0x1BA JUMP JUMPDEST PUSH2 0x1A0 JUMP JUMPDEST SWAP1 POP DUP3 DUP2 MSTORE PUSH1 0x20 DUP2 ADD DUP5 DUP5 DUP5 ADD GT ISZERO PUSH2 0x226 JUMPI PUSH2 0x225 PUSH2 0x12E JUMP JUMPDEST JUMPDEST PUSH2 0x231 DUP5 DUP3 DUP6 PUSH2 0x1EA JUMP JUMPDEST POP SWAP4 SWAP3 POP POP POP JUMP JUMPDEST PUSH0 DUP3 PUSH1 0x1F DUP4 ADD SLT PUSH2 0x24D JUMPI PUSH2 0x24C PUSH2 0x12A JUMP JUMPDEST JUMPDEST DUP2 CALLDATALOAD PUSH2 0x25D DUP5 DUP3 PUSH1 0x20 DUP7 ADD PUSH2 0x1F8 JUMP JUMPDEST SWAP2 POP POP SWAP3 SWAP2 POP POP JUMP JUMPDEST PUSH0 DUP2 SWAP1 POP SWAP2 SWAP1 POP JUMP JUMPDEST PUSH2 0x278 DUP2 PUSH2 0x266 JUMP JUMPDEST DUP2 EQ PUSH2 0x282 JUMPI PUSH0 DUP1 REVERT JUMPDEST POP JUMP JUMPDEST PUSH0 DUP2 CALLDATALOAD SWAP1 POP PUSH2 0x293 DUP2 PUSH2 0x26F JUMP JUMPDEST SWAP3 SWAP2 POP POP JUMP JUMPDEST PUSH0 DUP1 PUSH0 PUSH1 0x60 DUP5 DUP7 SUB SLT ISZERO PUSH2 0x2B0 JUMPI PUSH2 0x2AF PUSH2 0x122 JUMP JUMPDEST JUMPDEST PUSH0 DUP5 ADD CALLDATALOAD PUSH8 0xFFFFFFFFFFFFFFFF DUP2 GT ISZERO PUSH2 0x2CD JUMPI PUSH2 0x2CC PUSH2 0x126 JUMP JUMPDEST JUMPDEST PUSH2 0x2D9 DUP7 DUP3 DUP8 ADD PUSH2 0x239 JUMP JUMPDEST SWAP4 POP POP PUSH1 0x20 DUP5 ADD CALLDATALOAD PUSH8 0xFFFFFFFFFFFFFFFF DUP2 GT ISZERO PUSH2 0x2FA JUMPI PUSH2 0x2F9 PUSH2 0x126 JUMP JUMPDEST JUMPDEST PUSH2 0x306 DUP7 DUP3 DUP8 ADD PUSH2 0x239 JUMP JUMPDEST SWAP3 POP POP PUSH1 0x40 PUSH2 0x317 DUP7 DUP3 DUP8 ADD PUSH2 0x285 JUMP JUMPDEST SWAP2 POP POP SWAP3 POP SWAP3 POP SWAP3 JUMP JUMPDEST PUSH0 PUSH20 0xFFFFFFFFFFFFFFFFFFFFFFFFFFFFFFFFFFFFFFFF DUP3 AND SWAP1 POP SWAP2 SWAP1 POP JUMP JUMPDEST PUSH0 PUSH2 0x34A DUP3 PUSH2 0x321 JUMP JUMPDEST SWAP1 POP SWAP2 SWAP1 POP JUMP JUMPDEST PUSH2 0x35A DUP2 PUSH2 0x340 JUMP JUMPDEST DUP3 MSTORE POP POP JUMP JUMPDEST PUSH0 PUSH1 0x20 DUP3 ADD SWAP1 POP PUSH2 0x373 PUSH0 DUP4 ADD DUP5 PUSH2 0x351 JUMP JUMPDEST SWAP3 SWAP2 POP POP JUMP JUMPDEST PUSH0 DUP2 MLOAD SWAP1 POP SWAP2 SWAP1 POP JUMP JUMPDEST PUSH0 DUP3 DUP3 MSTORE PUSH1 0x20 DUP3 ADD SWAP1 POP SWAP3 SWAP2 POP POP JUMP JUMPDEST DUP3 DUP2 DUP4 MCOPY PUSH0 DUP4 DUP4 ADD MSTORE POP POP POP JUMP JUMPDEST PUSH0 PUSH2 0x3AB DUP3 PUSH2 0x379 JUMP JUMPDEST PUSH2 0x3B5 DUP2 DUP6 PUSH2 0x383 JUMP JUMPDEST SWAP4 POP PUSH2 0x3C5 DUP2 DUP6 PUSH1 0x20 DUP7 ADD PUSH2 0x393 JUMP JUMPDEST PUSH2 0x3CE DUP2 PUSH2 0x132 JUMP JUMPDEST DUP5 ADD SWAP2 POP POP SWAP3 SWAP2 POP POP JUMP JUMPDEST PUSH2 0x3E2 DUP2 PUSH2 0x266 JUMP JUMPDEST DUP3 MSTORE POP POP JUMP JUMPDEST PUSH0 PUSH1 0x80 DUP3 ADD SWAP1 POP DUP2 DUP2 SUB PUSH0 DUP4 ADD MSTORE PUSH2 0x400 DUP2 DUP8 PUSH2 0x3A1 JUMP JUMPDEST SWAP1 POP DUP2 DUP2 SUB PUSH1 0x20 DUP4 ADD MSTORE PUSH2 0x414 DUP2 DUP7 PUSH2 0x3A1 JUMP JUMPDEST SWAP1 POP PUSH2 0x423 PUSH1 0x40 DUP4 ADD DUP6 PUSH2 0x3D9 JUMP JUMPDEST PUSH2 0x430 PUSH1 0x60 DUP4 ADD DUP5 PUSH2 0x351 JUMP JUMPDEST SWAP6 SWAP5 POP POP POP POP POP JUMP JUMPDEST PUSH0 PUSH1 0x60 DUP3 ADD SWAP1 POP DUP2 DUP2 SUB PUSH0 DUP4 ADD MSTORE PUSH2 0x451 DUP2 DUP7 PUSH2 0x3A1 JUMP JUMPDEST SWAP1 POP DUP2 DUP2 SUB PUSH1 0x20 DUP4 ADD MSTORE PUSH2 0x465 DUP2 DUP6 PUSH2 0x3A1 JUMP JUMPDEST SWAP1 POP PUSH2 0x474 PUSH1 0x40 DUP4 ADD DUP5 PUSH2 0x3D9 JUMP JUMPDEST SWAP5 SWAP4 POP POP POP POP JUMP INVALID PUSH1 0x80 PUSH1 0x40 MSTORE CALLVALUE DUP1 ISZERO PUSH2 0xF JUMPI PUSH0 DUP1 REVERT JUMPDEST POP PUSH1 0x40 MLOAD PUSH2 0x19A8 CODESIZE SUB DUP1 PUSH2 0x19A8 DUP4 CODECOPY DUP2 DUP2 ADD PUSH1 0x40 MSTORE DUP2 ADD SWAP1 PUSH2 0x31 SWAP2 SWAP1 PUSH2 0x552 JUMP JUMPDEST DUP4 DUP4 DUP2 PUSH1 0x3 SWAP1 DUP2 PUSH2 0x42 SWAP2 SWAP1 PUSH2 0x7F2 JUMP JUMPDEST POP DUP1 PUSH1 0x4 SWAP1 DUP2 PUSH2 0x52 SWAP2 SWAP1 PUSH2 0x7F2 JUMP JUMPDEST POP POP POP PUSH2 0x89 DUP2 PUSH2 0x67 PUSH2 0xD2 PUSH1 0x20 SHL PUSH1 0x20 SHR JUMP JUMPDEST PUSH1 0xA PUSH2 0x73 SWAP2 SWAP1 PUSH2 0xA29 JUMP JUMPDEST DUP5 PUSH2 0x7E SWAP2 SWAP1 PUSH2 0xA73 JUMP JUMPDEST PUSH2 0xDA PUSH1 0x20 SHL PUSH1 0x20 SHR JUMP JUMPDEST DUP1 PUSH1 0x5 PUSH0 PUSH2 0x100 EXP DUP2 SLOAD DUP2 PUSH20 0xFFFFFFFFFFFFFFFFFFFFFFFFFFFFFFFFFFFFFFFF MUL NOT AND SWAP1 DUP4 PUSH20 0xFFFFFFFFFFFFFFFFFFFFFFFFFFFFFFFFFFFFFFFF AND MUL OR SWAP1 SSTORE POP POP POP POP POP PUSH2 0xB6C JUMP JUMPDEST PUSH0 PUSH1 0x12 SWAP1 POP SWAP1 JUMP JUMPDEST PUSH0 PUSH20 0xFFFFFFFFFFFFFFFFFFFFFFFFFFFFFFFFFFFFFFFF AND DUP3 PUSH20 0xFFFFFFFFFFFFFFFFFFFFFFFFFFFFFFFFFFFFFFFF AND SUB PUSH2 0x14A JUMPI PUSH0 PUSH1 0x40 MLOAD PUSH32 0xEC442F0500000000000000000000000000000000000000000000000000000000 DUP2 MSTORE PUSH1 0x4 ADD PUSH2 0x141 SWAP2 SWAP1 PUSH2 0xAC3 JUMP JUMPDEST PUSH1 0x40 MLOAD DUP1 SWAP2 SUB SWAP1 REVERT JUMPDEST PUSH2 0x15B PUSH0 DUP4 DUP4 PUSH2 0x15F PUSH1 0x20 SHL PUSH1 0x20 SHR JUMP JUMPDEST POP POP JUMP JUMPDEST PUSH0 PUSH20 0xFFFFFFFFFFFFFFFFFFFFFFFFFFFFFFFFFFFFFFFF AND DUP4 PUSH20 0xFFFFFFFFFFFFFFFFFFFFFFFFFFFFFFFFFFFFFFFF AND SUB PUSH2 0x1AF JUMPI DUP1 PUSH1 0x2 PUSH0 DUP3 DUP3 SLOAD PUSH2 0x1A3 SWAP2 SWAP1 PUSH2 0xADC JUMP JUMPDEST SWAP3 POP POP DUP2 SWAP1 SSTORE POP PUSH2 0x27D JUMP JUMPDEST PUSH0 DUP1 PUSH0 DUP6 PUSH20 0xFFFFFFFFFFFFFFFFFFFFFFFFFFFFFFFFFFFFFFFF AND PUSH20 0xFFFFFFFFFFFFFFFFFFFFFFFFFFFFFFFFFFFFFFFF AND DUP2 MSTORE PUSH1 0x20 ADD SWAP1 DUP2 MSTORE PUSH1 0x20 ADD PUSH0 KECCAK256 SLOAD SWAP1 POP DUP2 DUP2 LT ISZERO PUSH2 0x238 JUMPI DUP4 DUP2 DUP4 PUSH1 0x40 MLOAD PUSH32 0xE450D38C00000000000000000000000000000000000000000000000000000000 DUP2 MSTORE PUSH1 0x4 ADD PUSH2 0x22F SWAP4 SWAP3 SWAP2 SWAP1 PUSH2 0xB1E JUMP JUMPDEST PUSH1 0x40 MLOAD DUP1 SWAP2 SUB SWAP1 REVERT JUMPDEST DUP2 DUP2 SUB PUSH0 DUP1 DUP7 PUSH20 0xFFFFFFFFFFFFFFFFFFFFFFFFFFFFFFFFFFFFFFFF AND PUSH20 0xFFFFFFFFFFFFFFFFFFFFFFFFFFFFFFFFFFFFFFFF AND DUP2 MSTORE PUSH1 0x20 ADD SWAP1 DUP2 MSTORE PUSH1 0x20 ADD PUSH0 KECCAK256 DUP2 SWAP1 SSTORE POP POP JUMPDEST PUSH0 PUSH20 0xFFFFFFFFFFFFFFFFFFFFFFFFFFFFFFFFFFFFFFFF AND DUP3 PUSH20 0xFFFFFFFFFFFFFFFFFFFFFFFFFFFFFFFFFFFFFFFF AND SUB PUSH2 0x2C4 JUMPI DUP1 PUSH1 0x2 PUSH0 DUP3 DUP3 SLOAD SUB SWAP3 POP POP DUP2 SWAP1 SSTORE POP PUSH2 0x30E JUMP JUMPDEST DUP1 PUSH0 DUP1 DUP5 PUSH20 0xFFFFFFFFFFFFFFFFFFFFFFFFFFFFFFFFFFFFFFFF AND PUSH20 0xFFFFFFFFFFFFFFFFFFFFFFFFFFFFFFFFFFFFFFFF AND DUP2 MSTORE PUSH1 0x20 ADD SWAP1 DUP2 MSTORE PUSH1 0x20 ADD PUSH0 KECCAK256 PUSH0 DUP3 DUP3 SLOAD ADD SWAP3 POP POP DUP2 SWAP1 SSTORE POP JUMPDEST DUP2 PUSH20 0xFFFFFFFFFFFFFFFFFFFFFFFFFFFFFFFFFFFFFFFF AND DUP4 PUSH20 0xFFFFFFFFFFFFFFFFFFFFFFFFFFFFFFFFFFFFFFFF AND PUSH32 0xDDF252AD1BE2C89B69C2B068FC378DAA952BA7F163C4A11628F55A4DF523B3EF DUP4 PUSH1 0x40 MLOAD PUSH2 0x36B SWAP2 SWAP1 PUSH2 0xB53 JUMP JUMPDEST PUSH1 0x40 MLOAD DUP1 SWAP2 SUB SWAP1 LOG3 POP POP POP JUMP JUMPDEST PUSH0 PUSH1 0x40 MLOAD SWAP1 POP SWAP1 JUMP JUMPDEST PUSH0 DUP1 REVERT JUMPDEST PUSH0 DUP1 REVERT JUMPDEST PUSH0 DUP1 REVERT JUMPDEST PUSH0 DUP1 REVERT JUMPDEST PUSH0 PUSH1 0x1F NOT PUSH1 0x1F DUP4 ADD AND SWAP1 POP SWAP2 SWAP1 POP JUMP JUMPDEST PUSH32 0x4E487B7100000000000000000000000000000000000000000000000000000000 PUSH0 MSTORE PUSH1 0x41 PUSH1 0x4 MSTORE PUSH1 0x24 PUSH0 REVERT JUMPDEST PUSH2 0x3D7 DUP3 PUSH2 0x391 JUMP JUMPDEST DUP2 ADD DUP2 DUP2 LT PUSH8 0xFFFFFFFFFFFFFFFF DUP3 GT OR ISZERO PUSH2 0x3F6 JUMPI PUSH2 0x3F5 PUSH2 0x3A1 JUMP JUMPDEST JUMPDEST DUP1 PUSH1 0x40 MSTORE POP POP POP JUMP JUMPDEST PUSH0 PUSH2 0x408 PUSH2 0x378 JUMP JUMPDEST SWAP1 POP PUSH2 0x414 DUP3 DUP3 PUSH2 0x3CE JUMP JUMPDEST SWAP2 SWAP1 POP JUMP JUMPDEST PUSH0 PUSH8 0xFFFFFFFFFFFFFFFF DUP3 GT ISZERO PUSH2 0x433 JUMPI PUSH2 0x432 PUSH2 0x3A1 JUMP JUMPDEST JUMPDEST PUSH2 0x43C DUP3 PUSH2 0x391 JUMP JUMPDEST SWAP1 POP PUSH1 0x20 DUP2 ADD SWAP1 POP SWAP2 SWAP1 POP JUMP JUMPDEST DUP3 DUP2 DUP4 MCOPY PUSH0 DUP4 DUP4 ADD MSTORE POP POP POP JUMP JUMPDEST PUSH0 PUSH2 0x469 PUSH2 0x464 DUP5 PUSH2 0x419 JUMP JUMPDEST PUSH2 0x3FF JUMP JUMPDEST SWAP1 POP DUP3 DUP2 MSTORE PUSH1 0x20 DUP2 ADD DUP5 DUP5 DUP5 ADD GT ISZERO PUSH2 0x485 JUMPI PUSH2 0x484 PUSH2 0x38D JUMP JUMPDEST JUMPDEST PUSH2 0x490 DUP5 DUP3 DUP6 PUSH2 0x449 JUMP JUMPDEST POP SWAP4 SWAP3 POP POP POP JUMP JUMPDEST PUSH0 DUP3 PUSH1 0x1F DUP4 ADD SLT PUSH2 0x4AC JUMPI PUSH2 0x4AB PUSH2 0x389 JUMP JUMPDEST JUMPDEST DUP2 MLOAD PUSH2 0x4BC DUP5 DUP3 PUSH1 0x20 DUP7 ADD PUSH2 0x457 JUMP JUMPDEST SWAP2 POP POP SWAP3 SWAP2 POP POP JUMP JUMPDEST PUSH0 DUP2 SWAP1 POP SWAP2 SWAP1 POP JUMP JUMPDEST PUSH2 0x4D7 DUP2 PUSH2 0x4C5 JUMP JUMPDEST DUP2 EQ PUSH2 0x4E1 JUMPI PUSH0 DUP1 REVERT JUMPDEST POP JUMP JUMPDEST PUSH0 DUP2 MLOAD SWAP1 POP PUSH2 0x4F2 DUP2 PUSH2 0x4CE JUMP JUMPDEST SWAP3 SWAP2 POP POP JUMP JUMPDEST PUSH0 PUSH20 0xFFFFFFFFFFFFFFFFFFFFFFFFFFFFFFFFFFFFFFFF DUP3 AND SWAP1 POP SWAP2 SWAP1 POP JUMP JUMPDEST PUSH0 PUSH2 0x521 DUP3 PUSH2 0x4F8 JUMP JUMPDEST SWAP1 POP SWAP2 SWAP1 POP JUMP JUMPDEST PUSH2 0x531 DUP2 PUSH2 0x517 JUMP JUMPDEST DUP2 EQ PUSH2 0x53B JUMPI PUSH0 DUP1 REVERT JUMPDEST POP JUMP JUMPDEST PUSH0 DUP2 MLOAD SWAP1 POP PUSH2 0x54C DUP2 PUSH2 0x528 JUMP JUMPDEST SWAP3 SWAP2 POP POP JUMP JUMPDEST PUSH0 DUP1 PUSH0 DUP1 PUSH1 0x80 DUP6 DUP8 SUB SLT ISZERO PUSH2 0x56A JUMPI PUSH2 0x569 PUSH2 0x381 JUMP JUMPDEST JUMPDEST PUSH0 DUP6 ADD MLOAD PUSH8 0xFFFFFFFFFFFFFFFF DUP2 GT ISZERO PUSH2 0x587 JUMPI PUSH2 0x586 PUSH2 0x385 JUMP JUMPDEST JUMPDEST PUSH2 0x593 DUP8 DUP3 DUP9 ADD PUSH2 0x498 JUMP JUMPDEST SWAP5 POP POP PUSH1 0x20 DUP6 ADD MLOAD PUSH8 0xFFFFFFFFFFFFFFFF DUP2 GT ISZERO PUSH2 0x5B4 JUMPI PUSH2 0x5B3 PUSH2 0x385 JUMP JUMPDEST JUMPDEST PUSH2 0x5C0 DUP8 DUP3 DUP9 ADD PUSH2 0x498 JUMP JUMPDEST SWAP4 POP POP PUSH1 0x40 PUSH2 0x5D1 DUP8 DUP3 DUP9 ADD PUSH2 0x4E4 JUMP JUMPDEST SWAP3 POP POP PUSH1 0x60 PUSH2 0x5E2 DUP8 DUP3 DUP9 ADD PUSH2 0x53E JUMP JUMPDEST SWAP2 POP POP SWAP3 SWAP6 SWAP2 SWAP5 POP SWAP3 POP JUMP JUMPDEST PUSH0 DUP2 MLOAD SWAP1 POP SWAP2 SWAP1 POP JUMP JUMPDEST PUSH32 0x4E487B7100000000000000000000000000000000000000000000000000000000 PUSH0 MSTORE PUSH1 0x22 PUSH1 0x4 MSTORE PUSH1 0x24 PUSH0 REVERT JUMPDEST PUSH0 PUSH1 0x2 DUP3 DIV SWAP1 POP PUSH1 0x1 DUP3 AND DUP1 PUSH2 0x63C JUMPI PUSH1 0x7F DUP3 AND SWAP2 POP JUMPDEST PUSH1 0x20 DUP3 LT DUP2 SUB PUSH2 0x64F JUMPI PUSH2 0x64E PUSH2 0x5F8 JUMP JUMPDEST JUMPDEST POP SWAP2 SWAP1 POP JUMP JUMPDEST PUSH0 DUP2 SWAP1 POP DUP2 PUSH0 MSTORE PUSH1 0x20 PUSH0 KECCAK256 SWAP1 POP SWAP2 SWAP1 POP JUMP JUMPDEST PUSH0 PUSH1 0x20 PUSH1 0x1F DUP4 ADD DIV SWAP1 POP SWAP2 SWAP1 POP JUMP JUMPDEST PUSH0 DUP3 DUP3 SHL SWAP1 POP SWAP3 SWAP2 POP POP JUMP JUMPDEST PUSH0 PUSH1 0x8 DUP4 MUL PUSH2 0x6B1 PUSH32 0xFFFFFFFFFFFFFFFFFFFFFFFFFFFFFFFFFFFFFFFFFFFFFFFFFFFFFFFFFFFFFFFF DUP3 PUSH2 0x676 JUMP JUMPDEST PUSH2 0x6BB DUP7 DUP4 PUSH2 0x676 JUMP JUMPDEST SWAP6 POP DUP1 NOT DUP5 AND SWAP4 POP DUP1 DUP7 AND DUP5 OR SWAP3 POP POP POP SWAP4 SWAP3 POP POP POP JUMP JUMPDEST PUSH0 DUP2 SWAP1 POP SWAP2 SWAP1 POP JUMP JUMPDEST PUSH0 PUSH2 0x6F6 PUSH2 0x6F1 PUSH2 0x6EC DUP5 PUSH2 0x4C5 JUMP JUMPDEST PUSH2 0x6D3 JUMP JUMPDEST PUSH2 0x4C5 JUMP JUMPDEST SWAP1 POP SWAP2 SWAP1 POP JUMP JUMPDEST PUSH0 DUP2 SWAP1 POP SWAP2 SWAP1 POP JUMP JUMPDEST PUSH2 0x70F DUP4 PUSH2 0x6DC JUMP JUMPDEST PUSH2 0x723 PUSH2 0x71B DUP3 PUSH2 0x6FD JUMP JUMPDEST DUP5 DUP5 SLOAD PUSH2 0x682 JUMP JUMPDEST DUP3 SSTORE POP POP POP POP JUMP JUMPDEST PUSH0 SWAP1 JUMP JUMPDEST PUSH2 0x737 PUSH2 0x72B JUMP JUMPDEST PUSH2 0x742 DUP2 DUP5 DUP5 PUSH2 0x706 JUMP JUMPDEST POP POP POP JUMP JUMPDEST JUMPDEST DUP2 DUP2 LT ISZERO PUSH2 0x765 JUMPI PUSH2 0x75A PUSH0 DUP3 PUSH2 0x72F JUMP JUMPDEST PUSH1 0x1 DUP2 ADD SWAP1 POP PUSH2 0x748 JUMP JUMPDEST POP POP JUMP JUMPDEST PUSH1 0x1F DUP3 GT ISZERO PUSH2 0x7AA JUMPI PUSH2 0x77B DUP2 PUSH2 0x655 JUMP JUMPDEST PUSH2 0x784 DUP5 PUSH2 0x667 JUMP JUMPDEST DUP2 ADD PUSH1 0x20 DUP6 LT ISZERO PUSH2 0x793 JUMPI DUP2 SWAP1 POP JUMPDEST PUSH2 0x7A7 PUSH2 0x79F DUP6 PUSH2 0x667 JUMP JUMPDEST DUP4 ADD DUP3 PUSH2 0x747 JUMP JUMPDEST POP POP JUMPDEST POP POP POP JUMP JUMPDEST PUSH0 DUP3 DUP3 SHR SWAP1 POP SWAP3 SWAP2 POP POP JUMP JUMPDEST PUSH0 PUSH2 0x7CA PUSH0 NOT DUP5 PUSH1 0x8 MUL PUSH2 0x7AF JUMP JUMPDEST NOT DUP1 DUP4 AND SWAP2 POP POP SWAP3 SWAP2 POP POP JUMP JUMPDEST PUSH0 PUSH2 0x7E2 DUP4 DUP4 PUSH2 0x7BB JUMP JUMPDEST SWAP2 POP DUP3 PUSH1 0x2 MUL DUP3 OR SWAP1 POP SWAP3 SWAP2 POP POP JUMP JUMPDEST PUSH2 0x7FB DUP3 PUSH2 0x5EE JUMP JUMPDEST PUSH8 0xFFFFFFFFFFFFFFFF DUP2 GT ISZERO PUSH2 0x814 JUMPI PUSH2 0x813 PUSH2 0x3A1 JUMP JUMPDEST JUMPDEST PUSH2 0x81E DUP3 SLOAD PUSH2 0x625 JUMP JUMPDEST PUSH2 0x829 DUP3 DUP3 DUP6 PUSH2 0x769 JUMP JUMPDEST PUSH0 PUSH1 0x20 SWAP1 POP PUSH1 0x1F DUP4 GT PUSH1 0x1 DUP2 EQ PUSH2 0x85A JUMPI PUSH0 DUP5 ISZERO PUSH2 0x848 JUMPI DUP3 DUP8 ADD MLOAD SWAP1 POP JUMPDEST PUSH2 0x852 DUP6 DUP3 PUSH2 0x7D7 JUMP JUMPDEST DUP7 SSTORE POP PUSH2 0x8B9 JUMP JUMPDEST PUSH1 0x1F NOT DUP5 AND PUSH2 0x868 DUP7 PUSH2 0x655 JUMP JUMPDEST PUSH0 JUMPDEST DUP3 DUP2 LT ISZERO PUSH2 0x88F JUMPI DUP5 DUP10 ADD MLOAD DUP3 SSTORE PUSH1 0x1 DUP3 ADD SWAP2 POP PUSH1 0x20 DUP6 ADD SWAP5 POP PUSH1 0x20 DUP2 ADD SWAP1 POP PUSH2 0x86A JUMP JUMPDEST DUP7 DUP4 LT ISZERO PUSH2 0x8AC JUMPI DUP5 DUP10 ADD MLOAD PUSH2 0x8A8 PUSH1 0x1F DUP10 AND DUP3 PUSH2 0x7BB JUMP JUMPDEST DUP4 SSTORE POP JUMPDEST PUSH1 0x1 PUSH1 0x2 DUP9 MUL ADD DUP9 SSTORE POP POP POP JUMPDEST POP POP POP POP POP POP JUMP JUMPDEST PUSH32 0x4E487B7100000000000000000000000000000000000000000000000000000000 PUSH0 MSTORE PUSH1 0x11 PUSH1 0x4 MSTORE PUSH1 0x24 PUSH0 REVERT JUMPDEST PUSH0 DUP2 PUSH1 0x1 SHR SWAP1 POP SWAP2 SWAP1 POP JUMP JUMPDEST PUSH0 DUP1 DUP3 SWAP2 POP DUP4 SWAP1 POP JUMPDEST PUSH1 0x1 DUP6 GT ISZERO PUSH2 0x943 JUMPI DUP1 DUP7 DIV DUP2 GT ISZERO PUSH2 0x91F JUMPI PUSH2 0x91E PUSH2 0x8C1 JUMP JUMPDEST JUMPDEST PUSH1 0x1 DUP6 AND ISZERO PUSH2 0x92E JUMPI DUP1 DUP3 MUL SWAP2 POP JUMPDEST DUP1 DUP2 MUL SWAP1 POP PUSH2 0x93C DUP6 PUSH2 0x8EE JUMP JUMPDEST SWAP5 POP PUSH2 0x903 JUMP JUMPDEST SWAP5 POP SWAP5 SWAP3 POP POP POP JUMP JUMPDEST PUSH0 DUP3 PUSH2 0x95B JUMPI PUSH1 0x1 SWAP1 POP PUSH2 0xA16 JUMP JUMPDEST DUP2 PUSH2 0x968 JUMPI PUSH0 SWAP1 POP PUSH2 0xA16 JUMP JUMPDEST DUP2 PUSH1 0x1 DUP2 EQ PUSH2 0x97E JUMPI PUSH1 0x2 DUP2 EQ PUSH2 0x988 JUMPI PUSH2 0x9B7 JUMP JUMPDEST PUSH1 0x1 SWAP2 POP POP PUSH2 0xA16 JUMP JUMPDEST PUSH1 0xFF DUP5 GT ISZERO PUSH2 0x99A JUMPI PUSH2 0x999 PUSH2 0x8C1 JUMP JUMPDEST JUMPDEST DUP4 PUSH1 0x2 EXP SWAP2 POP DUP5 DUP3 GT ISZERO PUSH2 0x9B1 JUMPI PUSH2 0x9B0 PUSH2 0x8C1 JUMP JUMPDEST JUMPDEST POP PUSH2 0xA16 JUMP JUMPDEST POP PUSH1 0x20 DUP4 LT PUSH2 0x133 DUP4 LT AND PUSH1 0x4E DUP5 LT PUSH1 0xB DUP5 LT AND OR ISZERO PUSH2 0x9EC JUMPI DUP3 DUP3 EXP SWAP1 POP DUP4 DUP2 GT ISZERO PUSH2 0x9E7 JUMPI PUSH2 0x9E6 PUSH2 0x8C1 JUMP JUMPDEST JUMPDEST PUSH2 0xA16 JUMP JUMPDEST PUSH2 0x9F9 DUP5 DUP5 DUP5 PUSH1 0x1 PUSH2 0x8FA JUMP JUMPDEST SWAP3 POP SWAP1 POP DUP2 DUP5 DIV DUP2 GT ISZERO PUSH2 0xA10 JUMPI PUSH2 0xA0F PUSH2 0x8C1 JUMP JUMPDEST JUMPDEST DUP2 DUP2 MUL SWAP1 POP JUMPDEST SWAP4 SWAP3 POP POP POP JUMP JUMPDEST PUSH0 PUSH1 0xFF DUP3 AND SWAP1 POP SWAP2 SWAP1 POP JUMP JUMPDEST PUSH0 PUSH2 0xA33 DUP3 PUSH2 0x4C5 JUMP JUMPDEST SWAP2 POP PUSH2 0xA3E DUP4 PUSH2 0xA1D JUMP JUMPDEST SWAP3 POP PUSH2 0xA6B PUSH32 0xFFFFFFFFFFFFFFFFFFFFFFFFFFFFFFFFFFFFFFFFFFFFFFFFFFFFFFFFFFFFFFFF DUP5 DUP5 PUSH2 0x94C JUMP JUMPDEST SWAP1 POP SWAP3 SWAP2 POP POP JUMP JUMPDEST PUSH0 PUSH2 0xA7D DUP3 PUSH2 0x4C5 JUMP JUMPDEST SWAP2 POP PUSH2 0xA88 DUP4 PUSH2 0x4C5 JUMP JUMPDEST SWAP3 POP DUP3 DUP3 MUL PUSH2 0xA96 DUP2 PUSH2 0x4C5 JUMP JUMPDEST SWAP2 POP DUP3 DUP3 DIV DUP5 EQ DUP4 ISZERO OR PUSH2 0xAAD JUMPI PUSH2 0xAAC PUSH2 0x8C1 JUMP JUMPDEST JUMPDEST POP SWAP3 SWAP2 POP POP JUMP JUMPDEST PUSH2 0xABD DUP2 PUSH2 0x517 JUMP JUMPDEST DUP3 MSTORE POP POP JUMP JUMPDEST PUSH0 PUSH1 0x20 DUP3 ADD SWAP1 POP PUSH2 0xAD6 PUSH0 DUP4 ADD DUP5 PUSH2 0xAB4 JUMP JUMPDEST SWAP3 SWAP2 POP POP JUMP JUMPDEST PUSH0 PUSH2 0xAE6 DUP3 PUSH2 0x4C5 JUMP JUMPDEST SWAP2 POP PUSH2 0xAF1 DUP4 PUSH2 0x4C5 JUMP JUMPDEST SWAP3 POP DUP3 DUP3 ADD SWAP1 POP DUP1 DUP3 GT ISZERO PUSH2 0xB09 JUMPI PUSH2 0xB08 PUSH2 0x8C1 JUMP JUMPDEST JUMPDEST SWAP3 SWAP2 POP POP JUMP JUMPDEST PUSH2 0xB18 DUP2 PUSH2 0x4C5 JUMP JUMPDEST DUP3 MSTORE POP POP JUMP JUMPDEST PUSH0 PUSH1 0x60 DUP3 ADD SWAP1 POP PUSH2 0xB31 PUSH0 DUP4 ADD DUP7 PUSH2 0xAB4 JUMP JUMPDEST PUSH2 0xB3E PUSH1 0x20 DUP4 ADD DUP6 PUSH2 0xB0F JUMP JUMPDEST PUSH2 0xB4B PUSH1 0x40 DUP4 ADD DUP5 PUSH2 0xB0F JUMP JUMPDEST SWAP5 SWAP4 POP POP POP POP JUMP JUMPDEST PUSH0 PUSH1 0x20 DUP3 ADD SWAP1 POP PUSH2 0xB66 PUSH0 DUP4 ADD DUP5 PUSH2 0xB0F JUMP JUMPDEST SWAP3 SWAP2 POP POP JUMP JUMPDEST PUSH2 0xE2F DUP1 PUSH2 0xB79 PUSH0 CODECOPY PUSH0 RETURN INVALID PUSH1 0x80 PUSH1 0x40 MSTORE CALLVALUE DUP1 ISZERO PUSH2 0xF JUMPI PUSH0 DUP1 REVERT JUMPDEST POP PUSH1 0x4 CALLDATASIZE LT PUSH2 0x9C JUMPI PUSH0 CALLDATALOAD PUSH1 0xE0 SHR DUP1 PUSH4 0x70A08231 GT PUSH2 0x64 JUMPI DUP1 PUSH4 0x70A08231 EQ PUSH2 0x15A JUMPI DUP1 PUSH4 0x8DA5CB5B EQ PUSH2 0x18A JUMPI DUP1 PUSH4 0x95D89B41 EQ PUSH2 0x1A8 JUMPI DUP1 PUSH4 0xA9059CBB EQ PUSH2 0x1C6 JUMPI DUP1 PUSH4 0xDD62ED3E EQ PUSH2 0x1F6 JUMPI PUSH2 0x9C JUMP JUMPDEST DUP1 PUSH4 0x6FDDE03 EQ PUSH2 0xA0 JUMPI DUP1 PUSH4 0x95EA7B3 EQ PUSH2 0xBE JUMPI DUP1 PUSH4 0x18160DDD EQ PUSH2 0xEE JUMPI DUP1 PUSH4 0x23B872DD EQ PUSH2 0x10C JUMPI DUP1 PUSH4 0x313CE567 EQ PUSH2 0x13C JUMPI JUMPDEST PUSH0 DUP1 REVERT JUMPDEST PUSH2 0xA8 PUSH2 0x226 JUMP JUMPDEST PUSH1 0x40 MLOAD PUSH2 0xB5 SWAP2 SWAP1 PUSH2 0xAA8 JUMP JUMPDEST PUSH1 0x40 MLOAD DUP1 SWAP2 SUB SWAP1 RETURN JUMPDEST PUSH2 0xD8 PUSH1 0x4 DUP1 CALLDATASIZE SUB DUP2 ADD SWAP1 PUSH2 0xD3 SWAP2 SWAP1 PUSH2 0xB59 JUMP JUMPDEST PUSH2 0x2B6 JUMP JUMPDEST PUSH1 0x40 MLOAD PUSH2 0xE5 SWAP2 SWAP1 PUSH2 0xBB1 JUMP JUMPDEST PUSH1 0x40 MLOAD DUP1 SWAP2 SUB SWAP1 RETURN JUMPDEST PUSH2 0xF6 PUSH2 0x2D8 JUMP JUMPDEST PUSH1 0x40 MLOAD PUSH2 0x103 SWAP2 SWAP1 PUSH2 0xBD9 JUMP JUMPDEST PUSH1 0x40 MLOAD DUP1 SWAP2 SUB SWAP1 RETURN JUMPDEST PUSH2 0x126 PUSH1 0x4 DUP1 CALLDATASIZE SUB DUP2 ADD SWAP1 PUSH2 0x121 SWAP2 SWAP1 PUSH2 0xBF2 JUMP JUMPDEST PUSH2 0x2E1 JUMP JUMPDEST PUSH1 0x40 MLOAD PUSH2 0x133 SWAP2 SWAP1 PUSH2 0xBB1 JUMP JUMPDEST PUSH1 0x40 MLOAD DUP1 SWAP2 SUB SWAP1 RETURN JUMPDEST PUSH2 0x144 PUSH2 0x30F JUMP JUMPDEST PUSH1 0x40 MLOAD PUSH2 0x151 SWAP2 SWAP1 PUSH2 0xC5D JUMP JUMPDEST PUSH1 0x40 MLOAD DUP1 SWAP2 SUB SWAP1 RETURN JUMPDEST PUSH2 0x174 PUSH1 0x4 DUP1 CALLDATASIZE SUB DUP2 ADD SWAP1 PUSH2 0x16F SWAP2 SWAP1 PUSH2 0xC76 JUMP JUMPDEST PUSH2 0x317 JUMP JUMPDEST PUSH1 0x40 MLOAD PUSH2 0x181 SWAP2 SWAP1 PUSH2 0xBD9 JUMP JUMPDEST PUSH1 0x40 MLOAD DUP1 SWAP2 SUB SWAP1 RETURN JUMPDEST PUSH2 0x192 PUSH2 0x35C JUMP JUMPDEST PUSH1 0x40 MLOAD PUSH2 0x19F SWAP2 SWAP1 PUSH2 0xCB0 JUMP JUMPDEST PUSH1 0x40 MLOAD DUP1 SWAP2 SUB SWAP1 RETURN JUMPDEST PUSH2 0x1B0 PUSH2 0x381 JUMP JUMPDEST PUSH1 0x40 MLOAD PUSH2 0x1BD SWAP2 SWAP1 PUSH2 0xAA8 JUMP JUMPDEST PUSH1 0x40 MLOAD DUP1 SWAP2 SUB SWAP1 RETURN JUMPDEST PUSH2 0x1E0 PUSH1 0x4 DUP1 CALLDATASIZE SUB DUP2 ADD SWAP1 PUSH2 0x1DB SWAP2 SWAP1 PUSH2 0xB59 JUMP JUMPDEST PUSH2 0x411 JUMP JUMPDEST PUSH1 0x40 MLOAD PUSH2 0x1ED SWAP2 SWAP1 PUSH2 0xBB1 JUMP JUMPDEST PUSH1 0x40 MLOAD DUP1 SWAP2 SUB SWAP1 RETURN JUMPDEST PUSH2 0x210 PUSH1 0x4 DUP1 CALLDATASIZE SUB DUP2 ADD SWAP1 PUSH2 0x20B SWAP2 SWAP1 PUSH2 0xCC9 JUMP JUMPDEST PUSH2 0x433 JUMP JUMPDEST PUSH1 0x40 MLOAD PUSH2 0x21D SWAP2 SWAP1 PUSH2 0xBD9 JUMP JUMPDEST PUSH1 0x40 MLOAD DUP1 SWAP2 SUB SWAP1 RETURN JUMPDEST PUSH1 0x60 PUSH1 0x3 DUP1 SLOAD PUSH2 0x235 SWAP1 PUSH2 0xD34 JUMP JUMPDEST DUP1 PUSH1 0x1F ADD PUSH1 0x20 DUP1 SWAP2 DIV MUL PUSH1 0x20 ADD PUSH1 0x40 MLOAD SWAP1 DUP2 ADD PUSH1 0x40 MSTORE DUP1 SWAP3 SWAP2 SWAP1 DUP2 DUP2 MSTORE PUSH1 0x20 ADD DUP3 DUP1 SLOAD PUSH2 0x261 SWAP1 PUSH2 0xD34 JUMP JUMPDEST DUP1 ISZERO PUSH2 0x2AC JUMPI DUP1 PUSH1 0x1F LT PUSH2 0x283 JUMPI PUSH2 0x100 DUP1 DUP4 SLOAD DIV MUL DUP4 MSTORE SWAP2 PUSH1 0x20 ADD SWAP2 PUSH2 0x2AC JUMP JUMPDEST DUP3 ADD SWAP2 SWAP1 PUSH0 MSTORE PUSH1 0x20 PUSH0 KECCAK256 SWAP1 JUMPDEST DUP2 SLOAD DUP2 MSTORE SWAP1 PUSH1 0x1 ADD SWAP1 PUSH1 0x20 ADD DUP1 DUP4 GT PUSH2 0x28F JUMPI DUP3 SWAP1 SUB PUSH1 0x1F AND DUP3 ADD SWAP2 JUMPDEST POP POP POP POP POP SWAP1 POP SWAP1 JUMP JUMPDEST PUSH0 DUP1 PUSH2 0x2C0 PUSH2 0x4B5 JUMP JUMPDEST SWAP1 POP PUSH2 0x2CD DUP2 DUP6 DUP6 PUSH2 0x4BC JUMP JUMPDEST PUSH1 0x1 SWAP2 POP POP SWAP3 SWAP2 POP POP JUMP JUMPDEST PUSH0 PUSH1 0x2 SLOAD SWAP1 POP SWAP1 JUMP JUMPDEST PUSH0 DUP1 PUSH2 0x2EB PUSH2 0x4B5 JUMP JUMPDEST SWAP1 POP PUSH2 0x2F8 DUP6 DUP3 DUP6 PUSH2 0x4CE JUMP JUMPDEST PUSH2 0x303 DUP6 DUP6 DUP6 PUSH2 0x560 JUMP JUMPDEST PUSH1 0x1 SWAP2 POP POP SWAP4 SWAP3 POP POP POP JUMP JUMPDEST PUSH0 PUSH1 0x12 SWAP1 POP SWAP1 JUMP JUMPDEST PUSH0 DUP1 PUSH0 DUP4 PUSH20 0xFFFFFFFFFFFFFFFFFFFFFFFFFFFFFFFFFFFFFFFF AND PUSH20 0xFFFFFFFFFFFFFFFFFFFFFFFFFFFFFFFFFFFFFFFF AND DUP2 MSTORE PUSH1 0x20 ADD SWAP1 DUP2 MSTORE PUSH1 0x20 ADD PUSH0 KECCAK256 SLOAD SWAP1 POP SWAP2 SWAP1 POP JUMP JUMPDEST PUSH1 0x5 PUSH0 SWAP1 SLOAD SWAP1 PUSH2 0x100 EXP SWAP1 DIV PUSH20 0xFFFFFFFFFFFFFFFFFFFFFFFFFFFFFFFFFFFFFFFF AND DUP2 JUMP JUMPDEST PUSH1 0x60 PUSH1 0x4 DUP1 SLOAD PUSH2 0x390 SWAP1 PUSH2 0xD34 JUMP JUMPDEST DUP1 PUSH1 0x1F ADD PUSH1 0x20 DUP1 SWAP2 DIV MUL PUSH1 0x20 ADD PUSH1 0x40 MLOAD SWAP1 DUP2 ADD PUSH1 0x40 MSTORE DUP1 SWAP3 SWAP2 SWAP1 DUP2 DUP2 MSTORE PUSH1 0x20 ADD DUP3 DUP1 SLOAD PUSH2 0x3BC SWAP1 PUSH2 0xD34 JUMP JUMPDEST DUP1 ISZERO PUSH2 0x407 JUMPI DUP1 PUSH1 0x1F LT PUSH2 0x3DE JUMPI PUSH2 0x100 DUP1 DUP4 SLOAD DIV MUL DUP4 MSTORE SWAP2 PUSH1 0x20 ADD SWAP2 PUSH2 0x407 JUMP JUMPDEST DUP3 ADD SWAP2 SWAP1 PUSH0 MSTORE PUSH1 0x20 PUSH0 KECCAK256 SWAP1 JUMPDEST DUP2 SLOAD DUP2 MSTORE SWAP1 PUSH1 0x1 ADD SWAP1 PUSH1 0x20 ADD DUP1 DUP4 GT PUSH2 0x3EA JUMPI DUP3 SWAP1 SUB PUSH1 0x1F AND DUP3 ADD SWAP2 JUMPDEST POP POP POP POP POP SWAP1 POP SWAP1 JUMP JUMPDEST PUSH0 DUP1 PUSH2 0x41B PUSH2 0x4B5 JUMP JUMPDEST SWAP1 POP PUSH2 0x428 DUP2 DUP6 DUP6 PUSH2 0x560 JUMP JUMPDEST PUSH1 0x1 SWAP2 POP POP SWAP3 SWAP2 POP POP JUMP JUMPDEST PUSH0 PUSH1 0x1 PUSH0 DUP5 PUSH20 0xFFFFFFFFFFFFFFFFFFFFFFFFFFFFFFFFFFFFFFFF AND PUSH20 0xFFFFFFFFFFFFFFFFFFFFFFFFFFFFFFFFFFFFFFFF AND DUP2 MSTORE PUSH1 0x20 ADD SWAP1 DUP2 MSTORE PUSH1 0x20 ADD PUSH0 KECCAK256 PUSH0 DUP4 PUSH20 0xFFFFFFFFFFFFFFFFFFFFFFFFFFFFFFFFFFFFFFFF AND PUSH20 0xFFFFFFFFFFFFFFFFFFFFFFFFFFFFFFFFFFFFFFFF AND DUP2 MSTORE PUSH1 0x20 ADD SWAP1 DUP2 MSTORE PUSH1 0x20 ADD PUSH0 KECCAK256 SLOAD SWAP1 POP SWAP3 SWAP2 POP POP JUMP JUMPDEST PUSH0 CALLER SWAP1 POP SWAP1 JUMP JUMPDEST PUSH2 0x4C9 DUP4 DUP4 DUP4 PUSH1 0x1 PUSH2 0x650 JUMP JUMPDEST POP POP POP JUMP JUMPDEST PUSH0 PUSH2 0x4D9 DUP5 DUP5 PUSH2 0x433 JUMP JUMPDEST SWAP1 POP PUSH32 0xFFFFFFFFFFFFFFFFFFFFFFFFFFFFFFFFFFFFFFFFFFFFFFFFFFFFFFFFFFFFFFFF DUP2 EQ PUSH2 0x55A JUMPI DUP2 DUP2 LT ISZERO PUSH2 0x54B JUMPI DUP3 DUP2 DUP4 PUSH1 0x40 MLOAD PUSH32 0xFB8F41B200000000000000000000000000000000000000000000000000000000 DUP2 MSTORE PUSH1 0x4 ADD PUSH2 0x542 SWAP4 SWAP3 SWAP2 SWAP1 PUSH2 0xD64 JUMP JUMPDEST PUSH1 0x40 MLOAD DUP1 SWAP2 SUB SWAP1 REVERT JUMPDEST PUSH2 0x559 DUP5 DUP5 DUP5 DUP5 SUB PUSH0 PUSH2 0x650 JUMP JUMPDEST JUMPDEST POP POP POP POP JUMP JUMPDEST PUSH0 PUSH20 0xFFFFFFFFFFFFFFFFFFFFFFFFFFFFFFFFFFFFFFFF AND DUP4 PUSH20 0xFFFFFFFFFFFFFFFFFFFFFFFFFFFFFFFFFFFFFFFF AND SUB PUSH2 0x5D0 JUMPI PUSH0 PUSH1 0x40 MLOAD PUSH32 0x96C6FD1E00000000000000000000000000000000000000000000000000000000 DUP2 MSTORE PUSH1 0x4 ADD PUSH2 0x5C7 SWAP2 SWAP1 PUSH2 0xCB0 JUMP JUMPDEST PUSH1 0x40 MLOAD DUP1 SWAP2 SUB SWAP1 REVERT JUMPDEST PUSH0 PUSH20 0xFFFFFFFFFFFFFFFFFFFFFFFFFFFFFFFFFFFFFFFF AND DUP3 PUSH20 0xFFFFFFFFFFFFFFFFFFFFFFFFFFFFFFFFFFFFFFFF AND SUB PUSH2 0x640 JUMPI PUSH0 PUSH1 0x40 MLOAD PUSH32 0xEC442F0500000000000000000000000000000000000000000000000000000000 DUP2 MSTORE PUSH1 0x4 ADD PUSH2 0x637 SWAP2 SWAP1 PUSH2 0xCB0 JUMP JUMPDEST PUSH1 0x40 MLOAD DUP1 SWAP2 SUB SWAP1 REVERT JUMPDEST PUSH2 0x64B DUP4 DUP4 DUP4 PUSH2 0x81F JUMP JUMPDEST POP POP POP JUMP JUMPDEST PUSH0 PUSH20 0xFFFFFFFFFFFFFFFFFFFFFFFFFFFFFFFFFFFFFFFF AND DUP5 PUSH20 0xFFFFFFFFFFFFFFFFFFFFFFFFFFFFFFFFFFFFFFFF AND SUB PUSH2 0x6C0 JUMPI PUSH0 PUSH1 0x40 MLOAD PUSH32 0xE602DF0500000000000000000000000000000000000000000000000000000000 DUP2 MSTORE PUSH1 0x4 ADD PUSH2 0x6B7 SWAP2 SWAP1 PUSH2 0xCB0 JUMP JUMPDEST PUSH1 0x40 MLOAD DUP1 SWAP2 SUB SWAP1 REVERT JUMPDEST PUSH0 PUSH20 0xFFFFFFFFFFFFFFFFFFFFFFFFFFFFFFFFFFFFFFFF AND DUP4 PUSH20 0xFFFFFFFFFFFFFFFFFFFFFFFFFFFFFFFFFFFFFFFF AND SUB PUSH2 0x730 JUMPI PUSH0 PUSH1 0x40 MLOAD PUSH32 0x94280D6200000000000000000000000000000000000000000000000000000000 DUP2 MSTORE PUSH1 0x4 ADD PUSH2 0x727 SWAP2 SWAP1 PUSH2 0xCB0 JUMP JUMPDEST PUSH1 0x40 MLOAD DUP1 SWAP2 SUB SWAP1 REVERT JUMPDEST DUP2 PUSH1 0x1 PUSH0 DUP7 PUSH20 0xFFFFFFFFFFFFFFFFFFFFFFFFFFFFFFFFFFFFFFFF AND PUSH20 0xFFFFFFFFFFFFFFFFFFFFFFFFFFFFFFFFFFFFFFFF AND DUP2 MSTORE PUSH1 0x20 ADD SWAP1 DUP2 MSTORE PUSH1 0x20 ADD PUSH0 KECCAK256 PUSH0 DUP6 PUSH20 0xFFFFFFFFFFFFFFFFFFFFFFFFFFFFFFFFFFFFFFFF AND PUSH20 0xFFFFFFFFFFFFFFFFFFFFFFFFFFFFFFFFFFFFFFFF AND DUP2 MSTORE PUSH1 0x20 ADD SWAP1 DUP2 MSTORE PUSH1 0x20 ADD PUSH0 KECCAK256 DUP2 SWAP1 SSTORE POP DUP1 ISZERO PUSH2 0x819 JUMPI DUP3 PUSH20 0xFFFFFFFFFFFFFFFFFFFFFFFFFFFFFFFFFFFFFFFF AND DUP5 PUSH20 0xFFFFFFFFFFFFFFFFFFFFFFFFFFFFFFFFFFFFFFFF AND PUSH32 0x8C5BE1E5EBEC7D5BD14F71427D1E84F3DD0314C0F7B2291E5B200AC8C7C3B925 DUP5 PUSH1 0x40 MLOAD PUSH2 0x810 SWAP2 SWAP1 PUSH2 0xBD9 JUMP JUMPDEST PUSH1 0x40 MLOAD DUP1 SWAP2 SUB SWAP1 LOG3 JUMPDEST POP POP POP POP JUMP JUMPDEST PUSH0 PUSH20 0xFFFFFFFFFFFFFFFFFFFFFFFFFFFFFFFFFFFFFFFF AND DUP4 PUSH20 0xFFFFFFFFFFFFFFFFFFFFFFFFFFFFFFFFFFFFFFFF AND SUB PUSH2 0x86F JUMPI DUP1 PUSH1 0x2 PUSH0 DUP3 DUP3 SLOAD PUSH2 0x863 SWAP2 SWAP1 PUSH2 0xDC6 JUMP JUMPDEST SWAP3 POP POP DUP2 SWAP1 SSTORE POP PUSH2 0x93D JUMP JUMPDEST PUSH0 DUP1 PUSH0 DUP6 PUSH20 0xFFFFFFFFFFFFFFFFFFFFFFFFFFFFFFFFFFFFFFFF AND PUSH20 0xFFFFFFFFFFFFFFFFFFFFFFFFFFFFFFFFFFFFFFFF AND DUP2 MSTORE PUSH1 0x20 ADD SWAP1 DUP2 MSTORE PUSH1 0x20 ADD PUSH0 KECCAK256 SLOAD SWAP1 POP DUP2 DUP2 LT ISZERO PUSH2 0x8F8 JUMPI DUP4 DUP2 DUP4 PUSH1 0x40 MLOAD PUSH32 0xE450D38C00000000000000000000000000000000000000000000000000000000 DUP2 MSTORE PUSH1 0x4 ADD PUSH2 0x8EF SWAP4 SWAP3 SWAP2 SWAP1 PUSH2 0xD64 JUMP JUMPDEST PUSH1 0x40 MLOAD DUP1 SWAP2 SUB SWAP1 REVERT JUMPDEST DUP2 DUP2 SUB PUSH0 DUP1 DUP7 PUSH20 0xFFFFFFFFFFFFFFFFFFFFFFFFFFFFFFFFFFFFFFFF AND PUSH20 0xFFFFFFFFFFFFFFFFFFFFFFFFFFFFFFFFFFFFFFFF AND DUP2 MSTORE PUSH1 0x20 ADD SWAP1 DUP2 MSTORE PUSH1 0x20 ADD PUSH0 KECCAK256 DUP2 SWAP1 SSTORE POP POP JUMPDEST PUSH0 PUSH20 0xFFFFFFFFFFFFFFFFFFFFFFFFFFFFFFFFFFFFFFFF AND DUP3 PUSH20 0xFFFFFFFFFFFFFFFFFFFFFFFFFFFFFFFFFFFFFFFF AND SUB PUSH2 0x984 JUMPI DUP1 PUSH1 0x2 PUSH0 DUP3 DUP3 SLOAD SUB SWAP3 POP POP DUP2 SWAP1 SSTORE POP PUSH2 0x9CE JUMP JUMPDEST DUP1 PUSH0 DUP1 DUP5 PUSH20 0xFFFFFFFFFFFFFFFFFFFFFFFFFFFFFFFFFFFFFFFF AND PUSH20 0xFFFFFFFFFFFFFFFFFFFFFFFFFFFFFFFFFFFFFFFF AND DUP2 MSTORE PUSH1 0x20 ADD SWAP1 DUP2 MSTORE PUSH1 0x20 ADD PUSH0 KECCAK256 PUSH0 DUP3 DUP3 SLOAD ADD SWAP3 POP POP DUP2 SWAP1 SSTORE POP JUMPDEST DUP2 PUSH20 0xFFFFFFFFFFFFFFFFFFFFFFFFFFFFFFFFFFFFFFFF AND DUP4 PUSH20 0xFFFFFFFFFFFFFFFFFFFFFFFFFFFFFFFFFFFFFFFF AND PUSH32 0xDDF252AD1BE2C89B69C2B068FC378DAA952BA7F163C4A11628F55A4DF523B3EF DUP4 PUSH1 0x40 MLOAD PUSH2 0xA2B SWAP2 SWAP1 PUSH2 0xBD9 JUMP JUMPDEST PUSH1 0x40 MLOAD DUP1 SWAP2 SUB SWAP1 LOG3 POP POP POP JUMP JUMPDEST PUSH0 DUP2 MLOAD SWAP1 POP SWAP2 SWAP1 POP JUMP JUMPDEST PUSH0 DUP3 DUP3 MSTORE PUSH1 0x20 DUP3 ADD SWAP1 POP SWAP3 SWAP2 POP POP JUMP JUMPDEST DUP3 DUP2 DUP4 MCOPY PUSH0 DUP4 DUP4 ADD MSTORE POP POP POP JUMP JUMPDEST PUSH0 PUSH1 0x1F NOT PUSH1 0x1F DUP4 ADD AND SWAP1 POP SWAP2 SWAP1 POP JUMP JUMPDEST PUSH0 PUSH2 0xA7A DUP3 PUSH2 0xA38 JUMP JUMPDEST PUSH2 0xA84 DUP2 DUP6 PUSH2 0xA42 JUMP JUMPDEST SWAP4 POP PUSH2 0xA94 DUP2 DUP6 PUSH1 0x20 DUP7 ADD PUSH2 0xA52 JUMP JUMPDEST PUSH2 0xA9D DUP2 PUSH2 0xA60 JUMP JUMPDEST DUP5 ADD SWAP2 POP POP SWAP3 SWAP2 POP POP JUMP JUMPDEST PUSH0 PUSH1 0x20 DUP3 ADD SWAP1 POP DUP2 DUP2 SUB PUSH0 DUP4 ADD MSTORE PUSH2 0xAC0 DUP2 DUP5 PUSH2 0xA70 JUMP JUMPDEST SWAP1 POP SWAP3 SWAP2 POP POP JUMP JUMPDEST PUSH0 DUP1 REVERT JUMPDEST PUSH0 PUSH20 0xFFFFFFFFFFFFFFFFFFFFFFFFFFFFFFFFFFFFFFFF DUP3 AND SWAP1 POP SWAP2 SWAP1 POP JUMP JUMPDEST PUSH0 PUSH2 0xAF5 DUP3 PUSH2 0xACC JUMP JUMPDEST SWAP1 POP SWAP2 SWAP1 POP JUMP JUMPDEST PUSH2 0xB05 DUP2 PUSH2 0xAEB JUMP JUMPDEST DUP2 EQ PUSH2 0xB0F JUMPI PUSH0 DUP1 REVERT JUMPDEST POP JUMP JUMPDEST PUSH0 DUP2 CALLDATALOAD SWAP1 POP PUSH2 0xB20 DUP2 PUSH2 0xAFC JUMP JUMPDEST SWAP3 SWAP2 POP POP JUMP JUMPDEST PUSH0 DUP2 SWAP1 POP SWAP2 SWAP1 POP JUMP JUMPDEST PUSH2 0xB38 DUP2 PUSH2 0xB26 JUMP JUMPDEST DUP2 EQ PUSH2 0xB42 JUMPI PUSH0 DUP1 REVERT JUMPDEST POP JUMP JUMPDEST PUSH0 DUP2 CALLDATALOAD SWAP1 POP PUSH2 0xB53 DUP2 PUSH2 0xB2F JUMP JUMPDEST SWAP3 SWAP2 POP POP JUMP JUMPDEST PUSH0 DUP1 PUSH1 0x40 DUP4 DUP6 SUB SLT ISZERO PUSH2 0xB6F JUMPI PUSH2 0xB6E PUSH2 0xAC8 JUMP JUMPDEST JUMPDEST PUSH0 PUSH2 0xB7C DUP6 DUP3 DUP7 ADD PUSH2 0xB12 JUMP JUMPDEST SWAP3 POP POP PUSH1 0x20 PUSH2 0xB8D DUP6 DUP3 DUP7 ADD PUSH2 0xB45 JUMP JUMPDEST SWAP2 POP POP SWAP3 POP SWAP3 SWAP1 POP JUMP JUMPDEST PUSH0 DUP2 ISZERO ISZERO SWAP1 POP SWAP2 SWAP1 POP JUMP JUMPDEST PUSH2 0xBAB DUP2 PUSH2 0xB97 JUMP JUMPDEST DUP3 MSTORE POP POP JUMP JUMPDEST PUSH0 PUSH1 0x20 DUP3 ADD SWAP1 POP PUSH2 0xBC4 PUSH0 DUP4 ADD DUP5 PUSH2 0xBA2 JUMP JUMPDEST SWAP3 SWAP2 POP POP JUMP JUMPDEST PUSH2 0xBD3 DUP2 PUSH2 0xB26 JUMP JUMPDEST DUP3 MSTORE POP POP JUMP JUMPDEST PUSH0 PUSH1 0x20 DUP3 ADD SWAP1 POP PUSH2 0xBEC PUSH0 DUP4 ADD DUP5 PUSH2 0xBCA JUMP JUMPDEST SWAP3 SWAP2 POP POP JUMP JUMPDEST PUSH0 DUP1 PUSH0 PUSH1 0x60 DUP5 DUP7 SUB SLT ISZERO PUSH2 0xC09 JUMPI PUSH2 0xC08 PUSH2 0xAC8 JUMP JUMPDEST JUMPDEST PUSH0 PUSH2 0xC16 DUP7 DUP3 DUP8 ADD PUSH2 0xB12 JUMP JUMPDEST SWAP4 POP POP PUSH1 0x20 PUSH2 0xC27 DUP7 DUP3 DUP8 ADD PUSH2 0xB12 JUMP JUMPDEST SWAP3 POP POP PUSH1 0x40 PUSH2 0xC38 DUP7 DUP3 DUP8 ADD PUSH2 0xB45 JUMP JUMPDEST SWAP2 POP POP SWAP3 POP SWAP3 POP SWAP3 JUMP JUMPDEST PUSH0 PUSH1 0xFF DUP3 AND SWAP1 POP SWAP2 SWAP1 POP JUMP JUMPDEST PUSH2 0xC57 DUP2 PUSH2 0xC42 JUMP JUMPDEST DUP3 MSTORE POP POP JUMP JUMPDEST PUSH0 PUSH1 0x20 DUP3 ADD SWAP1 POP PUSH2 0xC70 PUSH0 DUP4 ADD DUP5 PUSH2 0xC4E JUMP JUMPDEST SWAP3 SWAP2 POP POP JUMP JUMPDEST PUSH0 PUSH1 0x20 DUP3 DUP5 SUB SLT ISZERO PUSH2 0xC8B JUMPI PUSH2 0xC8A PUSH2 0xAC8 JUMP JUMPDEST JUMPDEST PUSH0 PUSH2 0xC98 DUP5 DUP3 DUP6 ADD PUSH2 0xB12 JUMP JUMPDEST SWAP2 POP POP SWAP3 SWAP2 POP POP JUMP JUMPDEST PUSH2 0xCAA DUP2 PUSH2 0xAEB JUMP JUMPDEST DUP3 MSTORE POP POP JUMP JUMPDEST PUSH0 PUSH1 0x20 DUP3 ADD SWAP1 POP PUSH2 0xCC3 PUSH0 DUP4 ADD DUP5 PUSH2 0xCA1 JUMP JUMPDEST SWAP3 SWAP2 POP POP JUMP JUMPDEST PUSH0 DUP1 PUSH1 0x40 DUP4 DUP6 SUB SLT ISZERO PUSH2 0xCDF JUMPI PUSH2 0xCDE PUSH2 0xAC8 JUMP JUMPDEST JUMPDEST PUSH0 PUSH2 0xCEC DUP6 DUP3 DUP7 ADD PUSH2 0xB12 JUMP JUMPDEST SWAP3 POP POP PUSH1 0x20 PUSH2 0xCFD DUP6 DUP3 DUP7 ADD PUSH2 0xB12 JUMP JUMPDEST SWAP2 POP POP SWAP3 POP SWAP3 SWAP1 POP JUMP JUMPDEST PUSH32 0x4E487B7100000000000000000000000000000000000000000000000000000000 PUSH0 MSTORE PUSH1 0x22 PUSH1 0x4 MSTORE PUSH1 0x24 PUSH0 REVERT JUMPDEST PUSH0 PUSH1 0x2 DUP3 DIV SWAP1 POP PUSH1 0x1 DUP3 AND DUP1 PUSH2 0xD4B JUMPI PUSH1 0x7F DUP3 AND SWAP2 POP JUMPDEST PUSH1 0x20 DUP3 LT DUP2 SUB PUSH2 0xD5E JUMPI PUSH2 0xD5D PUSH2 0xD07 JUMP JUMPDEST JUMPDEST POP SWAP2 SWAP1 POP JUMP JUMPDEST PUSH0 PUSH1 0x60 DUP3 ADD SWAP1 POP PUSH2 0xD77 PUSH0 DUP4 ADD DUP7 PUSH2 0xCA1 JUMP JUMPDEST PUSH2 0xD84 PUSH1 0x20 DUP4 ADD DUP6 PUSH2 0xBCA JUMP JUMPDEST PUSH2 0xD91 PUSH1 0x40 DUP4 ADD DUP5 PUSH2 0xBCA JUMP JUMPDEST SWAP5 SWAP4 POP POP POP POP JUMP JUMPDEST PUSH32 0x4E487B7100000000000000000000000000000000000000000000000000000000 PUSH0 MSTORE PUSH1 0x11 PUSH1 0x4 MSTORE PUSH1 0x24 PUSH0 REVERT JUMPDEST PUSH0 PUSH2 0xDD0 DUP3 PUSH2 0xB26 JUMP JUMPDEST SWAP2 POP PUSH2 0xDDB DUP4 PUSH2 0xB26 JUMP JUMPDEST SWAP3 POP DUP3 DUP3 ADD SWAP1 POP DUP1 DUP3 GT ISZERO PUSH2 0xDF3 JUMPI PUSH2 0xDF2 PUSH2 0xD99 JUMP JUMPDEST JUMPDEST SWAP3 SWAP2 POP POP JUMP INVALID LOG2 PUSH5 0x6970667358 0x22 SLT KECCAK256 MSTORE8 0xF7 PUSH15 0x8A80371CAF49F45F2AB794628733B6 CALLER 0xB4 SWAP2 PUSH2 0x3232 CODESIZE 0xA6 NUMBER 0xD0 0xD9 ADD 0xAB 0xBF PUSH5 0x736F6C6343 STOP ADDMOD BYTE STOP CALLER LOG2 PUSH5 0x6970667358 0x22 SLT KECCAK256 0xAF 0x2D AND 0xB6 LOG2 0xF8 CALLDATALOAD 0xED 0xD4 0xEB SHR 0x4D 0xF9 GASLIMIT SWAP14 0xE0 BLOCKHASH 0xF7 0xDB 0xD9 MSTORE CALL PUSH21 0xD6789A4A12D9641BDE64736F6C634300081A003300 "
				},
				"gasEstimates": {
					"creation": {
						"codeDepositCost": "1554000",
						"executionCost": "1622",
						"totalCost": "1555622"
					},
					"external": {
						"createToken(string,string,uint256)": "infinite"
					}
				},
				"methodIdentifiers": {
					"createToken(string,string,uint256)": "5b060530"
				}
			},
			"storageLayout": {
				"storage": [],
				"types": null
			},
			"userdoc": {
				"kind": "user",
				"methods": {},
				"version": 1
			}
		}
	}
}